{
  "contractName": "BoxingBets",
  "abi": [
    {
      "constant": true,
      "inputs": [],
      "name": "owner",
      "outputs": [
        {
          "name": "",
          "type": "address"
        }
      ],
      "payable": false,
      "stateMutability": "view",
      "type": "function"
    },
    {
      "constant": false,
      "inputs": [
        {
          "name": "newOwner",
          "type": "address"
        }
      ],
      "name": "transferOwnership",
      "outputs": [],
      "payable": false,
      "stateMutability": "nonpayable",
      "type": "function"
    },
    {
      "anonymous": false,
      "inputs": [
        {
          "indexed": true,
          "name": "previousOwner",
          "type": "address"
        },
        {
          "indexed": true,
          "name": "newOwner",
          "type": "address"
        }
      ],
      "name": "OwnershipTransferred",
      "type": "event"
    },
    {
      "constant": false,
      "inputs": [
        {
          "name": "_oracleAddress",
          "type": "address"
        }
      ],
      "name": "setOracleAddress",
      "outputs": [
        {
          "name": "",
          "type": "bool"
        }
      ],
      "payable": false,
      "stateMutability": "nonpayable",
      "type": "function"
    },
    {
      "constant": true,
      "inputs": [],
      "name": "getOracleAddress",
      "outputs": [
        {
          "name": "",
          "type": "address"
        }
      ],
      "payable": false,
      "stateMutability": "view",
      "type": "function"
    },
    {
      "constant": true,
      "inputs": [],
      "name": "getBettableMatches",
      "outputs": [
        {
          "name": "",
          "type": "bytes32[]"
        }
      ],
      "payable": false,
      "stateMutability": "view",
      "type": "function"
    },
    {
      "constant": true,
      "inputs": [
        {
          "name": "_matchId",
          "type": "bytes32"
        }
      ],
      "name": "getMatch",
      "outputs": [
        {
          "name": "id",
          "type": "bytes32"
        },
        {
          "name": "name",
          "type": "string"
        },
        {
          "name": "fighter1",
          "type": "string"
        },
        {
          "name": "fighter2",
          "type": "string"
        },
        {
          "name": "date",
          "type": "uint256"
        },
        {
          "name": "outcome",
          "type": "uint8"
        }
      ],
      "payable": false,
      "stateMutability": "view",
      "type": "function"
    },
    {
      "constant": true,
      "inputs": [],
      "name": "getMostRecentMatch",
      "outputs": [
        {
          "name": "id",
          "type": "bytes32"
        },
        {
          "name": "name",
          "type": "string"
        },
        {
          "name": "fighter1",
          "type": "string"
        },
        {
          "name": "fighter2",
          "type": "string"
        },
        {
          "name": "date",
          "type": "uint256"
        },
        {
          "name": "outcome",
          "type": "uint8"
        }
      ],
      "payable": false,
      "stateMutability": "view",
      "type": "function"
    },
    {
      "constant": false,
      "inputs": [
        {
          "name": "_matchId",
          "type": "bytes32"
        },
        {
          "name": "_amount",
          "type": "uint256"
        },
        {
          "name": "_outcome",
          "type": "uint8"
        }
      ],
      "name": "placeBet",
      "outputs": [],
      "payable": true,
      "stateMutability": "payable",
      "type": "function"
    },
    {
      "constant": true,
      "inputs": [],
      "name": "testOracleConnection",
      "outputs": [
        {
          "name": "",
          "type": "bool"
        }
      ],
      "payable": false,
      "stateMutability": "view",
      "type": "function"
    },
    {
      "constant": true,
      "inputs": [],
      "name": "math1",
      "outputs": [
        {
          "name": "",
          "type": "uint256"
        }
      ],
      "payable": false,
      "stateMutability": "pure",
      "type": "function"
    }
  ],
  "bytecode": "0x608060405273345ca3e014aaf5dca488057592ee47305d9b3e10600160006101000a81548173ffffffffffffffffffffffffffffffffffffffff021916908373ffffffffffffffffffffffffffffffffffffffff160217905550600160009054906101000a900473ffffffffffffffffffffffffffffffffffffffff16600260006101000a81548173ffffffffffffffffffffffffffffffffffffffff021916908373ffffffffffffffffffffffffffffffffffffffff160217905550336000806101000a81548173ffffffffffffffffffffffffffffffffffffffff021916908373ffffffffffffffffffffffffffffffffffffffff1602179055506113988061010b6000396000f3006080604052600436106100a4576000357c0100000000000000000000000000000000000000000000000000000000900463ffffffff1680630372b015146100a95780632ce3707e146100d45780633397741b146101035780633fbafb5e1461016f5780634c69c00f146101aa5780638da5cb5b14610205578063b18b78dd1461025c578063ced1b708146102b3578063f2fde38b14610446578063fcc6077d14610489575b600080fd5b3480156100b557600080fd5b506100be610636565b6040518082815260200191505060405180910390f35b3480156100e057600080fd5b506100e961067e565b604051808215151515815260200191505060405180910390f35b34801561010f57600080fd5b50610118610746565b6040518080602001828103825283818151815260200191508051906020019060200280838360005b8381101561015b578082015181840152602081019050610140565b505050509050019250505060405180910390f35b6101a8600480360381019080803560001916906020019092919080359060200190929190803560ff169060200190929190505050610864565b005b3480156101b657600080fd5b506101eb600480360381019080803573ffffffffffffffffffffffffffffffffffffffff169060200190929190505050610af5565b604051808215151515815260200191505060405180910390f35b34801561021157600080fd5b5061021a610cbe565b604051808273ffffffffffffffffffffffffffffffffffffffff1673ffffffffffffffffffffffffffffffffffffffff16815260200191505060405180910390f35b34801561026857600080fd5b50610271610ce3565b604051808273ffffffffffffffffffffffffffffffffffffffff1673ffffffffffffffffffffffffffffffffffffffff16815260200191505060405180910390f35b3480156102bf57600080fd5b506102c8610d0d565b6040518087600019166000191681526020018060200180602001806020018681526020018560038111156102f857fe5b60ff168152602001848103845289818151815260200191508051906020019080838360005b8381101561033857808201518184015260208101905061031d565b50505050905090810190601f1680156103655780820380516001836020036101000a031916815260200191505b50848103835288818151815260200191508051906020019080838360005b8381101561039e578082015181840152602081019050610383565b50505050905090810190601f1680156103cb5780820380516001836020036101000a031916815260200191505b50848103825287818151815260200191508051906020019080838360005b838110156104045780820151818401526020810190506103e9565b50505050905090810190601f1680156104315780820380516001836020036101000a031916815260200191505b50995050505050505050505060405180910390f35b34801561045257600080fd5b50610487600480360381019080803573ffffffffffffffffffffffffffffffffffffffff169060200190929190505050610f11565b005b34801561049557600080fd5b506104b86004803603810190808035600019169060200190929190505050611066565b6040518087600019166000191681526020018060200180602001806020018681526020018560038111156104e857fe5b60ff168152602001848103845289818151815260200191508051906020019080838360005b8381101561052857808201518184015260208101905061050d565b50505050905090810190601f1680156105555780820380516001836020036101000a031916815260200191505b50848103835288818151815260200191508051906020019080838360005b8381101561058e578082015181840152602081019050610573565b50505050905090810190601f1680156105bb5780820380516001836020036101000a031916815260200191505b50848103825287818151815260200191508051906020019080838360005b838110156105f45780820151818401526020810190506105d9565b50505050905090810190601f1680156106215780820380516001836020036101000a031916815260200191505b50995050505050505050505060405180910390f35b600080600066039696f3392000915066038d7ea4c68000905061067782610669620f42408461126e90919063ffffffff16565b6112a690919063ffffffff16565b9250505090565b6000600260009054906101000a900473ffffffffffffffffffffffffffffffffffffffff1673ffffffffffffffffffffffffffffffffffffffff16633412a15c6040518163ffffffff167c0100000000000000000000000000000000000000000000000000000000028152600401602060405180830381600087803b15801561070657600080fd5b505af115801561071a573d6000803e3d6000fd5b505050506040513d602081101561073057600080fd5b8101908080519060200190929190505050905090565b6060600260009054906101000a900473ffffffffffffffffffffffffffffffffffffffff1673ffffffffffffffffffffffffffffffffffffffff16635f29d4b16040518163ffffffff167c0100000000000000000000000000000000000000000000000000000000028152600401600060405180830381600087803b1580156107ce57600080fd5b505af11580156107e2573d6000803e3d6000fd5b505050506040513d6000823e3d601f19601f82011682018060405250602081101561080c57600080fd5b81019080805164010000000081111561082457600080fd5b8281019050602081018481111561083a57600080fd5b815185602082028301116401000000008211171561085757600080fd5b5050929190505050905090565b600080600260009054906101000a900473ffffffffffffffffffffffffffffffffffffffff1673ffffffffffffffffffffffffffffffffffffffff1663a9345240866040518263ffffffff167c0100000000000000000000000000000000000000000000000000000000028152600401808260001916600019168152602001915050602060405180830381600087803b15801561090057600080fd5b505af1158015610914573d6000803e3d6000fd5b505050506040513d602081101561092a57600080fd5b8101908080519060200190929190505050151561094657600080fd5b61095033866112bc565b15151561095c57600080fd5b60046000866000191660001916815260200190815260200160002091506001826080604051908101604052803373ffffffffffffffffffffffffffffffffffffffff168152602001886000191681526020018781526020018660018111156109c057fe5b8152509080600181540180825580915050906001820390600052602060002090600402016000909192909190915060008201518160000160006101000a81548173ffffffffffffffffffffffffffffffffffffffff021916908373ffffffffffffffffffffffffffffffffffffffff160217905550602082015181600101906000191690556040820151816002015560608201518160030160006101000a81548160ff02191690836001811115610a7357fe5b021790555050505050600360003373ffffffffffffffffffffffffffffffffffffffff1673ffffffffffffffffffffffffffffffffffffffff1681526020019081526020016000209050808590806001815401808255809150509060018203906000526020600020016000909192909190915090600019169055505050505050565b60008060009054906101000a900473ffffffffffffffffffffffffffffffffffffffff1673ffffffffffffffffffffffffffffffffffffffff163373ffffffffffffffffffffffffffffffffffffffff16141515610b5257600080fd5b81600160006101000a81548173ffffffffffffffffffffffffffffffffffffffff021916908373ffffffffffffffffffffffffffffffffffffffff160217905550600160009054906101000a900473ffffffffffffffffffffffffffffffffffffffff16600260006101000a81548173ffffffffffffffffffffffffffffffffffffffff021916908373ffffffffffffffffffffffffffffffffffffffff160217905550600260009054906101000a900473ffffffffffffffffffffffffffffffffffffffff1673ffffffffffffffffffffffffffffffffffffffff16633412a15c6040518163ffffffff167c0100000000000000000000000000000000000000000000000000000000028152600401602060405180830381600087803b158015610c7c57600080fd5b505af1158015610c90573d6000803e3d6000fd5b505050506040513d6020811015610ca657600080fd5b81019080805190602001909291905050509050919050565b6000809054906101000a900473ffffffffffffffffffffffffffffffffffffffff1681565b6000600160009054906101000a900473ffffffffffffffffffffffffffffffffffffffff16905090565b60006060806060600080600260009054906101000a900473ffffffffffffffffffffffffffffffffffffffff1673ffffffffffffffffffffffffffffffffffffffff1663bb2b0f5860016040518263ffffffff167c01000000000000000000000000000000000000000000000000000000000281526004018082151515158152602001915050600060405180830381600087803b158015610dad57600080fd5b505af1158015610dc1573d6000803e3d6000fd5b505050506040513d6000823e3d601f19601f8201168201806040525060c0811015610deb57600080fd5b81019080805190602001909291908051640100000000811115610e0d57600080fd5b82810190506020810184811115610e2357600080fd5b8151856001820283011164010000000082111715610e4057600080fd5b50509291906020018051640100000000811115610e5c57600080fd5b82810190506020810184811115610e7257600080fd5b8151856001820283011164010000000082111715610e8f57600080fd5b50509291906020018051640100000000811115610eab57600080fd5b82810190506020810184811115610ec157600080fd5b8151856001820283011164010000000082111715610ede57600080fd5b50509291906020018051906020019092919080519060200190929190505050955095509550955095509550909192939495565b6000809054906101000a900473ffffffffffffffffffffffffffffffffffffffff1673ffffffffffffffffffffffffffffffffffffffff163373ffffffffffffffffffffffffffffffffffffffff16141515610f6c57600080fd5b600073ffffffffffffffffffffffffffffffffffffffff168173ffffffffffffffffffffffffffffffffffffffff1614151515610fa857600080fd5b8073ffffffffffffffffffffffffffffffffffffffff166000809054906101000a900473ffffffffffffffffffffffffffffffffffffffff1673ffffffffffffffffffffffffffffffffffffffff167f8be0079c531659141344cd1fd0a4f28419497f9722a3daafe3b4186f6b6457e060405160405180910390a3806000806101000a81548173ffffffffffffffffffffffffffffffffffffffff021916908373ffffffffffffffffffffffffffffffffffffffff16021790555050565b60006060806060600080600260009054906101000a900473ffffffffffffffffffffffffffffffffffffffff1673ffffffffffffffffffffffffffffffffffffffff1663fcc6077d886040518263ffffffff167c0100000000000000000000000000000000000000000000000000000000028152600401808260001916600019168152602001915050600060405180830381600087803b15801561110957600080fd5b505af115801561111d573d6000803e3d6000fd5b505050506040513d6000823e3d601f19601f8201168201806040525060c081101561114757600080fd5b8101908080519060200190929190805164010000000081111561116957600080fd5b8281019050602081018481111561117f57600080fd5b815185600182028301116401000000008211171561119c57600080fd5b505092919060200180516401000000008111156111b857600080fd5b828101905060208101848111156111ce57600080fd5b81518560018202830111640100000000821117156111eb57600080fd5b5050929190602001805164010000000081111561120757600080fd5b8281019050602081018481111561121d57600080fd5b815185600182028301116401000000008211171561123a57600080fd5b5050929190602001805190602001909291908051906020019092919050505095509550955095509550955091939550919395565b60008083141561128157600090506112a0565b818302905081838281151561129257fe5b0414151561129c57fe5b8090505b92915050565b600081838115156112b357fe5b04905092915050565b6000806000600360008673ffffffffffffffffffffffffffffffffffffffff1673ffffffffffffffffffffffffffffffffffffffff168152602001908152602001600020915060008280549050111561135f57600090505b818054905081101561135e578360001916828281548110151561133357fe5b90600052602060002001546000191614156113515760019250611364565b8080600101915050611314565b5b600092505b5050929150505600a165627a7a72305820af1bd2567ddeec97e135a46646cc395f5ea4870345a3412c44ad7f6552ae7f4b0029",
  "source": "pragma solidity ^0.4.17;\n\nimport \"./Ownable.sol\";\nimport \"./OracleInterface.sol\";\nimport \"./SafeMath.sol\";\n\n//TODO: find a way to divide proportional chumpkins \n//TODO: implement payouts \n//TODO: change fighter1 & fighter2 to participants (array)\n//TODO: make generic for any sporting event with multiple participants \n\n\n/*\nTEST: \ninstance.testOracleConnection()\ninstance.setOracleAddress()\ninstance.getOracleAddress()\ninstance.getBettableMatches()\ninstance.getMostRecentMatch()           \ninstance.getMatch(0)\ninstance.getMatch(0x...)\ninstance.placeBet(0x..., 0.001, 1)\ninstance.placeBet(0x..., 0.001, 0)\nplace duplicate bet \n*/\n\n/// @title BoxingBets\n/// @author John R. Kosinski\n/// @notice Takes bets and handles payouts for boxing matches \ncontract BoxingBets is Ownable {\n\n    using SafeMath for uint; \n\n    //boxing results oracle \n    address oracleAddress = 0x345cA3e014Aaf5dcA488057592ee47305D9B3e10;\n    OracleInterface oracle = OracleInterface(oracleAddress); \n    \n    //mappings \n    mapping(address => bytes32[]) private userToBets;\n    mapping(bytes32 => Bet[]) private matchToBets;\n    mapping(bytes32 => bool) private matchPaidOut; \n\n    struct Bet {\n        address user;\n        bytes32 matchId;\n        uint amount; \n        BettableOutcome outcome; \n    }\n\n    enum BettableOutcome {\n        Fighter1,\n        Fighter2\n    }\n\n    /// @notice determines whether or not the user has already bet on the given match\n    /// @param _user address of a user\n    /// @param _matchId id of a match \n    /// @return true if the given user has already placed a bet on the given match \n    function _userHasBetOnMatch(address _user, bytes32 _matchId) private view returns (bool) {\n        bytes32[] storage userBets = userToBets[_user]; \n        if (userBets.length > 0) {\n            for (uint n = 0; n < userBets.length; n++) {\n                if (userBets[n] == _matchId) {\n                    return true;\n                }\n            }\n        }\n\n        return false;\n    }\n\n    /// @notice handle the payout of winnings for the given (completed) match \n    /// @param _matchId the id of the match for which to pay out winnings\n    function _payOutForMatch(bytes32 _matchId) private view {\n\n        OracleInterface.MatchOutcome outcome; \n        (,,,,,outcome) = oracle.getMatch(_matchId);\n        Bet[] storage bets = matchToBets[_matchId]; \n\n        uint[] memory amountsToPay = new uint[](bets.length);\n        bool[] memory wins = new bool[](bets.length); \n        uint i;\n\n        if (outcome == OracleInterface.MatchOutcome.Draw) {\n            for (i = 0; i < bets.length; i++) {\n                amountsToPay[i] = bets[i].amount;\n            }\n        } else {\n            uint winningAmount = 0; \n            uint losingAmount = 0; \n            uint totalPot = 0; \n            uint winnersBetAmount = 0;\n\n            //count the winning & losing bet amounts\n            for (i = 0; i < bets.length; i++) {\n                if ((bets[i].outcome == BettableOutcome.Fighter1 && outcome == OracleInterface.MatchOutcome.Fighter1) || \n                    (bets[i].outcome == BettableOutcome.Fighter2 && outcome == OracleInterface.MatchOutcome.Fighter2)) {\n                    winningAmount += bets[i].amount;\n                    wins[i] = true;\n                } else {\n                    losingAmount += bets[i].amount; \n                    wins[i] = false;\n                }\n                totalPot += bets[i].amount;\n            }\n\n            //calculate the amount to pay out for each bet \n            for (i = 0; i < bets.length; i++) {\n                amountsToPay[i] = 0; \n                if (wins[i]) {\n                    uint proportion = (bets[i].amount / winnersBetAmount);\n                    amountsToPay[i] = totalPot * proportion;\n                }\n            }\n        }\n\n        //pay out the necessary amounts \n        for (i = 0; i < bets.length; i++) {\n            if (amountsToPay[i] > 0) {\n                //_payOutBet(bets[i], amountsToPay[i]); \n            }\n        }\n    }\n\n\n    /// @notice sets the address of the boxing oracle contract to use \n    /// @dev setting a wrong address may result in false return value, or error \n    /// @param _oracleAddress the address of the boxing oracle \n    /// @return true if connection to the new oracle address was successful\n    function setOracleAddress(address _oracleAddress) external onlyOwner returns (bool) {\n        oracleAddress = _oracleAddress;\n        oracle = OracleInterface(oracleAddress); \n        return oracle.testConnection();\n    }\n\n    /// @notice gets the address of the boxing oracle being used \n    /// @return the address of the currently set oracle \n    function getOracleAddress() external view returns (address) {\n        return oracleAddress;\n    }\n\n    /// @notice gets a list ids of all currently bettable matches\n    /// @return array of match ids \n    function getBettableMatches() public view returns (bytes32[]) {\n        return oracle.getPendingMatches(); \n    }\n\n    /// @notice returns the full data of the specified match \n    /// @param _matchId the id of the desired match\n    /// @return match data \n    function getMatch(bytes32 _matchId) public view returns (\n        bytes32 id,\n        string name, \n        string fighter1, \n        string fighter2, \n        uint date, \n        OracleInterface.MatchOutcome outcome) { \n\n        return oracle.getMatch(_matchId); \n    }\n\n    /// @notice returns the full data of the most recent bettable match \n    /// @return match data \n    function getMostRecentMatch() public view returns (\n        bytes32 id,\n        string name, \n        string fighter1, \n        string fighter2, \n        uint date, \n        OracleInterface.MatchOutcome outcome) { \n\n        return oracle.getMostRecentMatch(true); \n    }\n\n    /// @notice places a non-rescindable bet on the given match \n    /// @param _matchId the id of the match on which to bet \n    /// @param _amount the amount (in wei) to bet \n    /// @param _outcome the outcome to bet on \n    function placeBet(bytes32 _matchId, uint _amount, BettableOutcome _outcome) public payable {\n\n        //make sure that match exists \n        require(oracle.matchExists(_matchId)); \n\n        //user should not have already placed bet (can't change bet after placing) \n        require(!_userHasBetOnMatch(msg.sender, _matchId)); \n\n        //add the new bet \n        Bet[] storage bets = matchToBets[_matchId]; \n        bets.push(Bet(msg.sender, _matchId, _amount, _outcome))-1; \n\n        //add the mapping\n        bytes32[] storage userBets = userToBets[msg.sender]; \n        userBets.push(_matchId); \n    }\n\n    /// @notice tests that we are connected to a valid oracle for match results \n    /// @return true if valid connection \n    function testOracleConnection() public view returns(bool) {\n        return oracle.testConnection();\n    }\n\n\n    function math1() public pure returns (uint) {\n        //return (10000000000000*1000000)/1010000000000000; \n        uint w = 1010000000000000; \n        uint b = 1000000000000000; \n        return (b.mul(1000000)).div(w);\n    }\n\n/*\n    function _payOutBet(Bet storage _bet, uint amount) private {\n        \n    }\n    \n    function checkOutcome(bytes32 _matchId) public returns (OracleInterface.MatchOutcome)  {\n        OracleInterface.MatchOutcome outcome; \n\n        (,,,, outcome) = oracle.getMatch(_matchId); \n\n        if (outcome != OracleInterface.MatchOutcome.Pending) {\n            if (!matchPaidOut[_matchId]) {\n                //_payOutForMatch(_matchId, outcome);\n            }\n        }\n\n        return outcome; \n    }\n    */\n}",
  "sourcePath": "/media/acer/D/clients/self/blockchain/ethereum/solidity/solidity-boxing/boxing-bets/contracts/BoxingBets.sol",
  "compiler": {
    "name": "solc",
    "version": "0.4.24+commit.e67f0147.Emscripten.clang"
  },
  "schemaVersion": "2.0.1",
  "updatedAt": "2018-07-17T02:51:12.124Z"
}