{
  "contractName": "BoxingOracle",
  "abi": [
    {
      "constant": true,
      "inputs": [],
      "name": "owner",
      "outputs": [
        {
          "name": "",
          "type": "address"
        }
      ],
      "payable": false,
      "stateMutability": "view",
      "type": "function"
    },
    {
      "constant": false,
      "inputs": [
        {
          "name": "newOwner",
          "type": "address"
        }
      ],
      "name": "transferOwnership",
      "outputs": [],
      "payable": false,
      "stateMutability": "nonpayable",
      "type": "function"
    },
    {
      "anonymous": false,
      "inputs": [
        {
          "indexed": true,
          "name": "previousOwner",
          "type": "address"
        },
        {
          "indexed": true,
          "name": "newOwner",
          "type": "address"
        }
      ],
      "name": "OwnershipTransferred",
      "type": "event"
    },
    {
      "constant": true,
      "inputs": [
        {
          "name": "_matchId",
          "type": "bytes32"
        }
      ],
      "name": "matchExists",
      "outputs": [
        {
          "name": "",
          "type": "bool"
        }
      ],
      "payable": false,
      "stateMutability": "view",
      "type": "function"
    },
    {
      "constant": false,
      "inputs": [
        {
          "name": "_name",
          "type": "string"
        },
        {
          "name": "_fighter1",
          "type": "string"
        },
        {
          "name": "_fighter2",
          "type": "string"
        },
        {
          "name": "_date",
          "type": "uint256"
        }
      ],
      "name": "addMatch",
      "outputs": [
        {
          "name": "",
          "type": "bytes32"
        }
      ],
      "payable": false,
      "stateMutability": "nonpayable",
      "type": "function"
    },
    {
      "constant": false,
      "inputs": [
        {
          "name": "_matchId",
          "type": "bytes32"
        },
        {
          "name": "_outcome",
          "type": "uint8"
        }
      ],
      "name": "declareOutcome",
      "outputs": [],
      "payable": false,
      "stateMutability": "nonpayable",
      "type": "function"
    },
    {
      "constant": true,
      "inputs": [],
      "name": "getPendingMatches",
      "outputs": [
        {
          "name": "",
          "type": "bytes32[]"
        }
      ],
      "payable": false,
      "stateMutability": "view",
      "type": "function"
    },
    {
      "constant": true,
      "inputs": [],
      "name": "getAllMatches",
      "outputs": [
        {
          "name": "",
          "type": "bytes32[]"
        }
      ],
      "payable": false,
      "stateMutability": "view",
      "type": "function"
    },
    {
      "constant": true,
      "inputs": [
        {
          "name": "_matchId",
          "type": "bytes32"
        }
      ],
      "name": "getMatch",
      "outputs": [
        {
          "name": "id",
          "type": "bytes32"
        },
        {
          "name": "name",
          "type": "string"
        },
        {
          "name": "fighter1",
          "type": "string"
        },
        {
          "name": "fighter2",
          "type": "string"
        },
        {
          "name": "date",
          "type": "uint256"
        },
        {
          "name": "outcome",
          "type": "uint8"
        }
      ],
      "payable": false,
      "stateMutability": "view",
      "type": "function"
    },
    {
      "constant": true,
      "inputs": [
        {
          "name": "_pending",
          "type": "bool"
        }
      ],
      "name": "getMostRecentMatch",
      "outputs": [
        {
          "name": "id",
          "type": "bytes32"
        },
        {
          "name": "name",
          "type": "string"
        },
        {
          "name": "fighter1",
          "type": "string"
        },
        {
          "name": "fighter2",
          "type": "string"
        },
        {
          "name": "date",
          "type": "uint256"
        },
        {
          "name": "outcome",
          "type": "uint8"
        }
      ],
      "payable": false,
      "stateMutability": "view",
      "type": "function"
    },
    {
      "constant": true,
      "inputs": [],
      "name": "testConnection",
      "outputs": [
        {
          "name": "",
          "type": "bool"
        }
      ],
      "payable": false,
      "stateMutability": "pure",
      "type": "function"
    },
    {
      "constant": true,
      "inputs": [],
      "name": "getAddress",
      "outputs": [
        {
          "name": "",
          "type": "address"
        }
      ],
      "payable": false,
      "stateMutability": "view",
      "type": "function"
    },
    {
      "constant": false,
      "inputs": [],
      "name": "addTestData",
      "outputs": [],
      "payable": false,
      "stateMutability": "nonpayable",
      "type": "function"
    }
  ],
  "bytecode": "0x6080604052336000806101000a81548173ffffffffffffffffffffffffffffffffffffffff021916908373ffffffffffffffffffffffffffffffffffffffff160217905550611665806100536000396000f3006080604052600436106100ba576000357c0100000000000000000000000000000000000000000000000000000000900463ffffffff1680633412a15c146100bf57806338cc4831146100ee5780635f29d4b1146101455780638cd95c78146101b15780638da5cb5b146101ef578063934965bb14610246578063a212b45414610361578063a934524014610378578063bb2b0f58146103c1578063c17c5a451461056c578063f2fde38b146105d8578063fcc6077d1461061b575b600080fd5b3480156100cb57600080fd5b506100d46107c8565b604051808215151515815260200191505060405180910390f35b3480156100fa57600080fd5b506101036107d1565b604051808273ffffffffffffffffffffffffffffffffffffffff1673ffffffffffffffffffffffffffffffffffffffff16815260200191505060405180910390f35b34801561015157600080fd5b5061015a6107d9565b6040518080602001828103825283818151815260200191508051906020019060200280838360005b8381101561019d578082015181840152602081019050610182565b505050509050019250505060405180910390f35b3480156101bd57600080fd5b506101ed6004803603810190808035600019169060200190929190803560ff169060200190929190505050610964565b005b3480156101fb57600080fd5b50610204610a2b565b604051808273ffffffffffffffffffffffffffffffffffffffff1673ffffffffffffffffffffffffffffffffffffffff16815260200191505060405180910390f35b34801561025257600080fd5b50610343600480360381019080803590602001908201803590602001908080601f0160208091040260200160405190810160405280939291908181526020018383808284378201915050505050509192919290803590602001908201803590602001908080601f0160208091040260200160405190810160405280939291908181526020018383808284378201915050505050509192919290803590602001908201803590602001908080601f016020809104026020016040519081016040528093929190818152602001838380828437820191505050505050919291929080359060200190929190505050610a50565b60405180826000191660001916815260200191505060405180910390f35b34801561036d57600080fd5b50610376610d83565b005b34801561038457600080fd5b506103a76004803603810190808035600019169060200190929190505050610fea565b604051808215151515815260200191505060405180910390f35b3480156103cd57600080fd5b506103ee60048036038101908080351515906020019092919050505061102f565b60405180876000191660001916815260200180602001806020018060200186815260200185600381111561041e57fe5b60ff168152602001848103845289818151815260200191508051906020019080838360005b8381101561045e578082015181840152602081019050610443565b50505050905090810190601f16801561048b5780820380516001836020036101000a031916815260200191505b50848103835288818151815260200191508051906020019080838360005b838110156104c45780820151818401526020810190506104a9565b50505050905090810190601f1680156104f15780820380516001836020036101000a031916815260200191505b50848103825287818151815260200191508051906020019080838360005b8381101561052a57808201518184015260208101905061050f565b50505050905090810190601f1680156105575780820380516001836020036101000a031916815260200191505b50995050505050505050505060405180910390f35b34801561057857600080fd5b506105816110aa565b6040518080602001828103825283818151815260200191508051906020019060200280838360005b838110156105c45780820151818401526020810190506105a9565b505050509050019250505060405180910390f35b3480156105e457600080fd5b50610619600480360381019080803573ffffffffffffffffffffffffffffffffffffffff169060200190929190505050611172565b005b34801561062757600080fd5b5061064a60048036038101908080356000191690602001909291905050506112c7565b60405180876000191660001916815260200180602001806020018060200186815260200185600381111561067a57fe5b60ff168152602001848103845289818151815260200191508051906020019080838360005b838110156106ba57808201518184015260208101905061069f565b50505050905090810190601f1680156106e75780820380516001836020036101000a031916815260200191505b50848103835288818151815260200191508051906020019080838360005b83811015610720578082015181840152602081019050610705565b50505050905090810190601f16801561074d5780820380516001836020036101000a031916815260200191505b50848103825287818151815260200191508051906020019080838360005b8381101561078657808201518184015260208101905061076b565b50505050905090810190601f1680156107b35780820380516001836020036101000a031916815260200191505b50995050505050505050505060405180910390f35b60006001905090565b600030905090565b6060600080606060008060009450600093505b60018054905084101561085b576000600381111561080657fe5b60018581548110151561081557fe5b906000526020600020906006020160050160009054906101000a900460ff16600381111561083f57fe5b141561084e5784806001019550505b83806001019450506107ec565b8460405190808252806020026020018201604052801561088a5781602001602082028038833980820191505090505b5092506000851115610959576000915060018054905090505b600081111561095857600060038111156108b957fe5b60018083038154811015156108ca57fe5b906000526020600020906006020160050160009054906101000a900460ff1660038111156108f457fe5b141561094a57600180820381548110151561090b57fe5b906000526020600020906006020160000154838380600101945081518110151561093157fe5b9060200190602002019060001916908160001916815250505b8080600190039150506108a3565b5b829550505050505090565b6000806000809054906101000a900473ffffffffffffffffffffffffffffffffffffffff1673ffffffffffffffffffffffffffffffffffffffff163373ffffffffffffffffffffffffffffffffffffffff161415156109c257600080fd5b6109cb84610fea565b15156109d657600080fd5b6109df8461156c565b91506001828154811015156109f057fe5b90600052602060002090600602019050828160050160006101000a81548160ff02191690836003811115610a2057fe5b021790555050505050565b6000809054906101000a900473ffffffffffffffffffffffffffffffffffffffff1681565b60008060008060009054906101000a900473ffffffffffffffffffffffffffffffffffffffff1673ffffffffffffffffffffffffffffffffffffffff163373ffffffffffffffffffffffffffffffffffffffff16141515610ab057600080fd5b868686866040516020018085805190602001908083835b602083101515610aec5780518252602082019150602081019050602083039250610ac7565b6001836020036101000a03801982511681845116808217855250505050505090500184805190602001908083835b602083101515610b3f5780518252602082019150602081019050602083039250610b1a565b6001836020036101000a03801982511681845116808217855250505050505090500183805190602001908083835b602083101515610b925780518252602082019150602081019050602083039250610b6d565b6001836020036101000a0380198251168184511680821785525050505050509050018281526020019450505050506040516020818303038152906040526040518082805190602001908083835b602083101515610c045780518252602082019150602081019050602083039250610bdf565b6001836020036101000a03801982511681845116808217855250505050505090500191505060405180910390209150610c3c82610fea565b151515610c4857600080fd5b60018060c060405190810160405280856000191681526020018a815260200189815260200188815260200187815260200160006003811115610c8657fe5b81525090806001815401808255809150509060018203906000526020600020906006020160009091929091909150600082015181600001906000191690556020820151816001019080519060200190610ce0929190611594565b506040820151816002019080519060200190610cfd929190611594565b506060820151816003019080519060200190610d1a929190611594565b506080820151816004015560a08201518160050160006101000a81548160ff02191690836003811115610d4957fe5b0217905550505003905060018101600260008460001916600019168152602001908152602001600020819055508192505050949350505050565b60008060009054906101000a900473ffffffffffffffffffffffffffffffffffffffff1673ffffffffffffffffffffffffffffffffffffffff163373ffffffffffffffffffffffffffffffffffffffff16141515610de057600080fd5b429050610e8e6040805190810160405280600281526020017f6d310000000000000000000000000000000000000000000000000000000000008152506040805190810160405280600381526020017f66316100000000000000000000000000000000000000000000000000000000008152506040805190810160405280600381526020017f663261000000000000000000000000000000000000000000000000000000000081525084610a50565b50610f3a6040805190810160405280600281526020017f6d320000000000000000000000000000000000000000000000000000000000008152506040805190810160405280600381526020017f66316200000000000000000000000000000000000000000000000000000000008152506040805190810160405280600381526020017f663262000000000000000000000000000000000000000000000000000000000081525084610a50565b50610fe66040805190810160405280600281526020017f6d330000000000000000000000000000000000000000000000000000000000008152506040805190810160405280600381526020017f66316300000000000000000000000000000000000000000000000000000000008152506040805190810160405280600381526020017f663263000000000000000000000000000000000000000000000000000000000081525084610a50565b5050565b600080600060018054905014156110045760009150611029565b6002600084600019166000191681526020019081526020016000205490506000811191505b50919050565b6000606080606060008060006060600060010291508815611059576110526107d9565b9050611064565b6110616110aa565b90505b60008151111561108a5780600081518110151561107d57fe5b9060200190602002015191505b611093826112c7565b975097509750975097509750505091939550919395565b6060806000806001805490506040519080825280602002602001820160405280156110e45781602001602082028038833980820191505090505b50925060006001805490501115611169576000915060018054905090505b600081111561116857600180820381548110151561111c57fe5b906000526020600020906006020160000154838380600101945081518110151561114257fe5b906020019060200201906000191690816000191681525050808060019003915050611102565b5b82935050505090565b6000809054906101000a900473ffffffffffffffffffffffffffffffffffffffff1673ffffffffffffffffffffffffffffffffffffffff163373ffffffffffffffffffffffffffffffffffffffff161415156111cd57600080fd5b600073ffffffffffffffffffffffffffffffffffffffff168173ffffffffffffffffffffffffffffffffffffffff161415151561120957600080fd5b8073ffffffffffffffffffffffffffffffffffffffff166000809054906101000a900473ffffffffffffffffffffffffffffffffffffffff1673ffffffffffffffffffffffffffffffffffffffff167f8be0079c531659141344cd1fd0a4f28419497f9722a3daafe3b4186f6b6457e060405160405180910390a3806000806101000a81548173ffffffffffffffffffffffffffffffffffffffff021916908373ffffffffffffffffffffffffffffffffffffffff16021790555050565b6000606080606060008060006112dc88610fea565b156115155760016112ec8961156c565b8154811015156112f857fe5b90600052602060002090600602019050806000015481600101826002018360030184600401548560050160009054906101000a900460ff16848054600181600116156101000203166002900480601f0160208091040260200160405190810160405280929190818152602001828054600181600116156101000203166002900480156113c55780601f1061139a576101008083540402835291602001916113c5565b820191906000526020600020905b8154815290600101906020018083116113a857829003601f168201915b50505050509450838054600181600116156101000203166002900480601f0160208091040260200160405190810160405280929190818152602001828054600181600116156101000203166002900480156114615780601f1061143657610100808354040283529160200191611461565b820191906000526020600020905b81548152906001019060200180831161144457829003601f168201915b50505050509350828054600181600116156101000203166002900480601f0160208091040260200160405190810160405280929190818152602001828054600181600116156101000203166002900480156114fd5780601f106114d2576101008083540402835291602001916114fd565b820191906000526020600020905b8154815290600101906020018083116114e057829003601f168201915b50505050509250965096509650965096509650611562565b876000806020604051908101604052806000815250919060206040519081016040528060008152509190602060405190810160405280600081525091908191509650965096509650965096505b5091939550919395565b6000600160026000846000191660001916815260200190815260200160002054039050919050565b828054600181600116156101000203166002900490600052602060002090601f016020900481019282601f106115d557805160ff1916838001178555611603565b82800160010185558215611603579182015b828111156116025782518255916020019190600101906115e7565b5b5090506116109190611614565b5090565b61163691905b8082111561163257600081600090555060010161161a565b5090565b905600a165627a7a723058202ce7ee25d400c5d96cf8b7471d251f3b252a5a8a5051fdfd0d114e45a489eb3f0029",
  "source": "pragma solidity ^0.4.17;\n\nimport \"./Ownable.sol\";\n\n/*\nTEST: \n- testConnection \n- getAddress\n- matchExists(0) \n- matchExists(1)\n- declareOutcome(0, 2)\n- getPendingMatches()\n- getAllMatches()\n- getMatch(0)\n- getMostRecentMatch(true)\n- addTestData()\n- matchExists(0) \n- matchExists(1)\n- declareOutcome(0, 2)\n- getPendingMatches()               \n- getAllMatches()                   \n- getMatch(0)\n- getMostRecentMatch(true)\n- getMostRecentMatch(false) \n- getMatch(0x...)                   \n- declareOutcome(0x..., 2)              \n- getMostRecentMatch(true)\n- getMostRecentMatch(false)\n- getMatch(0x...)              \n- add duplicate match      \n*/\n\n/// @title BoxingOracle\n/// @author John R. Kosinski\n/// @notice Collects and provides information on boxing matches and their outcomes \ncontract BoxingOracle is Ownable {\n    Match[] matches; \n    mapping(bytes32 => uint) matchIdToIndex; \n\n    //defines a match along with its outcome\n    struct Match {\n        bytes32 id;\n        string name;\n        string fighter1;\n        string fighter2;\n        uint date; \n        MatchOutcome outcome;\n    }\n\n    //possible match outcomes \n    enum MatchOutcome {\n        Pending,    //match has not been fought to decision\n        Draw,       //anything other than a clear winner (e.g. cancelled)\n        Fighter1,   //fighter1 won\n        Fighter2    //fighter2 won\n    }\n\n\n    /// @notice returns the array index of the match with the given id \n    /// @dev if the match id is invalid, then the return value will be incorrect and may cause error; you must call matchExists(_matchId) first!\n    /// @param _matchId the match id to get\n    /// @return an array index \n    function _getMatchIndex(bytes32 _matchId) private view returns (uint) {\n        return matchIdToIndex[_matchId]-1; \n    }\n\n    /// @notice determines whether a match exists with the given id \n    /// @param _matchId the match id to test\n    /// @return true if match exists and id is valid\n    function matchExists(bytes32 _matchId) public view returns (bool) {\n        if (matches.length == 0)\n            return false;\n        uint index = matchIdToIndex[_matchId]; \n        return (index > 0); \n    }\n\n    /// @notice puts a new pending match into the blockchain \n    /// @param _name descriptive name for the match (e.g. Pac vs. Mayweather 2016)\n    /// @param _fighter1 name of the first fighter in match (e.g. Manny Pacquiao) \n    /// @param _fighter2 name of the second fighter in match\n    /// @param _date date set for the match \n    /// @return the unique id of the newly created match \n    function addMatch(string _name, string _fighter1, string _fighter2, uint _date) onlyOwner public returns (bytes32) {\n        //hash the crucial info to get a unique id \n        bytes32 id = keccak256(abi.encodePacked(_name, _fighter1, _fighter2, _date)); \n\n        //require that the match be unique (not already added) \n        require(!matchExists(id));\n        \n        //add the match \n        uint newIndex = matches.push(Match(id, _name, _fighter1, _fighter2, _date, MatchOutcome.Pending))-1; \n        matchIdToIndex[id] = newIndex+1;\n        \n        //return the unique id of the new match\n        return id;\n    }\n\n    /// @notice sets the outcome of a predefined match, permanently on the blockchain\n    /// @param _matchId unique id of the match to modify\n    /// @param _outcome outcome of the match \n    function declareOutcome(bytes32 _matchId, MatchOutcome _outcome) onlyOwner external {\n\n        //require that it exists\n        require(matchExists(_matchId)); \n\n        //get the match \n        uint index = _getMatchIndex(_matchId);\n        Match storage theMatch = matches[index]; \n\n        //set the outcome \n        theMatch.outcome = _outcome;\n    }\n\n    /// @notice gets the unique ids of all pending matches, in reverse chronological order\n    /// @return an array of unique match ids\n    function getPendingMatches() public view returns (bytes32[]) {\n        uint count = 0; \n\n        //get count of pending matches \n        for (uint i = 0; i < matches.length; i++) {\n            if (matches[i].outcome == MatchOutcome.Pending) \n                count++; \n        }\n\n        //collect up all the pending matches\n        bytes32[] memory output = new bytes32[](count); \n\n        if (count > 0) {\n            uint index = 0;\n            for (uint n = matches.length; n > 0; n--) {\n                if (matches[n-1].outcome == MatchOutcome.Pending) \n                    output[index++] = matches[n-1].id;\n            }\n        } \n\n        return output; \n    }\n\n    /// @notice gets the unique ids of matches, pending and decided, in reverse chronological order\n    /// @return an array of unique match ids\n    function getAllMatches() public view returns (bytes32[]) {\n        bytes32[] memory output = new bytes32[](matches.length); \n\n        //get all ids \n        if (matches.length > 0) {\n            uint index = 0;\n            for (uint n = matches.length; n > 0; n--) {\n                output[index++] = matches[n-1].id;\n            }\n        }\n        \n        return output; \n    }\n\n    /// @notice gets the specified match \n    /// @param _matchId the unique id of the desired match \n    /// @return match data of the specified match \n    function getMatch(bytes32 _matchId) public view returns (\n        bytes32 id,\n        string name, \n        string fighter1, \n        string fighter2, \n        uint date, \n        MatchOutcome outcome) {\n        \n        //get the match \n        if (matchExists(_matchId)) {\n            Match storage theMatch = matches[_getMatchIndex(_matchId)];\n            return (theMatch.id, theMatch.name, theMatch.fighter1, theMatch.fighter2, theMatch.date, theMatch.outcome); \n        }\n        else {\n            return (_matchId, \"\", \"\", \"\", 0, MatchOutcome.Pending); \n        }\n    }\n\n    /// @notice gets the most recent match or pending match \n    /// @param _pending if true, will return only the most recent pending match; otherwise, returns the most recent match either pending or completed\n    /// @return match data \n    function getMostRecentMatch(bool _pending) public view returns (\n        bytes32 id,\n        string name, \n        string fighter1, \n        string fighter2, \n        uint date, \n        MatchOutcome outcome) {\n\n        bytes32 matchId = 0; \n        bytes32[] memory ids;\n\n        if (_pending) {\n            ids = getPendingMatches(); \n        } else {\n            ids = getAllMatches();\n        }\n        if (ids.length > 0) {\n            matchId = ids[0]; \n        }\n        \n        //by default, return a null match\n        return getMatch(matchId); \n    }\n\n    /// @notice can be used by a client contract to ensure that they've connected to this contract interface successfully\n    /// @return true, unconditionally \n    function testConnection() public pure returns (bool) {\n        return true; \n    }\n\n    /// @notice gets the address of this contract \n    /// @return address \n    function getAddress() public view returns (address) {\n        return this;\n    }\n\n    /// @notice for testing \n    function addTestData() external onlyOwner {\n        uint date = now;\n        addMatch(\"m1\", \"f1a\", \"f2a\", date);\n        addMatch(\"m2\", \"f1b\", \"f2b\", date);\n        addMatch(\"m3\", \"f1c\", \"f2c\", date);\n    }\n}",
  "sourcePath": "/media/acer/D/clients/self/blockchain/ethereum/solidity/crypto-champ/crypto-champ/boxing-oracle/contracts/BoxingOracle.sol",
  "compiler": {
    "name": "solc",
    "version": "0.4.24+commit.e67f0147.Emscripten.clang"
  },
  "schemaVersion": "2.0.1",
  "updatedAt": "2018-07-17T09:59:00.677Z"
}