{
  "contractName": "BoxingOracle",
  "abi": [
    {
      "constant": true,
      "inputs": [],
      "name": "owner",
      "outputs": [
        {
          "name": "",
          "type": "address"
        }
      ],
      "payable": false,
      "stateMutability": "view",
      "type": "function"
    },
    {
      "constant": false,
      "inputs": [
        {
          "name": "newOwner",
          "type": "address"
        }
      ],
      "name": "transferOwnership",
      "outputs": [],
      "payable": false,
      "stateMutability": "nonpayable",
      "type": "function"
    },
    {
      "anonymous": false,
      "inputs": [
        {
          "indexed": true,
          "name": "previousOwner",
          "type": "address"
        },
        {
          "indexed": true,
          "name": "newOwner",
          "type": "address"
        }
      ],
      "name": "OwnershipTransferred",
      "type": "event"
    },
    {
      "constant": true,
      "inputs": [
        {
          "name": "_matchId",
          "type": "bytes32"
        }
      ],
      "name": "matchExists",
      "outputs": [
        {
          "name": "",
          "type": "bool"
        }
      ],
      "payable": false,
      "stateMutability": "view",
      "type": "function"
    },
    {
      "constant": false,
      "inputs": [
        {
          "name": "_name",
          "type": "string"
        },
        {
          "name": "_participantCount",
          "type": "uint8"
        },
        {
          "name": "_date",
          "type": "uint256"
        }
      ],
      "name": "addMatch",
      "outputs": [
        {
          "name": "",
          "type": "bytes32"
        }
      ],
      "payable": false,
      "stateMutability": "nonpayable",
      "type": "function"
    },
    {
      "constant": false,
      "inputs": [
        {
          "name": "_matchId",
          "type": "bytes32"
        },
        {
          "name": "_outcome",
          "type": "uint8"
        },
        {
          "name": "_winner",
          "type": "int8"
        }
      ],
      "name": "declareOutcome",
      "outputs": [],
      "payable": false,
      "stateMutability": "nonpayable",
      "type": "function"
    },
    {
      "constant": true,
      "inputs": [],
      "name": "getPendingMatches",
      "outputs": [
        {
          "name": "",
          "type": "bytes32[]"
        }
      ],
      "payable": false,
      "stateMutability": "view",
      "type": "function"
    },
    {
      "constant": true,
      "inputs": [],
      "name": "getAllMatches",
      "outputs": [
        {
          "name": "",
          "type": "bytes32[]"
        }
      ],
      "payable": false,
      "stateMutability": "view",
      "type": "function"
    },
    {
      "constant": true,
      "inputs": [
        {
          "name": "_matchId",
          "type": "bytes32"
        }
      ],
      "name": "getMatch",
      "outputs": [
        {
          "name": "id",
          "type": "bytes32"
        },
        {
          "name": "name",
          "type": "string"
        },
        {
          "name": "participantCount",
          "type": "uint8"
        },
        {
          "name": "date",
          "type": "uint256"
        },
        {
          "name": "outcome",
          "type": "uint8"
        },
        {
          "name": "winner",
          "type": "int8"
        }
      ],
      "payable": false,
      "stateMutability": "view",
      "type": "function"
    },
    {
      "constant": true,
      "inputs": [
        {
          "name": "_pending",
          "type": "bool"
        }
      ],
      "name": "getMostRecentMatch",
      "outputs": [
        {
          "name": "id",
          "type": "bytes32"
        },
        {
          "name": "name",
          "type": "string"
        },
        {
          "name": "participantCount",
          "type": "uint8"
        },
        {
          "name": "date",
          "type": "uint256"
        },
        {
          "name": "outcome",
          "type": "uint8"
        },
        {
          "name": "winner",
          "type": "int8"
        }
      ],
      "payable": false,
      "stateMutability": "view",
      "type": "function"
    },
    {
      "constant": true,
      "inputs": [],
      "name": "testConnection",
      "outputs": [
        {
          "name": "",
          "type": "bool"
        }
      ],
      "payable": false,
      "stateMutability": "pure",
      "type": "function"
    },
    {
      "constant": true,
      "inputs": [],
      "name": "getAddress",
      "outputs": [
        {
          "name": "",
          "type": "address"
        }
      ],
      "payable": false,
      "stateMutability": "view",
      "type": "function"
    },
    {
      "constant": false,
      "inputs": [],
      "name": "addTestData",
      "outputs": [],
      "payable": false,
      "stateMutability": "nonpayable",
      "type": "function"
    }
  ],
  "bytecode": "0x6080604052336000806101000a81548173ffffffffffffffffffffffffffffffffffffffff021916908373ffffffffffffffffffffffffffffffffffffffff160217905550611ad9806100536000396000f3006080604052600436106100ba576000357c0100000000000000000000000000000000000000000000000000000000900463ffffffff1680633412a15c146100bf57806338cc4831146100ee5780635f29d4b1146101455780637898d334146101b15780638da5cb5b146101fc578063a212b45414610253578063a93452401461026a578063aa218ba4146102b3578063bb2b0f581461034f578063c17c5a451461043c578063f2fde38b146104a8578063fcc6077d146104eb575b600080fd5b3480156100cb57600080fd5b506100d46105da565b604051808215151515815260200191505060405180910390f35b3480156100fa57600080fd5b506101036105e3565b604051808273ffffffffffffffffffffffffffffffffffffffff1673ffffffffffffffffffffffffffffffffffffffff16815260200191505060405180910390f35b34801561015157600080fd5b5061015a6105eb565b6040518080602001828103825283818151815260200191508051906020019060200280838360005b8381101561019d578082015181840152602081019050610182565b505050509050019250505060405180910390f35b3480156101bd57600080fd5b506101fa6004803603810190808035600019169060200190929190803560ff169060200190929190803560000b9060200190929190505050610776565b005b34801561020857600080fd5b506102116108d1565b604051808273ffffffffffffffffffffffffffffffffffffffff1673ffffffffffffffffffffffffffffffffffffffff16815260200191505060405180910390f35b34801561025f57600080fd5b506102686108f6565b005b34801561027657600080fd5b506102996004803603810190808035600019169060200190929190505050610f29565b604051808215151515815260200191505060405180910390f35b3480156102bf57600080fd5b50610331600480360381019080803590602001908201803590602001908080601f0160208091040260200160405190810160405280939291908181526020018383808284378201915050505050509192919290803560ff16906020019092919080359060200190929190505050610f6e565b60405180826000191660001916815260200191505060405180910390f35b34801561035b57600080fd5b5061037c600480360381019080803515159060200190929190505050611257565b604051808760001916600019168152602001806020018660ff1660ff1681526020018581526020018460038111156103b057fe5b60ff1681526020018360000b60000b8152602001828103825287818151815260200191508051906020019080838360005b838110156103fc5780820151818401526020810190506103e1565b50505050905090810190601f1680156104295780820380516001836020036101000a031916815260200191505b5097505050505050505060405180910390f35b34801561044857600080fd5b506104516112d2565b6040518080602001828103825283818151815260200191508051906020019060200280838360005b83811015610494578082015181840152602081019050610479565b505050509050019250505060405180910390f35b3480156104b457600080fd5b506104e9600480360381019080803573ffffffffffffffffffffffffffffffffffffffff16906020019092919050505061139a565b005b3480156104f757600080fd5b5061051a60048036038101908080356000191690602001909291905050506114ef565b604051808760001916600019168152602001806020018660ff1660ff16815260200185815260200184600381111561054e57fe5b60ff1681526020018360000b60000b8152602001828103825287818151815260200191508051906020019080838360005b8381101561059a57808201518184015260208101905061057f565b50505050905090810190601f1680156105c75780820380516001836020036101000a031916815260200191505b5097505050505050505060405180910390f35b60006001905090565b600030905090565b6060600080606060008060009450600093505b60018054905084101561066d576000600381111561061857fe5b60018581548110151561062757fe5b906000526020600020906005020160040160009054906101000a900460ff16600381111561065157fe5b14156106605784806001019550505b83806001019450506105fe565b8460405190808252806020026020018201604052801561069c5781602001602082028038833980820191505090505b509250600085111561076b576000915060018054905090505b600081111561076a57600060038111156106cb57fe5b60018083038154811015156106dc57fe5b906000526020600020906005020160040160009054906101000a900460ff16600381111561070657fe5b141561075c57600180820381548110151561071d57fe5b906000526020600020906005020160000154838380600101945081518110151561074357fe5b9060200190602002019060001916908160001916815250505b8080600190039150506106b5565b5b829550505050505090565b6000806000809054906101000a900473ffffffffffffffffffffffffffffffffffffffff1673ffffffffffffffffffffffffffffffffffffffff163373ffffffffffffffffffffffffffffffffffffffff161415156107d457600080fd5b6107dd85610f29565b15156107e857600080fd5b6107f18561167d565b915060018281548110151561080257fe5b9060005260206000209060050201905060038081111561081e57fe5b84600381111561082a57fe5b14156108665760008360000b1215801561085a57508260ff168160020160009054906101000a900460ff1660ff16115b151561086557600080fd5b5b838160040160006101000a81548160ff0219169083600381111561088657fe5b021790555060038081111561089757fe5b8460038111156108a357fe5b14156108ca57828160040160016101000a81548160ff021916908360000b60ff1602179055505b5050505050565b6000809054906101000a900473ffffffffffffffffffffffffffffffffffffffff1681565b6000809054906101000a900473ffffffffffffffffffffffffffffffffffffffff1673ffffffffffffffffffffffffffffffffffffffff163373ffffffffffffffffffffffffffffffffffffffff1614151561095157600080fd5b6109f66040805190810160405280601781526020017f506163717569616f2076732e204d61795765617468657200000000000000000081525060026109f1610100604051908101604052806107e261ffff168152602001600860ff168152602001600d60ff168152602001600060ff168152602001600060ff168152602001600060ff168152602001600060ff168152602001600060ff168152506116a5565b610f6e565b50610a9c6040805190810160405280601781526020017f4d6163717569616f2076732e20506179776561746865720000000000000000008152506002610a97610100604051908101604052806107e261ffff168152602001600860ff168152602001600f60ff168152602001600060ff168152602001600060ff168152602001600060ff168152602001600060ff168152602001600060ff168152506116a5565b610f6e565b50610b426040805190810160405280601881526020017f506163776561746865722076732e204d616361727468757200000000000000008152506002610b3d610100604051908101604052806107e261ffff168152602001600960ff168152602001600360ff168152602001600060ff168152602001600060ff168152602001600060ff168152602001600060ff168152602001600060ff168152506116a5565b610f6e565b50610be86040805190810160405280601481526020017f4d61636172746875722076732e205472756d616e0000000000000000000000008152506002610be3610100604051908101604052806107e261ffff168152602001600960ff168152602001600360ff168152602001600060ff168152602001600060ff168152602001600060ff168152602001600060ff168152602001600060ff168152506116a5565b610f6e565b50610c8e6040805190810160405280601481526020017f4d6163617175652076732e2050726567756e746f0000000000000000000000008152506002610c89610100604051908101604052806107e261ffff168152602001600960ff168152602001601560ff168152602001600060ff168152602001600060ff168152602001600060ff168152602001600060ff168152602001600060ff168152506116a5565b610f6e565b50610d346040805190810160405280601781526020017f46617273776f7274682076732e205765726e7374726f6d0000000000000000008152506002610d2f610100604051908101604052806107e261ffff168152602001600960ff168152602001601d60ff168152602001600060ff168152602001600060ff168152602001600060ff168152602001600060ff168152602001600060ff168152506116a5565b610f6e565b50610dda6040805190810160405280601581526020017f466f7274696e627261732076732e2048616d6c657400000000000000000000008152506002610dd5610100604051908101604052806107e261ffff168152602001600a60ff168152602001600a60ff168152602001600060ff168152602001600060ff168152602001600060ff168152602001600060ff168152602001600060ff168152506116a5565b610f6e565b50610e806040805190810160405280601581526020017f466f6f6c69636c652076732e2050726574656e646f00000000000000000000008152506002610e7b610100604051908101604052806107e261ffff168152602001600b60ff168152602001600b60ff168152602001600060ff168152602001600060ff168152602001600060ff168152602001600060ff168152602001600060ff168152506116a5565b610f6e565b50610f266040805190810160405280601581526020017f506172746869616e2076732e20536379746869616e00000000000000000000008152506002610f21610100604051908101604052806107e261ffff168152602001600b60ff168152602001600c60ff168152602001600060ff168152602001600060ff168152602001600060ff168152602001600060ff168152602001600060ff168152506116a5565b610f6e565b50565b60008060006001805490501415610f435760009150610f68565b6002600084600019166000191681526020019081526020016000205490506000811191505b50919050565b60008060008060009054906101000a900473ffffffffffffffffffffffffffffffffffffffff1673ffffffffffffffffffffffffffffffffffffffff163373ffffffffffffffffffffffffffffffffffffffff16141515610fce57600080fd5b8585856040516020018084805190602001908083835b6020831015156110095780518252602082019150602081019050602083039250610fe4565b6001836020036101000a0380198251168184511680821785525050505050509050018360ff1660ff167f010000000000000000000000000000000000000000000000000000000000000002815260010182815260200193505050506040516020818303038152906040526040518082805190602001908083835b6020831015156110a85780518252602082019150602081019050602083039250611083565b6001836020036101000a038019825116818451168082178552505050505050905001915050604051809103902091506110e082610f29565b1515156110ec57600080fd5b60018060c060405190810160405280856000191681526020018981526020018860ff1681526020018781526020016000600381111561112757fe5b81526020017fffffffffffffffffffffffffffffffffffffffffffffffffffffffffffffffff60000b815250908060018154018082558091505090600182039060005260206000209060050201600090919290919091506000820151816000019060001916905560208201518160010190805190602001906111aa9291906119e4565b5060408201518160020160006101000a81548160ff021916908360ff1602179055506060820151816003015560808201518160040160006101000a81548160ff021916908360038111156111fa57fe5b021790555060a08201518160040160016101000a81548160ff021916908360000b60ff1602179055505050039050600181016002600084600019166000191681526020019081526020016000208190555081925050509392505050565b60006060600080600080600060606000600102915088156112815761127a6105eb565b905061128c565b6112896112d2565b90505b6000815111156112b2578060008151811015156112a557fe5b9060200190602002015191505b6112bb826114ef565b975097509750975097509750505091939550919395565b60608060008060018054905060405190808252806020026020018201604052801561130c5781602001602082028038833980820191505090505b50925060006001805490501115611391576000915060018054905090505b600081111561139057600180820381548110151561134457fe5b906000526020600020906005020160000154838380600101945081518110151561136a57fe5b90602001906020020190600019169081600019168152505080806001900391505061132a565b5b82935050505090565b6000809054906101000a900473ffffffffffffffffffffffffffffffffffffffff1673ffffffffffffffffffffffffffffffffffffffff163373ffffffffffffffffffffffffffffffffffffffff161415156113f557600080fd5b600073ffffffffffffffffffffffffffffffffffffffff168173ffffffffffffffffffffffffffffffffffffffff161415151561143157600080fd5b8073ffffffffffffffffffffffffffffffffffffffff166000809054906101000a900473ffffffffffffffffffffffffffffffffffffffff1673ffffffffffffffffffffffffffffffffffffffff167f8be0079c531659141344cd1fd0a4f28419497f9722a3daafe3b4186f6b6457e060405160405180910390a3806000806101000a81548173ffffffffffffffffffffffffffffffffffffffff021916908373ffffffffffffffffffffffffffffffffffffffff16021790555050565b60006060600080600080600061150488610f29565b156116215760016115148961167d565b81548110151561152057fe5b906000526020600020906005020190508060000154816001018260020160009054906101000a900460ff1683600301548460040160009054906101000a900460ff168560040160019054906101000a900460000b848054600181600116156101000203166002900480601f0160208091040260200160405190810160405280929190818152602001828054600181600116156101000203166002900480156116095780601f106115de57610100808354040283529160200191611609565b820191906000526020600020905b8154815290600101906020018083116115ec57829003601f168201915b50505050509450965096509650965096509650611673565b8760008060007fffffffffffffffffffffffffffffffffffffffffffffffffffffffffffffffff6020604051908101604052806000815250939291908393508292508090509650965096509650965096505b5091939550919395565b6000600160026000846000191660001916815260200190815260200160002054039050919050565b6000806116b0611a64565b6107b291505b836000015161ffff168261ffff1610156116fd576116d382611963565b156116e6576301e28500830192506116f0565b6301e13380830192505b81806001019250506116b6565b601f816000600c8110151561170e57fe5b602002019060ff16908160ff168152505061172c8460000151611963565b1561175857601d816001600c8110151561174257fe5b602002019060ff16908160ff168152505061177b565b601c816001600c8110151561176957fe5b602002019060ff16908160ff16815250505b601f816002600c8110151561178c57fe5b602002019060ff16908160ff1681525050601e816003600c811015156117ae57fe5b602002019060ff16908160ff1681525050601f816004600c811015156117d057fe5b602002019060ff16908160ff1681525050601e816005600c811015156117f257fe5b602002019060ff16908160ff1681525050601f816006600c8110151561181457fe5b602002019060ff16908160ff1681525050601f816007600c8110151561183657fe5b602002019060ff16908160ff1681525050601e816008600c8110151561185857fe5b602002019060ff16908160ff1681525050601f816009600c8110151561187a57fe5b602002019060ff16908160ff1681525050601e81600a600c8110151561189c57fe5b602002019060ff16908160ff1681525050601f81600b600c811015156118be57fe5b602002019060ff16908160ff1681525050600191505b836020015160ff168261ffff16101561191a57806001830361ffff16600c811015156118fc57fe5b602002015160ff1662015180028301925081806001019250506118d4565b600184604001510360ff16620151800283019250836060015160ff16610e100283019250836080015160ff16603c02830192508360a0015160ff16830192508292505050919050565b60008060048361ffff1681151561197657fe5b0661ffff1614151561198b57600090506119df565b600060648361ffff1681151561199d57fe5b0661ffff161415156119b257600190506119df565b60006101908361ffff168115156119c557fe5b0661ffff161415156119da57600090506119df565b600190505b919050565b828054600181600116156101000203166002900490600052602060002090601f016020900481019282601f10611a2557805160ff1916838001178555611a53565b82800160010185558215611a53579182015b82811115611a52578251825591602001919060010190611a37565b5b509050611a609190611a88565b5090565b61018060405190810160405280600c90602082028038833980820191505090505090565b611aaa91905b80821115611aa6576000816000905550600101611a8e565b5090565b905600a165627a7a723058200ce20e24658a74c49a7cf68cd276e3a2d1cc95fb1922b5d83e8727903e8a221a0029",
  "source": "pragma solidity ^0.4.17;\n\nimport \"./Ownable.sol\";\nimport \"./DateLib.sol\";\n\n/*\nTEST: \n- testConnection \n- getAddress\n- matchExists(0) \n- matchExists(1)\n- declareOutcome(0, 2)\n- getPendingMatches()\n- getAllMatches()\n- getMatch(0)\n- getMostRecentMatch(true)\n- addTestData()\n- matchExists(0) \n- matchExists(1)\n- declareOutcome(0, 2)\n- getPendingMatches()               \n- getAllMatches()                   \n- getMatch(0)\n- getMostRecentMatch(true)\n- getMostRecentMatch(false) \n- getMatch(0x...)                   \n- declareOutcome(0x..., 2)              \n- getMostRecentMatch(true)\n- getMostRecentMatch(false)\n- getMatch(0x...)              \n- add duplicate match      \n*/\n\n/// @title BoxingOracle\n/// @author John R. Kosinski\n/// @notice Collects and provides information on boxing matches and their outcomes \ncontract BoxingOracle is Ownable {\n    Match[] matches; \n    mapping(bytes32 => uint) matchIdToIndex; \n\n    struct DateTime {\n        uint16 year;\n        uint8 month;\n        uint8 day;\n        uint8 hour;\n        uint8 minute;\n        uint8 second;\n        uint8 ms;\n        uint8 weekday;\n    }\n    using DateLib for DateLib.DateTime;\n\n    //defines a match along with its outcome\n    struct Match {\n        bytes32 id;\n        string name;\n        uint8 participantCount;\n        uint date; \n        MatchOutcome outcome;\n        int8 winner;\n    }\n\n    //possible match outcomes \n    enum MatchOutcome {\n        Pending,    //match has not been fought to decision\n        Underway,   //match has started & is underway\n        Draw,       //anything other than a clear winner (e.g. cancelled)\n        Decided     //index of participant who is the winner \n    }\n\n\n    /// @notice returns the array index of the match with the given id \n    /// @dev if the match id is invalid, then the return value will be incorrect and may cause error; you must call matchExists(_matchId) first!\n    /// @param _matchId the match id to get\n    /// @return an array index \n    function _getMatchIndex(bytes32 _matchId) private view returns (uint) {\n        return matchIdToIndex[_matchId]-1; \n    }\n\n    /// @notice determines whether a match exists with the given id \n    /// @param _matchId the match id to test\n    /// @return true if match exists and id is valid\n    function matchExists(bytes32 _matchId) public view returns (bool) {\n        if (matches.length == 0)\n            return false;\n        uint index = matchIdToIndex[_matchId]; \n        return (index > 0); \n    }\n\n    /// @notice puts a new pending match into the blockchain \n    /// @param _name descriptive name for the match (e.g. Pac vs. Mayweather 2016)\n    /// @param _participantCount the number of participants in the match \n    /// @param _date date set for the match \n    /// @return the unique id of the newly created match \n    function addMatch(string _name, uint8 _participantCount, uint _date) onlyOwner public returns (bytes32) {\n        //hash the crucial info to get a unique id \n        bytes32 id = keccak256(abi.encodePacked(_name, _participantCount, _date)); \n\n        //require that the match be unique (not already added) \n        require(!matchExists(id));\n        \n        //add the match \n        uint newIndex = matches.push(Match(id, _name, _participantCount, _date, MatchOutcome.Pending, -1))-1; \n        matchIdToIndex[id] = newIndex+1;\n        \n        //return the unique id of the new match\n        return id;\n    }\n\n    /// @notice sets the outcome of a predefined match, permanently on the blockchain\n    /// @param _matchId unique id of the match to modify\n    /// @param _outcome outcome of the match \n    function declareOutcome(bytes32 _matchId, MatchOutcome _outcome, int8 _winner) onlyOwner external {\n\n        //require that it exists\n        require(matchExists(_matchId)); \n\n        //get the match \n        uint index = _getMatchIndex(_matchId);\n        Match storage theMatch = matches[index]; \n\n        if (_outcome == MatchOutcome.Decided) \n            require(_winner >= 0 && theMatch.participantCount > uint8(_winner)); \n\n        //set the outcome \n        theMatch.outcome = _outcome;\n        \n        //set the winner (if there is one)\n        if (_outcome == MatchOutcome.Decided) \n            theMatch.winner = _winner;\n    }\n\n    /// @notice gets the unique ids of all pending matches, in reverse chronological order\n    /// @return an array of unique match ids\n    function getPendingMatches() public view returns (bytes32[]) {\n        uint count = 0; \n\n        //get count of pending matches \n        for (uint i = 0; i < matches.length; i++) {\n            if (matches[i].outcome == MatchOutcome.Pending) \n                count++; \n        }\n\n        //collect up all the pending matches\n        bytes32[] memory output = new bytes32[](count); \n\n        if (count > 0) {\n            uint index = 0;\n            for (uint n = matches.length; n > 0; n--) {\n                if (matches[n-1].outcome == MatchOutcome.Pending) \n                    output[index++] = matches[n-1].id;\n            }\n        } \n\n        return output; \n    }\n\n    /// @notice gets the unique ids of matches, pending and decided, in reverse chronological order\n    /// @return an array of unique match ids\n    function getAllMatches() public view returns (bytes32[]) {\n        bytes32[] memory output = new bytes32[](matches.length); \n\n        //get all ids \n        if (matches.length > 0) {\n            uint index = 0;\n            for (uint n = matches.length; n > 0; n--) {\n                output[index++] = matches[n-1].id;\n            }\n        }\n        \n        return output; \n    }\n\n    /// @notice gets the specified match \n    /// @param _matchId the unique id of the desired match \n    /// @return match data of the specified match \n    function getMatch(bytes32 _matchId) public view returns (\n        bytes32 id,\n        string name, \n        uint8 participantCount,\n        uint date, \n        MatchOutcome outcome, \n        int8 winner) {\n        \n        //get the match \n        if (matchExists(_matchId)) {\n            Match storage theMatch = matches[_getMatchIndex(_matchId)];\n            return (theMatch.id, theMatch.name, theMatch.participantCount, theMatch.date, theMatch.outcome, theMatch.winner); \n        }\n        else {\n            return (_matchId, \"\", 0, 0, MatchOutcome.Pending, -1); \n        }\n    }\n\n    /// @notice gets the most recent match or pending match \n    /// @param _pending if true, will return only the most recent pending match; otherwise, returns the most recent match either pending or completed\n    /// @return match data \n    function getMostRecentMatch(bool _pending) public view returns (\n        bytes32 id,\n        string name, \n        uint8 participantCount,\n        uint date, \n        MatchOutcome outcome, \n        int8 winner) {\n\n        bytes32 matchId = 0; \n        bytes32[] memory ids;\n\n        if (_pending) {\n            ids = getPendingMatches(); \n        } else {\n            ids = getAllMatches();\n        }\n        if (ids.length > 0) {\n            matchId = ids[0]; \n        }\n        \n        //by default, return a null match\n        return getMatch(matchId); \n    }\n\n    /// @notice can be used by a client contract to ensure that they've connected to this contract interface successfully\n    /// @return true, unconditionally \n    function testConnection() public pure returns (bool) {\n        return true; \n    }\n\n    /// @notice gets the address of this contract \n    /// @return address \n    function getAddress() public view returns (address) {\n        return this;\n    }\n\n    /// @notice for testing \n    function addTestData() external onlyOwner {\n        addMatch(\"Pacquiao vs. MayWeather\", 2, DateLib.DateTime(2018, 8, 13, 0, 0, 0, 0, 0).toUnixTimestamp());\n        addMatch(\"Macquiao vs. Payweather\", 2, DateLib.DateTime(2018, 8, 15, 0, 0, 0, 0, 0).toUnixTimestamp());\n        addMatch(\"Pacweather vs. Macarthur\", 2, DateLib.DateTime(2018, 9, 3, 0, 0, 0, 0, 0).toUnixTimestamp());\n        addMatch(\"Macarthur vs. Truman\", 2, DateLib.DateTime(2018, 9, 3, 0, 0, 0, 0, 0).toUnixTimestamp());\n        addMatch(\"Macaque vs. Pregunto\", 2, DateLib.DateTime(2018, 9, 21, 0, 0, 0, 0, 0).toUnixTimestamp());\n        addMatch(\"Farsworth vs. Wernstrom\", 2, DateLib.DateTime(2018, 9, 29, 0, 0, 0, 0, 0).toUnixTimestamp());\n        addMatch(\"Fortinbras vs. Hamlet\", 2, DateLib.DateTime(2018, 10, 10, 0, 0, 0, 0, 0).toUnixTimestamp());\n        addMatch(\"Foolicle vs. Pretendo\", 2, DateLib.DateTime(2018, 11, 11, 0, 0, 0, 0, 0).toUnixTimestamp());\n        addMatch(\"Parthian vs. Scythian\", 2, DateLib.DateTime(2018, 11, 12, 0, 0, 0, 0, 0).toUnixTimestamp());\n    }\n}",
  "sourcePath": "/media/acer/D/clients/self/blockchain/ethereum/solidity/crypto-champ/crypto-champ/boxing-oracle/contracts/BoxingOracle.sol",
  "compiler": {
    "name": "solc",
    "version": "0.4.24+commit.e67f0147.Emscripten.clang"
  },
  "schemaVersion": "2.0.1",
  "updatedAt": "2018-07-19T12:25:28.487Z"
}