{
  "contractName": "BoxingOracle",
  "abi": [
    {
      "constant": true,
      "inputs": [],
      "name": "owner",
      "outputs": [
        {
          "name": "",
          "type": "address"
        }
      ],
      "payable": false,
      "stateMutability": "view",
      "type": "function"
    },
    {
      "constant": false,
      "inputs": [
        {
          "name": "newOwner",
          "type": "address"
        }
      ],
      "name": "transferOwnership",
      "outputs": [],
      "payable": false,
      "stateMutability": "nonpayable",
      "type": "function"
    },
    {
      "anonymous": false,
      "inputs": [
        {
          "indexed": true,
          "name": "previousOwner",
          "type": "address"
        },
        {
          "indexed": true,
          "name": "newOwner",
          "type": "address"
        }
      ],
      "name": "OwnershipTransferred",
      "type": "event"
    },
    {
      "constant": true,
      "inputs": [
        {
          "name": "_matchId",
          "type": "bytes32"
        }
      ],
      "name": "matchExists",
      "outputs": [
        {
          "name": "",
          "type": "bool"
        }
      ],
      "payable": false,
      "stateMutability": "view",
      "type": "function"
    },
    {
      "constant": false,
      "inputs": [
        {
          "name": "_name",
          "type": "string"
        },
        {
          "name": "_participants",
          "type": "string"
        },
        {
          "name": "_participantCount",
          "type": "uint8"
        },
        {
          "name": "_date",
          "type": "uint256"
        }
      ],
      "name": "addMatch",
      "outputs": [
        {
          "name": "",
          "type": "bytes32"
        }
      ],
      "payable": false,
      "stateMutability": "nonpayable",
      "type": "function"
    },
    {
      "constant": false,
      "inputs": [
        {
          "name": "_matchId",
          "type": "bytes32"
        }
      ],
      "name": "setMatchUnderway",
      "outputs": [],
      "payable": false,
      "stateMutability": "nonpayable",
      "type": "function"
    },
    {
      "constant": false,
      "inputs": [
        {
          "name": "_matchId",
          "type": "bytes32"
        }
      ],
      "name": "setMatchCancelled",
      "outputs": [],
      "payable": false,
      "stateMutability": "nonpayable",
      "type": "function"
    },
    {
      "constant": false,
      "inputs": [
        {
          "name": "_matchId",
          "type": "bytes32"
        },
        {
          "name": "_outcome",
          "type": "uint8"
        },
        {
          "name": "_winner",
          "type": "int8"
        }
      ],
      "name": "declareOutcome",
      "outputs": [],
      "payable": false,
      "stateMutability": "nonpayable",
      "type": "function"
    },
    {
      "constant": true,
      "inputs": [],
      "name": "getPendingMatches",
      "outputs": [
        {
          "name": "",
          "type": "bytes32[]"
        }
      ],
      "payable": false,
      "stateMutability": "view",
      "type": "function"
    },
    {
      "constant": true,
      "inputs": [],
      "name": "getAllMatches",
      "outputs": [
        {
          "name": "",
          "type": "bytes32[]"
        }
      ],
      "payable": false,
      "stateMutability": "view",
      "type": "function"
    },
    {
      "constant": true,
      "inputs": [
        {
          "name": "_matchId",
          "type": "bytes32"
        }
      ],
      "name": "getMatch",
      "outputs": [
        {
          "name": "id",
          "type": "bytes32"
        },
        {
          "name": "name",
          "type": "string"
        },
        {
          "name": "participants",
          "type": "string"
        },
        {
          "name": "participantCount",
          "type": "uint8"
        },
        {
          "name": "date",
          "type": "uint256"
        },
        {
          "name": "outcome",
          "type": "uint8"
        },
        {
          "name": "winner",
          "type": "int8"
        }
      ],
      "payable": false,
      "stateMutability": "view",
      "type": "function"
    },
    {
      "constant": true,
      "inputs": [
        {
          "name": "_pending",
          "type": "bool"
        }
      ],
      "name": "getMostRecentMatch",
      "outputs": [
        {
          "name": "id",
          "type": "bytes32"
        },
        {
          "name": "name",
          "type": "string"
        },
        {
          "name": "participants",
          "type": "string"
        },
        {
          "name": "participantCount",
          "type": "uint8"
        },
        {
          "name": "date",
          "type": "uint256"
        },
        {
          "name": "outcome",
          "type": "uint8"
        },
        {
          "name": "winner",
          "type": "int8"
        }
      ],
      "payable": false,
      "stateMutability": "view",
      "type": "function"
    },
    {
      "constant": true,
      "inputs": [],
      "name": "testConnection",
      "outputs": [
        {
          "name": "",
          "type": "bool"
        }
      ],
      "payable": false,
      "stateMutability": "pure",
      "type": "function"
    },
    {
      "constant": true,
      "inputs": [],
      "name": "getAddress",
      "outputs": [
        {
          "name": "",
          "type": "address"
        }
      ],
      "payable": false,
      "stateMutability": "view",
      "type": "function"
    },
    {
      "constant": false,
      "inputs": [],
      "name": "addTestData",
      "outputs": [],
      "payable": false,
      "stateMutability": "nonpayable",
      "type": "function"
    }
  ],
  "bytecode": "0x6080604052336000806101000a81548173ffffffffffffffffffffffffffffffffffffffff021916908373ffffffffffffffffffffffffffffffffffffffff160217905550612111806100536000396000f3006080604052600436106100d0576000357c0100000000000000000000000000000000000000000000000000000000900463ffffffff1680633412a15c146100d557806338cc4831146101045780635f29d4b11461015b5780637898d334146101c75780638da5cb5b14610212578063a1d2d31414610269578063a212b4541461034b578063a934524014610362578063bb2b0f58146103ab578063c17c5a4514610504578063c39acb9614610570578063f2fde38b146105a1578063fc34659e146105e4578063fcc6077d14610615575b600080fd5b3480156100e157600080fd5b506100ea610770565b604051808215151515815260200191505060405180910390f35b34801561011057600080fd5b50610119610779565b604051808273ffffffffffffffffffffffffffffffffffffffff1673ffffffffffffffffffffffffffffffffffffffff16815260200191505060405180910390f35b34801561016757600080fd5b50610170610781565b6040518080602001828103825283818151815260200191508051906020019060200280838360005b838110156101b3578082015181840152602081019050610198565b505050509050019250505060405180910390f35b3480156101d357600080fd5b506102106004803603810190808035600019169060200190929190803560ff169060200190929190803560000b906020019092919050505061090c565b005b34801561021e57600080fd5b50610227610a9f565b604051808273ffffffffffffffffffffffffffffffffffffffff1673ffffffffffffffffffffffffffffffffffffffff16815260200191505060405180910390f35b34801561027557600080fd5b5061032d600480360381019080803590602001908201803590602001908080601f0160208091040260200160405190810160405280939291908181526020018383808284378201915050505050509192919290803590602001908201803590602001908080601f0160208091040260200160405190810160405280939291908181526020018383808284378201915050505050509192919290803560ff16906020019092919080359060200190929190505050610ac4565b60405180826000191660001916815260200191505060405180910390f35b34801561035757600080fd5b50610360610dd1565b005b34801561036e57600080fd5b50610391600480360381019080803560001916906020019092919050505061158f565b604051808215151515815260200191505060405180910390f35b3480156103b757600080fd5b506103d86004803603810190808035151590602001909291905050506115d4565b60405180886000191660001916815260200180602001806020018760ff1660ff16815260200186815260200185600481111561041057fe5b60ff1681526020018460000b60000b8152602001838103835289818151815260200191508051906020019080838360005b8381101561045c578082015181840152602081019050610441565b50505050905090810190601f1680156104895780820380516001836020036101000a031916815260200191505b50838103825288818151815260200191508051906020019080838360005b838110156104c25780820151818401526020810190506104a7565b50505050905090810190601f1680156104ef5780820380516001836020036101000a031916815260200191505b50995050505050505050505060405180910390f35b34801561051057600080fd5b50610519611654565b6040518080602001828103825283818151815260200191508051906020019060200280838360005b8381101561055c578082015181840152602081019050610541565b505050509050019250505060405180910390f35b34801561057c57600080fd5b5061059f600480360381019080803560001916906020019092919050505061171c565b005b3480156105ad57600080fd5b506105e2600480360381019080803573ffffffffffffffffffffffffffffffffffffffff169060200190929190505050611819565b005b3480156105f057600080fd5b50610613600480360381019080803560001916906020019092919050505061196e565b005b34801561062157600080fd5b506106446004803603810190808035600019169060200190929190505050611a6b565b60405180886000191660001916815260200180602001806020018760ff1660ff16815260200186815260200185600481111561067c57fe5b60ff1681526020018460000b60000b8152602001838103835289818151815260200191508051906020019080838360005b838110156106c85780820151818401526020810190506106ad565b50505050905090810190601f1680156106f55780820380516001836020036101000a031916815260200191505b50838103825288818151815260200191508051906020019080838360005b8381101561072e578082015181840152602081019050610713565b50505050905090810190601f16801561075b5780820380516001836020036101000a031916815260200191505b50995050505050505050505060405180910390f35b60006001905090565b600030905090565b6060600080606060008060009450600093505b60018054905084101561080357600060048111156107ae57fe5b6001858154811015156107bd57fe5b906000526020600020906006020160050160009054906101000a900460ff1660048111156107e757fe5b14156107f65784806001019550505b8380600101945050610794565b846040519080825280602002602001820160405280156108325781602001602082028038833980820191505090505b5092506000851115610901576000915060018054905090505b6000811115610900576000600481111561086157fe5b600180830381548110151561087257fe5b906000526020600020906006020160050160009054906101000a900460ff16600481111561089c57fe5b14156108f25760018082038154811015156108b357fe5b90600052602060002090600602016000015483838060010194508151811015156108d957fe5b9060200190602002019060001916908160001916815250505b80806001900391505061084b565b5b829550505050505090565b6000806000809054906101000a900473ffffffffffffffffffffffffffffffffffffffff1673ffffffffffffffffffffffffffffffffffffffff163373ffffffffffffffffffffffffffffffffffffffff1614151561096a57600080fd5b6109738561158f565b151561097e57600080fd5b61098785611cb5565b915060018281548110151561099857fe5b90600052602060002090600602019050600160048111156109b557fe5b8160050160009054906101000a900460ff1660048111156109d257fe5b1415156109de57600080fd5b600360048111156109eb57fe5b8460048111156109f757fe5b1415610a335760008360000b12158015610a2757508260ff168160030160009054906101000a900460ff1660ff16115b1515610a3257600080fd5b5b838160050160006101000a81548160ff02191690836004811115610a5357fe5b021790555060036004811115610a6557fe5b846004811115610a7157fe5b1415610a9857828160050160016101000a81548160ff021916908360000b60ff1602179055505b5050505050565b6000809054906101000a900473ffffffffffffffffffffffffffffffffffffffff1681565b60008060008060009054906101000a900473ffffffffffffffffffffffffffffffffffffffff1673ffffffffffffffffffffffffffffffffffffffff163373ffffffffffffffffffffffffffffffffffffffff16141515610b2457600080fd5b8685856040516020018084805190602001908083835b602083101515610b5f5780518252602082019150602081019050602083039250610b3a565b6001836020036101000a0380198251168184511680821785525050505050509050018360ff1660ff167f010000000000000000000000000000000000000000000000000000000000000002815260010182815260200193505050506040516020818303038152906040526040518082805190602001908083835b602083101515610bfe5780518252602082019150602081019050602083039250610bd9565b6001836020036101000a03801982511681845116808217855250505050505090500191505060405180910390209150610c368261158f565b151515610c4257600080fd5b60018060e060405190810160405280856000191681526020018a81526020018981526020018860ff16815260200187815260200160006004811115610c8357fe5b81526020017fffffffffffffffffffffffffffffffffffffffffffffffffffffffffffffffff60000b81525090806001815401808255809150509060018203906000526020600020906006020160009091929091909150600082015181600001906000191690556020820151816001019080519060200190610d0692919061201c565b506040820151816002019080519060200190610d2392919061201c565b5060608201518160030160006101000a81548160ff021916908360ff1602179055506080820151816004015560a08201518160050160006101000a81548160ff02191690836004811115610d7357fe5b021790555060c08201518160050160016101000a81548160ff021916908360000b60ff160217905550505003905060018101600260008460001916600019168152602001908152602001600020819055508192505050949350505050565b610eac6040805190810160405280601781526020017f506163717569616f2076732e204d6179576561746865720000000000000000008152506040805190810160405280601381526020017f506163717569616f7c4d617977656174686572000000000000000000000000008152506002610ea7610100604051908101604052806107e261ffff168152602001600860ff168152602001600d60ff168152602001600060ff168152602001600060ff168152602001600060ff168152602001600060ff168152602001600060ff16815250611cdd565b610ac4565b50610f886040805190810160405280601781526020017f4d6163717569616f2076732e20506179776561746865720000000000000000008152506040805190810160405280601381526020017f4d6163717569616f7c50617977656174686572000000000000000000000000008152506002610f83610100604051908101604052806107e261ffff168152602001600860ff168152602001600f60ff168152602001600060ff168152602001600060ff168152602001600060ff168152602001600060ff168152602001600060ff16815250611cdd565b610ac4565b506110646040805190810160405280601881526020017f506163776561746865722076732e204d616361727468757200000000000000008152506040805190810160405280601481526020017f506163776561746865727c4d6163617274687572000000000000000000000000815250600261105f610100604051908101604052806107e261ffff168152602001600960ff168152602001600360ff168152602001600060ff168152602001600060ff168152602001600060ff168152602001600060ff168152602001600060ff16815250611cdd565b610ac4565b506111406040805190810160405280601481526020017f4d61636172746875722076732e205472756d616e0000000000000000000000008152506040805190810160405280601081526020017f4d61636172746875727c5472756d616e00000000000000000000000000000000815250600261113b610100604051908101604052806107e261ffff168152602001600960ff168152602001600360ff168152602001600060ff168152602001600060ff168152602001600060ff168152602001600060ff168152602001600060ff16815250611cdd565b610ac4565b5061121c6040805190810160405280601481526020017f4d6163617175652076732e2050726567756e746f0000000000000000000000008152506040805190810160405280601081526020017f4d6163617175657c50726567756e746f000000000000000000000000000000008152506002611217610100604051908101604052806107e261ffff168152602001600960ff168152602001601560ff168152602001600060ff168152602001600060ff168152602001600060ff168152602001600060ff168152602001600060ff16815250611cdd565b610ac4565b506112f86040805190810160405280601781526020017f46617273776f7274682076732e205765726e7374726f6d0000000000000000008152506040805190810160405280601381526020017f46617273776f7274687c5765726e7374726f6d0000000000000000000000000081525060026112f3610100604051908101604052806107e261ffff168152602001600960ff168152602001601d60ff168152602001600060ff168152602001600060ff168152602001600060ff168152602001600060ff168152602001600060ff16815250611cdd565b610ac4565b506113d46040805190810160405280601581526020017f466f7274696e627261732076732e2048616d6c657400000000000000000000008152506040805190810160405280601181526020017f466f7274696e627261737c48616d6c657400000000000000000000000000000081525060026113cf610100604051908101604052806107e261ffff168152602001600a60ff168152602001600a60ff168152602001600060ff168152602001600060ff168152602001600060ff168152602001600060ff168152602001600060ff16815250611cdd565b610ac4565b506114b06040805190810160405280601581526020017f466f6f6c69636c652076732e2050726574656e646f00000000000000000000008152506040805190810160405280601181526020017f466f6f6c69636c657c50726574656e646f00000000000000000000000000000081525060026114ab610100604051908101604052806107e261ffff168152602001600b60ff168152602001600b60ff168152602001600060ff168152602001600060ff168152602001600060ff168152602001600060ff168152602001600060ff16815250611cdd565b610ac4565b5061158c6040805190810160405280601581526020017f506172746869616e2076732e20536379746869616e00000000000000000000008152506040805190810160405280601181526020017f506172746869616e7c536379746869616e0000000000000000000000000000008152506002611587610100604051908101604052806107e261ffff168152602001600b60ff168152602001600c60ff168152602001600060ff168152602001600060ff168152602001600060ff168152602001600060ff168152602001600060ff16815250611cdd565b610ac4565b50565b600080600060018054905014156115a957600091506115ce565b6002600084600019166000191681526020019081526020016000205490506000811191505b50919050565b6000606080600080600080600060606000600102915089156115ff576115f8610781565b905061160a565b611607611654565b90505b6000815111156116305780600081518110151561162357fe5b9060200190602002015191505b61163982611a6b565b98509850985098509850985098505050919395979092949650565b60608060008060018054905060405190808252806020026020018201604052801561168e5781602001602082028038833980820191505090505b50925060006001805490501115611713576000915060018054905090505b60008111156117125760018082038154811015156116c657fe5b90600052602060002090600602016000015483838060010194508151811015156116ec57fe5b9060200190602002019060001916908160001916815250508080600190039150506116ac565b5b82935050505090565b6000806000809054906101000a900473ffffffffffffffffffffffffffffffffffffffff1673ffffffffffffffffffffffffffffffffffffffff163373ffffffffffffffffffffffffffffffffffffffff1614151561177a57600080fd5b6117838361158f565b151561178e57600080fd5b61179783611cb5565b91506001828154811015156117a857fe5b90600052602060002090600602019050600060048111156117c557fe5b8160050160009054906101000a900460ff1660048111156117e257fe5b1415156117ee57600080fd5b60048160050160006101000a81548160ff0219169083600481111561180f57fe5b0217905550505050565b6000809054906101000a900473ffffffffffffffffffffffffffffffffffffffff1673ffffffffffffffffffffffffffffffffffffffff163373ffffffffffffffffffffffffffffffffffffffff1614151561187457600080fd5b600073ffffffffffffffffffffffffffffffffffffffff168173ffffffffffffffffffffffffffffffffffffffff16141515156118b057600080fd5b8073ffffffffffffffffffffffffffffffffffffffff166000809054906101000a900473ffffffffffffffffffffffffffffffffffffffff1673ffffffffffffffffffffffffffffffffffffffff167f8be0079c531659141344cd1fd0a4f28419497f9722a3daafe3b4186f6b6457e060405160405180910390a3806000806101000a81548173ffffffffffffffffffffffffffffffffffffffff021916908373ffffffffffffffffffffffffffffffffffffffff16021790555050565b6000806000809054906101000a900473ffffffffffffffffffffffffffffffffffffffff1673ffffffffffffffffffffffffffffffffffffffff163373ffffffffffffffffffffffffffffffffffffffff161415156119cc57600080fd5b6119d58361158f565b15156119e057600080fd5b6119e983611cb5565b91506001828154811015156119fa57fe5b9060005260206000209060060201905060006004811115611a1757fe5b8160050160009054906101000a900460ff166004811115611a3457fe5b141515611a4057600080fd5b60018160050160006101000a81548160ff02191690836004811115611a6157fe5b0217905550505050565b60006060806000806000806000611a818961158f565b15611c40576001611a918a611cb5565b815481101515611a9d57fe5b90600052602060002090600602019050806000015481600101826002018360030160009054906101000a900460ff1684600401548560050160009054906101000a900460ff168660050160019054906101000a900460000b858054600181600116156101000203166002900480601f016020809104026020016040519081016040528092919081815260200182805460018160011615610100020316600290048015611b8a5780601f10611b5f57610100808354040283529160200191611b8a565b820191906000526020600020905b815481529060010190602001808311611b6d57829003601f168201915b50505050509550848054600181600116156101000203166002900480601f016020809104026020016040519081016040528092919081815260200182805460018160011615610100020316600290048015611c265780601f10611bfb57610100808354040283529160200191611c26565b820191906000526020600020905b815481529060010190602001808311611c0957829003601f168201915b505050505094509750975097509750975097509750611ca9565b8860008060007fffffffffffffffffffffffffffffffffffffffffffffffffffffffffffffffff60206040519081016040528060008152509392919060206040519081016040528060008152509392919083935082925080905097509750975097509750975097505b50919395979092949650565b6000600160026000846000191660001916815260200190815260200160002054039050919050565b600080611ce861209c565b6107b291505b836000015161ffff168261ffff161015611d3557611d0b82611f9b565b15611d1e576301e2850083019250611d28565b6301e13380830192505b8180600101925050611cee565b601f816000600c81101515611d4657fe5b602002019060ff16908160ff1681525050611d648460000151611f9b565b15611d9057601d816001600c81101515611d7a57fe5b602002019060ff16908160ff1681525050611db3565b601c816001600c81101515611da157fe5b602002019060ff16908160ff16815250505b601f816002600c81101515611dc457fe5b602002019060ff16908160ff1681525050601e816003600c81101515611de657fe5b602002019060ff16908160ff1681525050601f816004600c81101515611e0857fe5b602002019060ff16908160ff1681525050601e816005600c81101515611e2a57fe5b602002019060ff16908160ff1681525050601f816006600c81101515611e4c57fe5b602002019060ff16908160ff1681525050601f816007600c81101515611e6e57fe5b602002019060ff16908160ff1681525050601e816008600c81101515611e9057fe5b602002019060ff16908160ff1681525050601f816009600c81101515611eb257fe5b602002019060ff16908160ff1681525050601e81600a600c81101515611ed457fe5b602002019060ff16908160ff1681525050601f81600b600c81101515611ef657fe5b602002019060ff16908160ff1681525050600191505b836020015160ff168261ffff161015611f5257806001830361ffff16600c81101515611f3457fe5b602002015160ff166201518002830192508180600101925050611f0c565b600184604001510360ff16620151800283019250836060015160ff16610e100283019250836080015160ff16603c02830192508360a0015160ff16830192508292505050919050565b60008060048361ffff16811515611fae57fe5b0661ffff16141515611fc35760009050612017565b600060648361ffff16811515611fd557fe5b0661ffff16141515611fea5760019050612017565b60006101908361ffff16811515611ffd57fe5b0661ffff161415156120125760009050612017565b600190505b919050565b828054600181600116156101000203166002900490600052602060002090601f016020900481019282601f1061205d57805160ff191683800117855561208b565b8280016001018555821561208b579182015b8281111561208a57825182559160200191906001019061206f565b5b50905061209891906120c0565b5090565b61018060405190810160405280600c90602082028038833980820191505090505090565b6120e291905b808211156120de5760008160009055506001016120c6565b5090565b905600a165627a7a7230582058a5cfacb08abb9d9a1195d8a7253758dfab7a5a0af74bed64fce32e7c64a9600029",
  "source": "pragma solidity ^0.4.17;\n\nimport \"./Ownable.sol\";\nimport \"./DateLib.sol\";\nimport \"./OracleInterface.sol\";\n\n/*\nTEST: \n- testConnection \n- getAddress\n- matchExists(0) \n- matchExists(1)\n- declareOutcome(0, 2, 1)\n- getPendingMatches()\n- getAllMatches()\n- getMatch(0)\n- getMostRecentMatch(true)\n- addTestData()\n- matchExists(0) \n- matchExists(1)\n- declareOutcome(0, 2, 1)\n- getPendingMatches()               \n- getAllMatches()                   \n- getMatch(0)\n- getMostRecentMatch(true)\n- getMostRecentMatch(false) \n- getMatch(0x...)                   \n- declareOutcome(0x..., 2)              \n- getMostRecentMatch(true)\n- getMostRecentMatch(false)\n- getMatch(0x...)              \n- add duplicate match      \n*/\n\n/// @title BoxingOracle\n/// @author John R. Kosinski\n/// @notice Collects and provides information on boxing matches and their outcomes \ncontract BoxingOracle is Ownable, OracleInterface {\n    Match[] matches; \n    mapping(bytes32 => uint) matchIdToIndex; \n\n    using DateLib for DateLib.DateTime;\n\n    //defines a match along with its outcome\n    struct Match {\n        bytes32 id;\n        string name;\n        string participants;\n        uint8 participantCount;\n        uint date; \n        MatchOutcome outcome;\n        int8 winner;\n    }\n    \n\n    /// @notice returns the array index of the match with the given id \n    /// @dev if the match id is invalid, then the return value will be incorrect and may cause error; you must call matchExists(_matchId) first!\n    /// @param _matchId the match id to get\n    /// @return an array index \n    function _getMatchIndex(bytes32 _matchId) private view returns (uint) {\n        return matchIdToIndex[_matchId]-1; \n    }\n\n\n    /// @notice determines whether a match exists with the given id \n    /// @param _matchId the match id to test\n    /// @return true if match exists and id is valid\n    function matchExists(bytes32 _matchId) public view returns (bool) {\n        if (matches.length == 0)\n            return false;\n        uint index = matchIdToIndex[_matchId]; \n        return (index > 0); \n    }\n\n    /// @notice puts a new pending match into the blockchain \n    /// @param _name descriptive name for the match (e.g. Pac vs. Mayweather 2016)\n    /// @param _participants |-delimited string of participants names (e.g. \"Manny Pac|Floyd May\")\n    /// @param _participantCount number of participants \n    /// @param _date date set for the match \n    /// @return the unique id of the newly created match \n    function addMatch(string _name, string _participants, uint8 _participantCount, uint _date) onlyOwner public returns (bytes32) {\n\n        //hash the crucial info to get a unique id \n        bytes32 id = keccak256(abi.encodePacked(_name, _participantCount, _date)); \n\n        //require that the match be unique (not already added) \n        require(!matchExists(id));\n        \n        //add the match \n        uint newIndex = matches.push(Match(id, _name, _participants, _participantCount, _date, MatchOutcome.Pending, -1))-1; \n        matchIdToIndex[id] = newIndex+1;\n        \n        //return the unique id of the new match\n        return id;\n    }\n\n    /// @notice sets the match outcome to 'underway', only if the outcome is currently pending\n    /// @param _matchId unique match id\n    function setMatchUnderway(bytes32 _matchId) external onlyOwner {\n        require(matchExists(_matchId)); \n        uint index = _getMatchIndex(_matchId);\n        Match storage theMatch = matches[index]; \n        require(theMatch.outcome == MatchOutcome.Pending); \n        theMatch.outcome = MatchOutcome.Underway;\n    }\n\n    /// @notice sets the match outcome to 'cancelled', only if the outcome is currently pending\n    /// @param _matchId unique match id\n    function setMatchCancelled(bytes32 _matchId) external onlyOwner {\n        require(matchExists(_matchId)); \n        uint index = _getMatchIndex(_matchId);\n        Match storage theMatch = matches[index]; \n        require(theMatch.outcome == MatchOutcome.Pending); \n        theMatch.outcome = MatchOutcome.Cancelled;\n    }\n\n    /// @notice sets the outcome of a predefined match, permanently on the blockchain\n    /// @param _matchId unique id of the match to modify\n    /// @param _outcome outcome of the match \n    /// @param _winner zero-based index of the participant who won (if there is a winner)\n    function declareOutcome(bytes32 _matchId, MatchOutcome _outcome, int8 _winner) onlyOwner external {\n\n        //require that it exists\n        require(matchExists(_matchId)); \n\n        //get the match \n        uint index = _getMatchIndex(_matchId);\n        Match storage theMatch = matches[index]; \n\n        //make sure that match is pending (outcome not already declared)\n        require(theMatch.outcome == MatchOutcome.Underway); \n\n        if (_outcome == MatchOutcome.Decided) \n            require(_winner >= 0 && theMatch.participantCount > uint8(_winner)); \n\n        //set the outcome \n        theMatch.outcome = _outcome;\n        \n        //set the winner (if there is one)\n        if (_outcome == MatchOutcome.Decided) \n            theMatch.winner = _winner;\n    }\n\n    /// @notice gets the unique ids of all pending matches, in reverse chronological order\n    /// @return an array of unique match ids\n    function getPendingMatches() public view returns (bytes32[]) {\n        uint count = 0; \n\n        //get count of pending matches \n        for (uint i = 0; i < matches.length; i++) {\n            if (matches[i].outcome == MatchOutcome.Pending) \n                count++; \n        }\n\n        //collect up all the pending matches\n        bytes32[] memory output = new bytes32[](count); \n\n        if (count > 0) {\n            uint index = 0;\n            for (uint n = matches.length; n > 0; n--) {\n                if (matches[n-1].outcome == MatchOutcome.Pending) \n                    output[index++] = matches[n-1].id;\n            }\n        } \n\n        return output; \n    }\n\n    /// @notice gets the unique ids of matches, pending and decided, in reverse chronological order\n    /// @return an array of unique match ids\n    function getAllMatches() public view returns (bytes32[]) {\n        bytes32[] memory output = new bytes32[](matches.length); \n\n        //get all ids \n        if (matches.length > 0) {\n            uint index = 0;\n            for (uint n = matches.length; n > 0; n--) {\n                output[index++] = matches[n-1].id;\n            }\n        }\n        \n        return output; \n    }\n\n    /// @notice gets the specified match \n    /// @param _matchId the unique id of the desired match \n    /// @return match data of the specified match \n    function getMatch(bytes32 _matchId) public view returns (\n        bytes32 id,\n        string name, \n        string participants,\n        uint8 participantCount,\n        uint date, \n        MatchOutcome outcome, \n        int8 winner) {\n        \n        //get the match \n        if (matchExists(_matchId)) {\n            Match storage theMatch = matches[_getMatchIndex(_matchId)];\n            return (theMatch.id, theMatch.name, theMatch.participants, theMatch.participantCount, theMatch.date, theMatch.outcome, theMatch.winner); \n        }\n        else {\n            return (_matchId, \"\", \"\", 0, 0, MatchOutcome.Pending, -1); \n        }\n    }\n\n    /// @notice gets the most recent match or pending match \n    /// @param _pending if true, will return only the most recent pending match; otherwise, returns the most recent match either pending or completed\n    /// @return match data \n    function getMostRecentMatch(bool _pending) public view returns (\n        bytes32 id,\n        string name, \n        string participants,\n        uint8 participantCount,\n        uint date, \n        MatchOutcome outcome, \n        int8 winner) {\n\n        bytes32 matchId = 0; \n        bytes32[] memory ids;\n\n        if (_pending) {\n            ids = getPendingMatches(); \n        } else {\n            ids = getAllMatches();\n        }\n        if (ids.length > 0) {\n            matchId = ids[0]; \n        }\n        \n        //by default, return a null match\n        return getMatch(matchId); \n    }\n\n    /// @notice can be used by a client contract to ensure that they've connected to this contract interface successfully\n    /// @return true, unconditionally \n    function testConnection() public pure returns (bool) {\n        return true; \n    }\n\n    /// @notice gets the address of this contract \n    /// @return address \n    function getAddress() public view returns (address) {\n        return this;\n    }\n\n    /// @notice for testing \n    function addTestData() public {\n        addMatch(\"Pacquiao vs. MayWeather\", \"Pacquiao|Mayweather\", 2, DateLib.DateTime(2018, 8, 13, 0, 0, 0, 0, 0).toUnixTimestamp());\n        addMatch(\"Macquiao vs. Payweather\", \"Macquiao|Payweather\", 2, DateLib.DateTime(2018, 8, 15, 0, 0, 0, 0, 0).toUnixTimestamp());\n        addMatch(\"Pacweather vs. Macarthur\", \"Pacweather|Macarthur\", 2, DateLib.DateTime(2018, 9, 3, 0, 0, 0, 0, 0).toUnixTimestamp());\n        addMatch(\"Macarthur vs. Truman\", \"Macarthur|Truman\", 2, DateLib.DateTime(2018, 9, 3, 0, 0, 0, 0, 0).toUnixTimestamp());\n        addMatch(\"Macaque vs. Pregunto\", \"Macaque|Pregunto\", 2, DateLib.DateTime(2018, 9, 21, 0, 0, 0, 0, 0).toUnixTimestamp());\n        addMatch(\"Farsworth vs. Wernstrom\", \"Farsworth|Wernstrom\", 2, DateLib.DateTime(2018, 9, 29, 0, 0, 0, 0, 0).toUnixTimestamp());\n        addMatch(\"Fortinbras vs. Hamlet\", \"Fortinbras|Hamlet\", 2, DateLib.DateTime(2018, 10, 10, 0, 0, 0, 0, 0).toUnixTimestamp());\n        addMatch(\"Foolicle vs. Pretendo\", \"Foolicle|Pretendo\", 2, DateLib.DateTime(2018, 11, 11, 0, 0, 0, 0, 0).toUnixTimestamp());\n        addMatch(\"Parthian vs. Scythian\", \"Parthian|Scythian\", 2, DateLib.DateTime(2018, 11, 12, 0, 0, 0, 0, 0).toUnixTimestamp());\n    }\n}",
  "sourcePath": "/media/acer/D/clients/self/blockchain/ethereum/solidity/crypto-champ/crypto-champ/boxing-oracle/contracts/BoxingOracle.sol",
  "compiler": {
    "name": "solc",
    "version": "0.4.24+commit.e67f0147.Emscripten.clang"
  },
  "schemaVersion": "2.0.1",
  "updatedAt": "2018-12-27T16:02:10.525Z"
}