{
  "contractName": "BetPayout",
  "abi": [
    {
      "constant": true,
      "inputs": [],
      "name": "testOracleConnection",
      "outputs": [
        {
          "name": "",
          "type": "bool"
        }
      ],
      "payable": false,
      "stateMutability": "view",
      "type": "function"
    },
    {
      "constant": true,
      "inputs": [],
      "name": "getBettableMatches",
      "outputs": [
        {
          "name": "",
          "type": "bytes32[]"
        }
      ],
      "payable": false,
      "stateMutability": "view",
      "type": "function"
    },
    {
      "constant": false,
      "inputs": [
        {
          "name": "_matchId",
          "type": "bytes32"
        },
        {
          "name": "_amount",
          "type": "uint256"
        },
        {
          "name": "_outcome",
          "type": "uint8"
        }
      ],
      "name": "placeBet",
      "outputs": [],
      "payable": true,
      "stateMutability": "payable",
      "type": "function"
    },
    {
      "constant": false,
      "inputs": [
        {
          "name": "_oracleAddress",
          "type": "address"
        }
      ],
      "name": "setOracleAddress",
      "outputs": [
        {
          "name": "",
          "type": "bool"
        }
      ],
      "payable": false,
      "stateMutability": "nonpayable",
      "type": "function"
    },
    {
      "constant": true,
      "inputs": [],
      "name": "owner",
      "outputs": [
        {
          "name": "",
          "type": "address"
        }
      ],
      "payable": false,
      "stateMutability": "view",
      "type": "function"
    },
    {
      "constant": true,
      "inputs": [],
      "name": "getOracleAddress",
      "outputs": [
        {
          "name": "",
          "type": "address"
        }
      ],
      "payable": false,
      "stateMutability": "view",
      "type": "function"
    },
    {
      "constant": true,
      "inputs": [],
      "name": "getMostRecentMatch",
      "outputs": [
        {
          "name": "id",
          "type": "bytes32"
        },
        {
          "name": "name",
          "type": "string"
        },
        {
          "name": "fighter1",
          "type": "string"
        },
        {
          "name": "fighter2",
          "type": "string"
        },
        {
          "name": "date",
          "type": "uint256"
        },
        {
          "name": "outcome",
          "type": "uint8"
        }
      ],
      "payable": false,
      "stateMutability": "view",
      "type": "function"
    },
    {
      "constant": false,
      "inputs": [
        {
          "name": "newOwner",
          "type": "address"
        }
      ],
      "name": "transferOwnership",
      "outputs": [],
      "payable": false,
      "stateMutability": "nonpayable",
      "type": "function"
    },
    {
      "constant": true,
      "inputs": [
        {
          "name": "_matchId",
          "type": "bytes32"
        }
      ],
      "name": "getMatch",
      "outputs": [
        {
          "name": "id",
          "type": "bytes32"
        },
        {
          "name": "name",
          "type": "string"
        },
        {
          "name": "fighter1",
          "type": "string"
        },
        {
          "name": "fighter2",
          "type": "string"
        },
        {
          "name": "date",
          "type": "uint256"
        },
        {
          "name": "outcome",
          "type": "uint8"
        }
      ],
      "payable": false,
      "stateMutability": "view",
      "type": "function"
    },
    {
      "anonymous": false,
      "inputs": [
        {
          "indexed": true,
          "name": "previousOwner",
          "type": "address"
        },
        {
          "indexed": true,
          "name": "newOwner",
          "type": "address"
        }
      ],
      "name": "OwnershipTransferred",
      "type": "event"
    },
    {
      "constant": true,
      "inputs": [],
      "name": "math1",
      "outputs": [
        {
          "name": "",
          "type": "uint256"
        }
      ],
      "payable": false,
      "stateMutability": "pure",
      "type": "function"
    },
    {
      "constant": false,
      "inputs": [
        {
          "name": "_matchId",
          "type": "bytes32"
        }
      ],
      "name": "checkOutcome",
      "outputs": [
        {
          "name": "",
          "type": "uint8"
        }
      ],
      "payable": false,
      "stateMutability": "nonpayable",
      "type": "function"
    }
  ],
  "bytecode": "0x608060405273345ca3e014aaf5dca488057592ee47305d9b3e10600160006101000a81548173ffffffffffffffffffffffffffffffffffffffff021916908373ffffffffffffffffffffffffffffffffffffffff160217905550600160009054906101000a900473ffffffffffffffffffffffffffffffffffffffff16600260006101000a81548173ffffffffffffffffffffffffffffffffffffffff021916908373ffffffffffffffffffffffffffffffffffffffff16021790555064e8d4a510006003556001600755620f4240600855336000806101000a81548173ffffffffffffffffffffffffffffffffffffffff021916908373ffffffffffffffffffffffffffffffffffffffff160217905550611a91806101206000396000f3006080604052600436106100af576000357c0100000000000000000000000000000000000000000000000000000000900463ffffffff1680630372b015146100b45780632ce3707e146100df5780633397741b1461010e5780633fbafb5e1461017a5780634c69c00f146101b557806352311c14146102105780638da5cb5b14610263578063b18b78dd146102ba578063ced1b70814610311578063f2fde38b146104a4578063fcc6077d146104e7575b600080fd5b3480156100c057600080fd5b506100c9610694565b6040518082815260200191505060405180910390f35b3480156100eb57600080fd5b506100f46106dc565b604051808215151515815260200191505060405180910390f35b34801561011a57600080fd5b506101236107a4565b6040518080602001828103825283818151815260200191508051906020019060200280838360005b8381101561016657808201518184015260208101905061014b565b505050509050019250505060405180910390f35b6101b3600480360381019080803560001916906020019092919080359060200190929190803560ff1690602001909291905050506108c2565b005b3480156101c157600080fd5b506101f6600480360381019080803573ffffffffffffffffffffffffffffffffffffffff169060200190929190505050610b53565b604051808215151515815260200191505060405180910390f35b34801561021c57600080fd5b5061023f6004803603810190808035600019169060200190929190505050610d1c565b6040518082600381111561024f57fe5b60ff16815260200191505060405180910390f35b34801561026f57600080fd5b50610278610f84565b604051808273ffffffffffffffffffffffffffffffffffffffff1673ffffffffffffffffffffffffffffffffffffffff16815260200191505060405180910390f35b3480156102c657600080fd5b506102cf610fa9565b604051808273ffffffffffffffffffffffffffffffffffffffff1673ffffffffffffffffffffffffffffffffffffffff16815260200191505060405180910390f35b34801561031d57600080fd5b50610326610fd3565b60405180876000191660001916815260200180602001806020018060200186815260200185600381111561035657fe5b60ff168152602001848103845289818151815260200191508051906020019080838360005b8381101561039657808201518184015260208101905061037b565b50505050905090810190601f1680156103c35780820380516001836020036101000a031916815260200191505b50848103835288818151815260200191508051906020019080838360005b838110156103fc5780820151818401526020810190506103e1565b50505050905090810190601f1680156104295780820380516001836020036101000a031916815260200191505b50848103825287818151815260200191508051906020019080838360005b83811015610462578082015181840152602081019050610447565b50505050905090810190601f16801561048f5780820380516001836020036101000a031916815260200191505b50995050505050505050505060405180910390f35b3480156104b057600080fd5b506104e5600480360381019080803573ffffffffffffffffffffffffffffffffffffffff1690602001909291905050506111d7565b005b3480156104f357600080fd5b50610516600480360381019080803560001916906020019092919050505061132c565b60405180876000191660001916815260200180602001806020018060200186815260200185600381111561054657fe5b60ff168152602001848103845289818151815260200191508051906020019080838360005b8381101561058657808201518184015260208101905061056b565b50505050905090810190601f1680156105b35780820380516001836020036101000a031916815260200191505b50848103835288818151815260200191508051906020019080838360005b838110156105ec5780820151818401526020810190506105d1565b50505050905090810190601f1680156106195780820380516001836020036101000a031916815260200191505b50848103825287818151815260200191508051906020019080838360005b83811015610652578082015181840152602081019050610637565b50505050905090810190601f16801561067f5780820380516001836020036101000a031916815260200191505b50995050505050505050505060405180910390f35b600080600066039696f3392000915066038d7ea4c6800090506106d5826106c7620f42408461153490919063ffffffff16565b61156c90919063ffffffff16565b9250505090565b6000600260009054906101000a900473ffffffffffffffffffffffffffffffffffffffff1673ffffffffffffffffffffffffffffffffffffffff16633412a15c6040518163ffffffff167c0100000000000000000000000000000000000000000000000000000000028152600401602060405180830381600087803b15801561076457600080fd5b505af1158015610778573d6000803e3d6000fd5b505050506040513d602081101561078e57600080fd5b8101908080519060200190929190505050905090565b6060600260009054906101000a900473ffffffffffffffffffffffffffffffffffffffff1673ffffffffffffffffffffffffffffffffffffffff16635f29d4b16040518163ffffffff167c0100000000000000000000000000000000000000000000000000000000028152600401600060405180830381600087803b15801561082c57600080fd5b505af1158015610840573d6000803e3d6000fd5b505050506040513d6000823e3d601f19601f82011682018060405250602081101561086a57600080fd5b81019080805164010000000081111561088257600080fd5b8281019050602081018481111561089857600080fd5b81518560208202830111640100000000821117156108b557600080fd5b5050929190505050905090565b600080600260009054906101000a900473ffffffffffffffffffffffffffffffffffffffff1673ffffffffffffffffffffffffffffffffffffffff1663a9345240866040518263ffffffff167c0100000000000000000000000000000000000000000000000000000000028152600401808260001916600019168152602001915050602060405180830381600087803b15801561095e57600080fd5b505af1158015610972573d6000803e3d6000fd5b505050506040513d602081101561098857600080fd5b810190808051906020019092919050505015156109a457600080fd5b6109ae3386611582565b1515156109ba57600080fd5b60056000866000191660001916815260200190815260200160002091506001826080604051908101604052803373ffffffffffffffffffffffffffffffffffffffff16815260200188600019168152602001878152602001866001811115610a1e57fe5b8152509080600181540180825580915050906001820390600052602060002090600402016000909192909190915060008201518160000160006101000a81548173ffffffffffffffffffffffffffffffffffffffff021916908373ffffffffffffffffffffffffffffffffffffffff160217905550602082015181600101906000191690556040820151816002015560608201518160030160006101000a81548160ff02191690836001811115610ad157fe5b021790555050505050600460003373ffffffffffffffffffffffffffffffffffffffff1673ffffffffffffffffffffffffffffffffffffffff1681526020019081526020016000209050808590806001815401808255809150509060018203906000526020600020016000909192909190915090600019169055505050505050565b60008060009054906101000a900473ffffffffffffffffffffffffffffffffffffffff1673ffffffffffffffffffffffffffffffffffffffff163373ffffffffffffffffffffffffffffffffffffffff16141515610bb057600080fd5b81600160006101000a81548173ffffffffffffffffffffffffffffffffffffffff021916908373ffffffffffffffffffffffffffffffffffffffff160217905550600160009054906101000a900473ffffffffffffffffffffffffffffffffffffffff16600260006101000a81548173ffffffffffffffffffffffffffffffffffffffff021916908373ffffffffffffffffffffffffffffffffffffffff160217905550600260009054906101000a900473ffffffffffffffffffffffffffffffffffffffff1673ffffffffffffffffffffffffffffffffffffffff16633412a15c6040518163ffffffff167c0100000000000000000000000000000000000000000000000000000000028152600401602060405180830381600087803b158015610cda57600080fd5b505af1158015610cee573d6000803e3d6000fd5b505050506040513d6020811015610d0457600080fd5b81019080805190602001909291905050509050919050565b600080600260009054906101000a900473ffffffffffffffffffffffffffffffffffffffff1673ffffffffffffffffffffffffffffffffffffffff1663fcc6077d846040518263ffffffff167c0100000000000000000000000000000000000000000000000000000000028152600401808260001916600019168152602001915050600060405180830381600087803b158015610db857600080fd5b505af1158015610dcc573d6000803e3d6000fd5b505050506040513d6000823e3d601f19601f8201168201806040525060c0811015610df657600080fd5b81019080805190602001909291908051640100000000811115610e1857600080fd5b82810190506020810184811115610e2e57600080fd5b8151856001820283011164010000000082111715610e4b57600080fd5b50509291906020018051640100000000811115610e6757600080fd5b82810190506020810184811115610e7d57600080fd5b8151856001820283011164010000000082111715610e9a57600080fd5b50509291906020018051640100000000811115610eb657600080fd5b82810190506020810184811115610ecc57600080fd5b8151856001820283011164010000000082111715610ee957600080fd5b5050929190602001805190602001909291908051906020019092919050505090919293945090919293509091925090915090508091505060006003811115610f2d57fe5b816003811115610f3957fe5b141515610f7b5760066000846000191660001916815260200190815260200160002060009054906101000a900460ff161515610f7a57610f798382611632565b5b5b80915050919050565b6000809054906101000a900473ffffffffffffffffffffffffffffffffffffffff1681565b6000600160009054906101000a900473ffffffffffffffffffffffffffffffffffffffff16905090565b60006060806060600080600260009054906101000a900473ffffffffffffffffffffffffffffffffffffffff1673ffffffffffffffffffffffffffffffffffffffff1663bb2b0f5860016040518263ffffffff167c01000000000000000000000000000000000000000000000000000000000281526004018082151515158152602001915050600060405180830381600087803b15801561107357600080fd5b505af1158015611087573d6000803e3d6000fd5b505050506040513d6000823e3d601f19601f8201168201806040525060c08110156110b157600080fd5b810190808051906020019092919080516401000000008111156110d357600080fd5b828101905060208101848111156110e957600080fd5b815185600182028301116401000000008211171561110657600080fd5b5050929190602001805164010000000081111561112257600080fd5b8281019050602081018481111561113857600080fd5b815185600182028301116401000000008211171561115557600080fd5b5050929190602001805164010000000081111561117157600080fd5b8281019050602081018481111561118757600080fd5b81518560018202830111640100000000821117156111a457600080fd5b50509291906020018051906020019092919080519060200190929190505050955095509550955095509550909192939495565b6000809054906101000a900473ffffffffffffffffffffffffffffffffffffffff1673ffffffffffffffffffffffffffffffffffffffff163373ffffffffffffffffffffffffffffffffffffffff1614151561123257600080fd5b600073ffffffffffffffffffffffffffffffffffffffff168173ffffffffffffffffffffffffffffffffffffffff161415151561126e57600080fd5b8073ffffffffffffffffffffffffffffffffffffffff166000809054906101000a900473ffffffffffffffffffffffffffffffffffffffff1673ffffffffffffffffffffffffffffffffffffffff167f8be0079c531659141344cd1fd0a4f28419497f9722a3daafe3b4186f6b6457e060405160405180910390a3806000806101000a81548173ffffffffffffffffffffffffffffffffffffffff021916908373ffffffffffffffffffffffffffffffffffffffff16021790555050565b60006060806060600080600260009054906101000a900473ffffffffffffffffffffffffffffffffffffffff1673ffffffffffffffffffffffffffffffffffffffff1663fcc6077d886040518263ffffffff167c0100000000000000000000000000000000000000000000000000000000028152600401808260001916600019168152602001915050600060405180830381600087803b1580156113cf57600080fd5b505af11580156113e3573d6000803e3d6000fd5b505050506040513d6000823e3d601f19601f8201168201806040525060c081101561140d57600080fd5b8101908080519060200190929190805164010000000081111561142f57600080fd5b8281019050602081018481111561144557600080fd5b815185600182028301116401000000008211171561146257600080fd5b5050929190602001805164010000000081111561147e57600080fd5b8281019050602081018481111561149457600080fd5b81518560018202830111640100000000821117156114b157600080fd5b505092919060200180516401000000008111156114cd57600080fd5b828101905060208101848111156114e357600080fd5b815185600182028301116401000000008211171561150057600080fd5b5050929190602001805190602001909291908051906020019092919050505095509550955095509550955091939550919395565b6000808314156115475760009050611566565b818302905081838281151561155857fe5b0414151561156257fe5b8090505b92915050565b6000818381151561157957fe5b04905092915050565b6000806000600460008673ffffffffffffffffffffffffffffffffffffffff1673ffffffffffffffffffffffffffffffffffffffff168152602001908152602001600020915060008280549050111561162557600090505b818054905081101561162457836000191682828154811015156115f957fe5b9060005260206000200154600019161415611617576001925061162a565b80806001019150506115da565b5b600092505b505092915050565b6000806000806060600080600560008a60001916600019168152602001908152602001600020965060009550600094506000935086805490506040519080825280602002602001820160405280156116995781602001602082028038833980820191505090505b509250600091505b86805490508210156117275786828154811015156116bb57fe5b906000526020600020906004020160020154905061170587838154811015156116e057fe5b906000526020600020906004020160030160009054906101000a900460ff16896118de565b1561171457808501945061171a565b80860195505b81806001019250506116a1565b8486019350600091505b8680549050821015611850576001600381111561174a57fe5b88600381111561175657fe5b141561179d57868281548110151561176a57fe5b906000526020600020906004020160020154838381518110151561178a57fe5b9060200190602002018181525050611843565b6117d387838154811015156117ae57fe5b906000526020600020906004020160030160009054906101000a900460ff16896118de565b1561182357611802858589858154811015156117eb57fe5b906000526020600020906004020160020154611964565b838381518110151561181057fe5b9060200190602002018181525050611842565b6000838381518110151561183357fe5b90602001906020020181815250505b5b8180600101925050611731565b600091505b82518210156118cb576118be878381548110151561186f57fe5b906000526020600020906004020160000160009054906101000a900473ffffffffffffffffffffffffffffffffffffffff1684848151811015156118af57fe5b90602001906020020151611999565b8180600101925050611855565b6118d36119e4565b505050505050505050565b60008060018111156118ec57fe5b8360018111156118f857fe5b14801561191b57506002600381111561190d57fe5b82600381111561191957fe5b145b8061195c575060018081111561192d57fe5b83600181111561193957fe5b14801561195b575060038081111561194d57fe5b82600381111561195957fe5b145b5b905092915050565b600080600085600854850281151561197857fe5b04915060085482860281151561198a57fe5b04905080925050509392505050565b8173ffffffffffffffffffffffffffffffffffffffff166108fc829081150290604051600060405180830381858888f193505050501580156119df573d6000803e3d6000fd5b505050565b6000809054906101000a900473ffffffffffffffffffffffffffffffffffffffff1673ffffffffffffffffffffffffffffffffffffffff166108fc3073ffffffffffffffffffffffffffffffffffffffff16319081150290604051600060405180830381858888f19350505050158015611a62573d6000803e3d6000fd5b505600a165627a7a72305820c88ec3b7a4e8a302a9909ca6d025be505add03c43f2c68f144b130f8f179881f0029",
  "source": "pragma solidity ^0.4.17;\n\nimport \"./SportsBets.sol\";\nimport \"./SafeMath.sol\";\nimport \"./OracleInterface.sol\";\n\n\ncontract BetPayout is SportsBets {\n\n    using SafeMath for uint; \n\n    //constants \n    uint houseCutPct = 1; \n    uint multFactor = 1000000;\n\n    function math1() public pure returns (uint) {\n        //return (10000000000000*1000000)/1010000000000000; \n        uint w = 1010000000000000; \n        uint b = 1000000000000000; \n        return (b.mul(1000000)).div(w);\n    }\n\n    function _payOutBet(address user, uint amount) private {\n        user.transfer(amount);\n    }\n\n    function _transferToHouse() private {\n        owner.transfer(address(this).balance);\n    }\n\n    function _isWinningBet(BettableOutcome betOutcome, OracleInterface.MatchOutcome actualOutcome) private pure returns (bool) {\n        return ((betOutcome == BettableOutcome.Fighter1 && actualOutcome == OracleInterface.MatchOutcome.Fighter1) || \n        (betOutcome == BettableOutcome.Fighter2 && actualOutcome == OracleInterface.MatchOutcome.Fighter2));\n    }\n\n    function _calculatePayout(uint _winningTotal, uint _totalPot, uint _betAmount) private view returns (uint) {\n        //calculate proportion\n        uint proportion = (_betAmount * multFactor)/_winningTotal; \n        \n        //calculate raw share\n        uint rawShare = (_totalPot*proportion)/multFactor;\n        \n        //take out house's cut \n        return rawShare;\n    }\n\n    function _payOutForMatch(bytes32 _matchId, OracleInterface.MatchOutcome outcome) private {\n    \n        Bet[] storage bets = matchToBets[_matchId]; \n        uint losingTotal = 0; \n        uint winningTotal = 0; \n        uint totalPot = 0;\n        uint[] memory payouts = new uint[](bets.length);\n        \n        //count winning bets & get total \n        uint n;\n        for (n = 0; n < bets.length; n++) {\n            uint amount = bets[n].amount;\n            if (_isWinningBet(bets[n].outcome, outcome)) {\n                winningTotal += amount;\n            } else {\n                losingTotal += amount;\n            }\n        }\n        totalPot = (losingTotal + winningTotal); \n\n        //calculate payouts per bet \n        for (n = 0; n < bets.length; n++) {\n            if (outcome == OracleInterface.MatchOutcome.Draw) {\n                payouts[n] = bets[n].amount;\n            } else {\n                if (_isWinningBet(bets[n].outcome, outcome)) {\n                    payouts[n] = _calculatePayout(winningTotal, totalPot, bets[n].amount); \n                } else {\n                    payouts[n] = 0;\n                }\n            }\n        }\n\n        //pay out the payouts \n        for (n = 0; n < payouts.length; n++) {\n            _payOutBet(bets[n].user, payouts[n]); \n        }\n\n        //transfer the remainder to the owner\n        _transferToHouse();\n    }\n    \n    \n    function checkOutcome(bytes32 _matchId) public returns (OracleInterface.MatchOutcome)  {\n        OracleInterface.MatchOutcome outcome; \n\n        (,,,,, outcome) = boxingOracle.getMatch(_matchId); \n\n        if (outcome != OracleInterface.MatchOutcome.Pending) {\n            if (!matchPaidOut[_matchId]) {\n                _payOutForMatch(_matchId, outcome);\n            }\n        } \n\n        return outcome; \n    }\n}",
  "sourcePath": "/media/acer/D/clients/self/blockchain/ethereum/solidity/crypto-champ/crypto-champ/sports-bets/contracts/BetPayout.sol",
  "compiler": {
    "name": "solc",
    "version": "0.4.24+commit.e67f0147.Emscripten.clang"
  },
  "schemaVersion": "2.0.1",
  "updatedAt": "2018-07-17T10:09:44.544Z"
}