{
  "contractName": "BetPayout",
  "abi": [
    {
      "constant": true,
      "inputs": [],
      "name": "getMatches",
      "outputs": [
        {
          "name": "",
          "type": "bytes32[]"
        }
      ],
      "payable": false,
      "stateMutability": "view",
      "type": "function"
    },
    {
      "constant": true,
      "inputs": [],
      "name": "testOracleConnection",
      "outputs": [
        {
          "name": "",
          "type": "bool"
        }
      ],
      "payable": false,
      "stateMutability": "view",
      "type": "function"
    },
    {
      "constant": true,
      "inputs": [],
      "name": "getBettableMatches",
      "outputs": [
        {
          "name": "",
          "type": "bytes32[]"
        }
      ],
      "payable": false,
      "stateMutability": "view",
      "type": "function"
    },
    {
      "constant": false,
      "inputs": [
        {
          "name": "_matchId",
          "type": "bytes32"
        },
        {
          "name": "_amount",
          "type": "uint256"
        },
        {
          "name": "_chosenWinner",
          "type": "uint8"
        }
      ],
      "name": "placeBet",
      "outputs": [],
      "payable": true,
      "stateMutability": "payable",
      "type": "function"
    },
    {
      "constant": false,
      "inputs": [
        {
          "name": "_oracleAddress",
          "type": "address"
        }
      ],
      "name": "setOracleAddress",
      "outputs": [
        {
          "name": "",
          "type": "bool"
        }
      ],
      "payable": false,
      "stateMutability": "nonpayable",
      "type": "function"
    },
    {
      "constant": true,
      "inputs": [],
      "name": "owner",
      "outputs": [
        {
          "name": "",
          "type": "address"
        }
      ],
      "payable": false,
      "stateMutability": "view",
      "type": "function"
    },
    {
      "constant": false,
      "inputs": [],
      "name": "addTestData",
      "outputs": [],
      "payable": false,
      "stateMutability": "nonpayable",
      "type": "function"
    },
    {
      "constant": true,
      "inputs": [],
      "name": "getOracleAddress",
      "outputs": [
        {
          "name": "",
          "type": "address"
        }
      ],
      "payable": false,
      "stateMutability": "view",
      "type": "function"
    },
    {
      "constant": true,
      "inputs": [],
      "name": "getMostRecentMatch",
      "outputs": [
        {
          "name": "id",
          "type": "bytes32"
        },
        {
          "name": "name",
          "type": "string"
        },
        {
          "name": "participantCount",
          "type": "uint256"
        },
        {
          "name": "date",
          "type": "uint256"
        },
        {
          "name": "outcome",
          "type": "uint8"
        },
        {
          "name": "winner",
          "type": "int8"
        }
      ],
      "payable": false,
      "stateMutability": "view",
      "type": "function"
    },
    {
      "constant": false,
      "inputs": [
        {
          "name": "newOwner",
          "type": "address"
        }
      ],
      "name": "transferOwnership",
      "outputs": [],
      "payable": false,
      "stateMutability": "nonpayable",
      "type": "function"
    },
    {
      "constant": true,
      "inputs": [
        {
          "name": "_matchId",
          "type": "bytes32"
        }
      ],
      "name": "getMatch",
      "outputs": [
        {
          "name": "id",
          "type": "bytes32"
        },
        {
          "name": "name",
          "type": "string"
        },
        {
          "name": "participantCount",
          "type": "uint256"
        },
        {
          "name": "date",
          "type": "uint256"
        },
        {
          "name": "outcome",
          "type": "uint8"
        },
        {
          "name": "winner",
          "type": "int8"
        }
      ],
      "payable": false,
      "stateMutability": "view",
      "type": "function"
    },
    {
      "anonymous": false,
      "inputs": [
        {
          "indexed": true,
          "name": "previousOwner",
          "type": "address"
        },
        {
          "indexed": true,
          "name": "newOwner",
          "type": "address"
        }
      ],
      "name": "OwnershipTransferred",
      "type": "event"
    },
    {
      "constant": false,
      "inputs": [
        {
          "name": "_matchId",
          "type": "bytes32"
        }
      ],
      "name": "checkOutcome",
      "outputs": [
        {
          "name": "",
          "type": "uint8"
        }
      ],
      "payable": false,
      "stateMutability": "nonpayable",
      "type": "function"
    }
  ],
  "bytecode": "0x6080604052739f91e4df7554ed7c032172b26979749cb608d10c600160006101000a81548173ffffffffffffffffffffffffffffffffffffffff021916908373ffffffffffffffffffffffffffffffffffffffff160217905550600160009054906101000a900473ffffffffffffffffffffffffffffffffffffffff16600260006101000a81548173ffffffffffffffffffffffffffffffffffffffff021916908373ffffffffffffffffffffffffffffffffffffffff16021790555064e8d4a510006003556001600755620f4240600855336000806101000a81548173ffffffffffffffffffffffffffffffffffffffff021916908373ffffffffffffffffffffffffffffffffffffffff160217905550611a3d806101206000396000f3006080604052600436106100ba576000357c0100000000000000000000000000000000000000000000000000000000900463ffffffff1680632c70120e146100bf5780632ce3707e1461012b5780633397741b1461015a5780633fbafb5e146101c65780634c69c00f1461020157806352311c141461025c5780638da5cb5b146102af578063a212b45414610306578063b18b78dd1461031d578063ced1b70814610374578063f2fde38b14610443578063fcc6077d14610486575b600080fd5b3480156100cb57600080fd5b506100d461056f565b6040518080602001828103825283818151815260200191508051906020019060200280838360005b838110156101175780820151818401526020810190506100fc565b505050509050019250505060405180910390f35b34801561013757600080fd5b5061014061068d565b604051808215151515815260200191505060405180910390f35b34801561016657600080fd5b5061016f610755565b6040518080602001828103825283818151815260200191508051906020019060200280838360005b838110156101b2578082015181840152602081019050610197565b505050509050019250505060405180910390f35b6101ff600480360381019080803560001916906020019092919080359060200190929190803560ff169060200190929190505050610873565b005b34801561020d57600080fd5b50610242600480360381019080803573ffffffffffffffffffffffffffffffffffffffff169060200190929190505050610b03565b604051808215151515815260200191505060405180910390f35b34801561026857600080fd5b5061028b6004803603810190808035600019169060200190929190505050610ccc565b6040518082600381111561029b57fe5b60ff16815260200191505060405180910390f35b3480156102bb57600080fd5b506102c4610ed1565b604051808273ffffffffffffffffffffffffffffffffffffffff1673ffffffffffffffffffffffffffffffffffffffff16815260200191505060405180910390f35b34801561031257600080fd5b5061031b610ef6565b005b34801561032957600080fd5b50610332611076565b604051808273ffffffffffffffffffffffffffffffffffffffff1673ffffffffffffffffffffffffffffffffffffffff16815260200191505060405180910390f35b34801561038057600080fd5b506103896110a0565b604051808760001916600019168152602001806020018681526020018581526020018460038111156103b757fe5b60ff1681526020018360000b60000b8152602001828103825287818151815260200191508051906020019080838360005b838110156104035780820151818401526020810190506103e8565b50505050905090810190601f1680156104305780820380516001836020036101000a031916815260200191505b5097505050505050505060405180910390f35b34801561044f57600080fd5b50610484600480360381019080803573ffffffffffffffffffffffffffffffffffffffff16906020019092919050505061121a565b005b34801561049257600080fd5b506104b5600480360381019080803560001916906020019092919050505061136f565b604051808760001916600019168152602001806020018681526020018581526020018460038111156104e357fe5b60ff1681526020018360000b60000b8152602001828103825287818151815260200191508051906020019080838360005b8381101561052f578082015181840152602081019050610514565b50505050905090810190601f16801561055c5780820380516001836020036101000a031916815260200191505b5097505050505050505060405180910390f35b6060600260009054906101000a900473ffffffffffffffffffffffffffffffffffffffff1673ffffffffffffffffffffffffffffffffffffffff1663c17c5a456040518163ffffffff167c0100000000000000000000000000000000000000000000000000000000028152600401600060405180830381600087803b1580156105f757600080fd5b505af115801561060b573d6000803e3d6000fd5b505050506040513d6000823e3d601f19601f82011682018060405250602081101561063557600080fd5b81019080805164010000000081111561064d57600080fd5b8281019050602081018481111561066357600080fd5b815185602082028301116401000000008211171561068057600080fd5b5050929190505050905090565b6000600260009054906101000a900473ffffffffffffffffffffffffffffffffffffffff1673ffffffffffffffffffffffffffffffffffffffff16633412a15c6040518163ffffffff167c0100000000000000000000000000000000000000000000000000000000028152600401602060405180830381600087803b15801561071557600080fd5b505af1158015610729573d6000803e3d6000fd5b505050506040513d602081101561073f57600080fd5b8101908080519060200190929190505050905090565b6060600260009054906101000a900473ffffffffffffffffffffffffffffffffffffffff1673ffffffffffffffffffffffffffffffffffffffff16635f29d4b16040518163ffffffff167c0100000000000000000000000000000000000000000000000000000000028152600401600060405180830381600087803b1580156107dd57600080fd5b505af11580156107f1573d6000803e3d6000fd5b505050506040513d6000823e3d601f19601f82011682018060405250602081101561081b57600080fd5b81019080805164010000000081111561083357600080fd5b8281019050602081018481111561084957600080fd5b815185602082028301116401000000008211171561086657600080fd5b5050929190505050905090565b600080600354841015151561088757600080fd5b600260009054906101000a900473ffffffffffffffffffffffffffffffffffffffff1673ffffffffffffffffffffffffffffffffffffffff1663a9345240866040518263ffffffff167c0100000000000000000000000000000000000000000000000000000000028152600401808260001916600019168152602001915050602060405180830381600087803b15801561092057600080fd5b505af1158015610934573d6000803e3d6000fd5b505050506040513d602081101561094a57600080fd5b8101908080519060200190929190505050151561096657600080fd5b61096f856114ed565b151561097a57600080fd5b60056000866000191660001916815260200190815260200160002091506001826080604051908101604052803373ffffffffffffffffffffffffffffffffffffffff168152602001886000191681526020018781526020018660ff168152509080600181540180825580915050906001820390600052602060002090600402016000909192909190915060008201518160000160006101000a81548173ffffffffffffffffffffffffffffffffffffffff021916908373ffffffffffffffffffffffffffffffffffffffff160217905550602082015181600101906000191690556040820151816002015560608201518160030160006101000a81548160ff021916908360ff16021790555050505050600460003373ffffffffffffffffffffffffffffffffffffffff1673ffffffffffffffffffffffffffffffffffffffff1681526020019081526020016000209050808590806001815401808255809150509060018203906000526020600020016000909192909190915090600019169055505050505050565b60008060009054906101000a900473ffffffffffffffffffffffffffffffffffffffff1673ffffffffffffffffffffffffffffffffffffffff163373ffffffffffffffffffffffffffffffffffffffff16141515610b6057600080fd5b81600160006101000a81548173ffffffffffffffffffffffffffffffffffffffff021916908373ffffffffffffffffffffffffffffffffffffffff160217905550600160009054906101000a900473ffffffffffffffffffffffffffffffffffffffff16600260006101000a81548173ffffffffffffffffffffffffffffffffffffffff021916908373ffffffffffffffffffffffffffffffffffffffff160217905550600260009054906101000a900473ffffffffffffffffffffffffffffffffffffffff1673ffffffffffffffffffffffffffffffffffffffff16633412a15c6040518163ffffffff167c0100000000000000000000000000000000000000000000000000000000028152600401602060405180830381600087803b158015610c8a57600080fd5b505af1158015610c9e573d6000803e3d6000fd5b505050506040513d6020811015610cb457600080fd5b81019080805190602001909291905050509050919050565b60008060007fffffffffffffffffffffffffffffffffffffffffffffffffffffffffffffffff9050600260009054906101000a900473ffffffffffffffffffffffffffffffffffffffff1673ffffffffffffffffffffffffffffffffffffffff1663fcc6077d856040518263ffffffff167c0100000000000000000000000000000000000000000000000000000000028152600401808260001916600019168152602001915050600060405180830381600087803b158015610d8d57600080fd5b505af1158015610da1573d6000803e3d6000fd5b505050506040513d6000823e3d601f19601f8201168201806040525060c0811015610dcb57600080fd5b81019080805190602001909291908051640100000000811115610ded57600080fd5b82810190506020810184811115610e0357600080fd5b8151856001820283011164010000000082111715610e2057600080fd5b5050929190602001805190602001909291908051906020019092919080519060200190929190805190602001909291905050509091929394509091929350909192509091508092508193505050600380811115610e7957fe5b826003811115610e8557fe5b1415610ec75760066000856000191660001916815260200190815260200160002060009054906101000a900460ff161515610ec657610ec5848383611532565b5b5b8192505050919050565b6000809054906101000a900473ffffffffffffffffffffffffffffffffffffffff1681565b60008060009054906101000a900473ffffffffffffffffffffffffffffffffffffffff1673ffffffffffffffffffffffffffffffffffffffff163373ffffffffffffffffffffffffffffffffffffffff16141515610f5357600080fd5b600260009054906101000a900473ffffffffffffffffffffffffffffffffffffffff1673ffffffffffffffffffffffffffffffffffffffff1663a212b4546040518163ffffffff167c0100000000000000000000000000000000000000000000000000000000028152600401600060405180830381600087803b158015610fd957600080fd5b505af1158015610fed573d6000803e3d6000fd5b50505050610ff96110a0565b9091929350909192509091509050508091505061101f8166038d7ea4c680006001610873565b6110358169021e19e0c9bab24000006000610873565b61104a81680579a814e10a7400006001610873565b61105e816729a2241af62c00006001610873565b6110738168055de6a779bbac00006000610873565b50565b6000600160009054906101000a900473ffffffffffffffffffffffffffffffffffffffff16905090565b60006060600080600080600260009054906101000a900473ffffffffffffffffffffffffffffffffffffffff1673ffffffffffffffffffffffffffffffffffffffff1663bb2b0f5860016040518263ffffffff167c01000000000000000000000000000000000000000000000000000000000281526004018082151515158152602001915050600060405180830381600087803b15801561114057600080fd5b505af1158015611154573d6000803e3d6000fd5b505050506040513d6000823e3d601f19601f8201168201806040525060c081101561117e57600080fd5b810190808051906020019092919080516401000000008111156111a057600080fd5b828101905060208101848111156111b657600080fd5b81518560018202830111640100000000821117156111d357600080fd5b505092919060200180519060200190929190805190602001909291908051906020019092919080519060200190929190505050955095509550955095509550909192939495565b6000809054906101000a900473ffffffffffffffffffffffffffffffffffffffff1673ffffffffffffffffffffffffffffffffffffffff163373ffffffffffffffffffffffffffffffffffffffff1614151561127557600080fd5b600073ffffffffffffffffffffffffffffffffffffffff168173ffffffffffffffffffffffffffffffffffffffff16141515156112b157600080fd5b8073ffffffffffffffffffffffffffffffffffffffff166000809054906101000a900473ffffffffffffffffffffffffffffffffffffffff1673ffffffffffffffffffffffffffffffffffffffff167f8be0079c531659141344cd1fd0a4f28419497f9722a3daafe3b4186f6b6457e060405160405180910390a3806000806101000a81548173ffffffffffffffffffffffffffffffffffffffff021916908373ffffffffffffffffffffffffffffffffffffffff16021790555050565b60006060600080600080600260009054906101000a900473ffffffffffffffffffffffffffffffffffffffff1673ffffffffffffffffffffffffffffffffffffffff1663fcc6077d886040518263ffffffff167c0100000000000000000000000000000000000000000000000000000000028152600401808260001916600019168152602001915050600060405180830381600087803b15801561141257600080fd5b505af1158015611426573d6000803e3d6000fd5b505050506040513d6000823e3d601f19601f8201168201806040525060c081101561145057600080fd5b8101908080519060200190929190805164010000000081111561147257600080fd5b8281019050602081018481111561148857600080fd5b81518560018202830111640100000000821117156114a557600080fd5b50509291906020018051906020019092919080519060200190929190805190602001909291908051906020019092919050505095509550955095509550955091939550919395565b6000806114f98361136f565b90919293945090919293509091925090915050809150506000600381111561151d57fe5b81600381111561152957fe5b14915050919050565b6000806000806060600080600560008b60001916600019168152602001908152602001600020965060009550600094506000935086805490506040519080825280602002602001820160405280156115995781602001602082028038833980820191505090505b509250600091505b86805490508210156116485786828154811015156115bb57fe5b90600052602060002090600402016002015490506116068988848154811015156115e157fe5b906000526020600020906004020160030160009054906101000a900460ff168a611811565b156116255761161e818661185690919063ffffffff16565b945061163b565b611638818761185690919063ffffffff16565b95505b81806001019250506115a1565b61165b858761185690919063ffffffff16565b9350600091505b8680549050821015611782576002600381111561167b57fe5b89600381111561168757fe5b14156116ce57868281548110151561169b57fe5b90600052602060002090600402016002015483838151811015156116bb57fe5b9060200190602002018181525050611775565b6117058988848154811015156116e057fe5b906000526020600020906004020160030160009054906101000a900460ff168a611811565b15611755576117348585898581548110151561171d57fe5b906000526020600020906004020160020154611872565b838381518110151561174257fe5b9060200190602002018181525050611774565b6000838381518110151561176557fe5b90602001906020020181815250505b5b8180600101925050611662565b600091505b82518210156117fd576117f087838154811015156117a157fe5b906000526020600020906004020160000160009054906101000a900473ffffffffffffffffffffffffffffffffffffffff1684848151811015156117e157fe5b906020019060200201516118f7565b8180600101925050611787565b611805611942565b50505050505050505050565b600060038081111561181f57fe5b84600381111561182b57fe5b14801561183c575060008360ff1610155b801561184d57508160ff168360ff16145b90509392505050565b6000818301905082811015151561186957fe5b80905092915050565b600080600061189e86611890600854876119c390919063ffffffff16565b6119fb90919063ffffffff16565b91506118c76008546118b984886119c390919063ffffffff16565b6119fb90919063ffffffff16565b905060008114156118d85760035490505b600754606402818115156118e857fe5b04905080925050509392505050565b8173ffffffffffffffffffffffffffffffffffffffff166108fc829081150290604051600060405180830381858888f1935050505015801561193d573d6000803e3d6000fd5b505050565b6000809054906101000a900473ffffffffffffffffffffffffffffffffffffffff1673ffffffffffffffffffffffffffffffffffffffff166108fc3073ffffffffffffffffffffffffffffffffffffffff16319081150290604051600060405180830381858888f193505050501580156119c0573d6000803e3d6000fd5b50565b6000808314156119d657600090506119f5565b81830290508183828115156119e757fe5b041415156119f157fe5b8090505b92915050565b60008183811515611a0857fe5b049050929150505600a165627a7a723058200828454af38a19e4687ae6c4eeab779cbd03cafa2d9d6f252017b738df93984f0029",
  "source": "pragma solidity ^0.4.17;\n\nimport \"./SportsBets.sol\";\nimport \"./SafeMath.sol\";\nimport \"./OracleInterface.sol\";\n\n\ncontract BetPayout is SportsBets {\n\n    using SafeMath for uint; \n\n    //constants \n    uint housePercentage = 1; \n    uint multFactor = 1000000;\n\n    /// @notice pays out winnings to a user \n    /// @param _user the user to whom to pay out \n    /// @param _amount the amount to pay out \n    function _payOutWinnings(address _user, uint _amount) private {\n        _user.transfer(_amount);\n    }\n\n    /// @notice transfers any remaining to the house (the house's cut)\n    function _transferToHouse() private {\n        owner.transfer(address(this).balance);\n    }\n\n    /// @notice determines whether or not the given bet is a winner \n    /// @param _outcome the match's actual outcome\n    /// @param _chosenWinner the participant chosen by the bettor as the winner \n    /// @param _actualWinner the actual winner \n    /// @return true if the bet was a winner\n    function _isWinningBet(OracleInterface.MatchOutcome _outcome, uint8 _chosenWinner, int8 _actualWinner) private pure returns (bool) {\n        return _outcome == OracleInterface.MatchOutcome.Decided && _chosenWinner >= 0 && (_chosenWinner == uint8(_actualWinner)); \n    }\n\n    /// @notice calculates the amount to be paid out for a bet of the given amount, under the given circumstances\n    /// @param _winningTotal the total monetary amount of winning bets \n    /// @param _totalPot the total amount in the pot for the match \n    /// @param _betAmount the amount of this particular bet \n    /// @return an amount in wei\n    function _calculatePayout(uint _winningTotal, uint _totalPot, uint _betAmount) private view returns (uint) {\n        //calculate proportion\n        uint proportion = (_betAmount.mul(multFactor)).div(_winningTotal);\n        \n        //calculate raw share\n        uint rawShare = _totalPot.mul(proportion).div(multFactor);\n\n        //if share has been rounded down to zero, fix that \n        if (rawShare == 0) \n            rawShare = minimumBet;\n        \n        //take out house's cut \n        rawShare = rawShare/(100 * housePercentage);\n        return rawShare;\n    }\n\n    /// @notice calculates how much to pay out to each winner, then pays each winner the appropriate amount \n    /// @param _matchId the unique id of the match\n    /// @param _outcome the match's outcome\n    /// @param _winner the index of the winner of the match (if not a draw)\n    function _payOutForMatch(bytes32 _matchId, OracleInterface.MatchOutcome _outcome, int8 _winner) private {\n    \n        Bet[] storage bets = matchToBets[_matchId]; \n        uint losingTotal = 0; \n        uint winningTotal = 0; \n        uint totalPot = 0;\n        uint[] memory payouts = new uint[](bets.length);\n        \n        //count winning bets & get total \n        uint n;\n        for (n = 0; n < bets.length; n++) {\n            uint amount = bets[n].amount;\n            if (_isWinningBet(_outcome, bets[n].chosenWinner, _winner)) {\n                winningTotal = winningTotal.add(amount);\n            } else {\n                losingTotal = losingTotal.add(amount);\n            }\n        }\n        totalPot = (losingTotal.add(winningTotal)); \n\n        //calculate payouts per bet \n        for (n = 0; n < bets.length; n++) {\n            if (_outcome == OracleInterface.MatchOutcome.Draw) {\n                payouts[n] = bets[n].amount;\n            } else {\n                if (_isWinningBet(_outcome, bets[n].chosenWinner, _winner)) {\n                    payouts[n] = _calculatePayout(winningTotal, totalPot, bets[n].amount); \n                } else {\n                    payouts[n] = 0;\n                }\n            }\n        }\n\n        //pay out the payouts \n        for (n = 0; n < payouts.length; n++) {\n            _payOutWinnings(bets[n].user, payouts[n]); \n        }\n\n        //transfer the remainder to the owner\n        _transferToHouse();\n    }\n    \n    \n    /// @notice check the outcome of the given match; if ready, will trigger calculation of payout, and actual payout to winners\n    /// @param _matchId the id of the match to check\n    /// @return the outcome of the given match \n    function checkOutcome(bytes32 _matchId) public returns (OracleInterface.MatchOutcome)  {\n        OracleInterface.MatchOutcome outcome; \n        int8 winner = -1;\n\n        (,,,,outcome,winner) = boxingOracle.getMatch(_matchId); \n\n        if (outcome == OracleInterface.MatchOutcome.Decided) {\n            if (!matchPaidOut[_matchId]) {\n                _payOutForMatch(_matchId, outcome, winner);\n            }\n        } \n\n        return outcome; \n    }\n}",
  "sourcePath": "/media/acer/D/clients/self/blockchain/ethereum/solidity/crypto-champ/crypto-champ/sports-bets/contracts/BetPayout.sol",
  "compiler": {
    "name": "solc",
    "version": "0.4.24+commit.e67f0147.Emscripten.clang"
  },
  "schemaVersion": "2.0.1",
  "updatedAt": "2018-07-19T06:11:13.451Z"
}