{
  "contractName": "BetPayout",
  "abi": [
    {
      "constant": false,
      "inputs": [
        {
          "name": "_matchId",
          "type": "bytes32"
        },
        {
          "name": "_chosenWinner",
          "type": "uint8"
        }
      ],
      "name": "placeBet",
      "outputs": [],
      "payable": true,
      "stateMutability": "payable",
      "type": "function"
    },
    {
      "constant": true,
      "inputs": [],
      "name": "getUserBets",
      "outputs": [
        {
          "name": "",
          "type": "bytes32[]"
        }
      ],
      "payable": false,
      "stateMutability": "view",
      "type": "function"
    },
    {
      "constant": false,
      "inputs": [],
      "name": "Disable",
      "outputs": [],
      "payable": false,
      "stateMutability": "nonpayable",
      "type": "function"
    },
    {
      "constant": true,
      "inputs": [],
      "name": "getMatches",
      "outputs": [
        {
          "name": "",
          "type": "bytes32[]"
        }
      ],
      "payable": false,
      "stateMutability": "view",
      "type": "function"
    },
    {
      "constant": true,
      "inputs": [],
      "name": "testOracleConnection",
      "outputs": [
        {
          "name": "",
          "type": "bool"
        }
      ],
      "payable": false,
      "stateMutability": "view",
      "type": "function"
    },
    {
      "constant": true,
      "inputs": [],
      "name": "getBettableMatches",
      "outputs": [
        {
          "name": "",
          "type": "bytes32[]"
        }
      ],
      "payable": false,
      "stateMutability": "view",
      "type": "function"
    },
    {
      "constant": false,
      "inputs": [
        {
          "name": "_oracleAddress",
          "type": "address"
        }
      ],
      "name": "setOracleAddress",
      "outputs": [
        {
          "name": "",
          "type": "bool"
        }
      ],
      "payable": false,
      "stateMutability": "nonpayable",
      "type": "function"
    },
    {
      "constant": true,
      "inputs": [
        {
          "name": "_matchId",
          "type": "bytes32"
        }
      ],
      "name": "getUserBet",
      "outputs": [
        {
          "name": "amount",
          "type": "uint256"
        },
        {
          "name": "winner",
          "type": "uint8"
        }
      ],
      "payable": false,
      "stateMutability": "view",
      "type": "function"
    },
    {
      "constant": true,
      "inputs": [],
      "name": "owner",
      "outputs": [
        {
          "name": "",
          "type": "address"
        }
      ],
      "payable": false,
      "stateMutability": "view",
      "type": "function"
    },
    {
      "constant": false,
      "inputs": [],
      "name": "Enable",
      "outputs": [],
      "payable": false,
      "stateMutability": "nonpayable",
      "type": "function"
    },
    {
      "constant": true,
      "inputs": [],
      "name": "getOracleAddress",
      "outputs": [
        {
          "name": "",
          "type": "address"
        }
      ],
      "payable": false,
      "stateMutability": "view",
      "type": "function"
    },
    {
      "constant": true,
      "inputs": [],
      "name": "getMostRecentMatch",
      "outputs": [
        {
          "name": "id",
          "type": "bytes32"
        },
        {
          "name": "name",
          "type": "string"
        },
        {
          "name": "participantCount",
          "type": "uint256"
        },
        {
          "name": "date",
          "type": "uint256"
        },
        {
          "name": "outcome",
          "type": "uint8"
        },
        {
          "name": "winner",
          "type": "int8"
        }
      ],
      "payable": false,
      "stateMutability": "view",
      "type": "function"
    },
    {
      "constant": false,
      "inputs": [
        {
          "name": "newOwner",
          "type": "address"
        }
      ],
      "name": "transferOwnership",
      "outputs": [],
      "payable": false,
      "stateMutability": "nonpayable",
      "type": "function"
    },
    {
      "constant": true,
      "inputs": [
        {
          "name": "_matchId",
          "type": "bytes32"
        }
      ],
      "name": "getMatch",
      "outputs": [
        {
          "name": "id",
          "type": "bytes32"
        },
        {
          "name": "name",
          "type": "string"
        },
        {
          "name": "participantCount",
          "type": "uint8"
        },
        {
          "name": "date",
          "type": "uint256"
        },
        {
          "name": "outcome",
          "type": "uint8"
        },
        {
          "name": "winner",
          "type": "int8"
        }
      ],
      "payable": false,
      "stateMutability": "view",
      "type": "function"
    },
    {
      "anonymous": false,
      "inputs": [
        {
          "indexed": true,
          "name": "previousOwner",
          "type": "address"
        },
        {
          "indexed": true,
          "name": "newOwner",
          "type": "address"
        }
      ],
      "name": "OwnershipTransferred",
      "type": "event"
    },
    {
      "constant": false,
      "inputs": [
        {
          "name": "_matchId",
          "type": "bytes32"
        }
      ],
      "name": "checkOutcome",
      "outputs": [
        {
          "name": "",
          "type": "uint8"
        }
      ],
      "payable": false,
      "stateMutability": "nonpayable",
      "type": "function"
    }
  ],
  "bytecode": "0x608060405260008060146101000a81548160ff02191690831515021790555073ebf3c3b116fc39b05a4b6e24acb3c7c5e604d07b600160006101000a81548173ffffffffffffffffffffffffffffffffffffffff021916908373ffffffffffffffffffffffffffffffffffffffff160217905550600160009054906101000a900473ffffffffffffffffffffffffffffffffffffffff16600260006101000a81548173ffffffffffffffffffffffffffffffffffffffff021916908373ffffffffffffffffffffffffffffffffffffffff16021790555064e8d4a510006003556001600755620f4240600855336000806101000a81548173ffffffffffffffffffffffffffffffffffffffff021916908373ffffffffffffffffffffffffffffffffffffffff160217905550611ee18061013a6000396000f3006080604052600436106100db576000357c0100000000000000000000000000000000000000000000000000000000900463ffffffff1680630e52bb49146100e057806312074a461461011157806325a311351461017d5780632c70120e146101945780632ce3707e146102005780633397741b1461022f5780634c69c00f1461029b57806352311c14146102f65780635b910190146103495780638da5cb5b1461039b57806399c8055d146103f2578063b18b78dd14610409578063ced1b70814610460578063f2fde38b1461052f578063fcc6077d14610572575b600080fd5b61010f6004803603810190808035600019169060200190929190803560ff169060200190929190505050610661565b005b34801561011d57600080fd5b50610126610922565b6040518080602001828103825283818151815260200191508051906020019060200280838360005b8381101561016957808201518184015260208101905061014e565b505050509050019250505060405180910390f35b34801561018957600080fd5b506101926109bb565b005b3480156101a057600080fd5b506101a9610a33565b6040518080602001828103825283818151815260200191508051906020019060200280838360005b838110156101ec5780820151818401526020810190506101d1565b505050509050019250505060405180910390f35b34801561020c57600080fd5b50610215610b51565b604051808215151515815260200191505060405180910390f35b34801561023b57600080fd5b50610244610c19565b6040518080602001828103825283818151815260200191508051906020019060200280838360005b8381101561028757808201518184015260208101905061026c565b505050509050019250505060405180910390f35b3480156102a757600080fd5b506102dc600480360381019080803573ffffffffffffffffffffffffffffffffffffffff169060200190929190505050610d37565b604051808215151515815260200191505060405180910390f35b34801561030257600080fd5b506103256004803603810190808035600019169060200190929190505050610f00565b6040518082600381111561033557fe5b60ff16815260200191505060405180910390f35b34801561035557600080fd5b506103786004803603810190808035600019169060200190929190505050611120565b604051808381526020018260ff1660ff1681526020019250505060405180910390f35b3480156103a757600080fd5b506103b061123f565b604051808273ffffffffffffffffffffffffffffffffffffffff1673ffffffffffffffffffffffffffffffffffffffff16815260200191505060405180910390f35b3480156103fe57600080fd5b50610407611264565b005b34801561041557600080fd5b5061041e6112db565b604051808273ffffffffffffffffffffffffffffffffffffffff1673ffffffffffffffffffffffffffffffffffffffff16815260200191505060405180910390f35b34801561046c57600080fd5b50610475611305565b604051808760001916600019168152602001806020018681526020018581526020018460038111156104a357fe5b60ff1681526020018360000b60000b8152602001828103825287818151815260200191508051906020019080838360005b838110156104ef5780820151818401526020810190506104d4565b50505050905090810190601f16801561051c5780820380516001836020036101000a031916815260200191505b5097505050505050505060405180910390f35b34801561053b57600080fd5b50610570600480360381019080803573ffffffffffffffffffffffffffffffffffffffff16906020019092919050505061147f565b005b34801561057e57600080fd5b506105a160048036038101908080356000191690602001909291905050506115d4565b604051808760001916600019168152602001806020018660ff1660ff1681526020018581526020018460038111156105d557fe5b60ff1681526020018360000b60000b8152602001828103825287818151815260200191508051906020019080838360005b83811015610621578082015181840152602081019050610606565b50505050905090810190601f16801561064e5780820380516001836020036101000a031916815260200191505b5097505050505050505060405180910390f35b600080600060149054906101000a900460ff1615151561068057600080fd5b600354341015151561069157600080fd5b600260009054906101000a900473ffffffffffffffffffffffffffffffffffffffff1673ffffffffffffffffffffffffffffffffffffffff1663a9345240856040518263ffffffff167c0100000000000000000000000000000000000000000000000000000000028152600401808260001916600019168152602001915050602060405180830381600087803b15801561072a57600080fd5b505af115801561073e573d6000803e3d6000fd5b505050506040513d602081101561075457600080fd5b8101908080519060200190929190505050151561077057600080fd5b61077b338585611752565b151561078657600080fd5b61078f84611991565b151561079a57600080fd5b60056000856000191660001916815260200190815260200160002091506001826080604051908101604052803373ffffffffffffffffffffffffffffffffffffffff168152602001876000191681526020013481526020018660ff168152509080600181540180825580915050906001820390600052602060002090600402016000909192909190915060008201518160000160006101000a81548173ffffffffffffffffffffffffffffffffffffffff021916908373ffffffffffffffffffffffffffffffffffffffff160217905550602082015181600101906000191690556040820151816002015560608201518160030160006101000a81548160ff021916908360ff16021790555050505050600460003373ffffffffffffffffffffffffffffffffffffffff1673ffffffffffffffffffffffffffffffffffffffff16815260200190815260200160002090508084908060018154018082558091505090600182039060005260206000200160009091929091909150906000191690555050505050565b6060600460003373ffffffffffffffffffffffffffffffffffffffff1673ffffffffffffffffffffffffffffffffffffffff1681526020019081526020016000208054806020026020016040519081016040528092919081815260200182805480156109b157602002820191906000526020600020905b81546000191681526020019060010190808311610999575b5050505050905090565b6000809054906101000a900473ffffffffffffffffffffffffffffffffffffffff1673ffffffffffffffffffffffffffffffffffffffff163373ffffffffffffffffffffffffffffffffffffffff16141515610a1657600080fd5b6001600060146101000a81548160ff021916908315150217905550565b6060600260009054906101000a900473ffffffffffffffffffffffffffffffffffffffff1673ffffffffffffffffffffffffffffffffffffffff1663c17c5a456040518163ffffffff167c0100000000000000000000000000000000000000000000000000000000028152600401600060405180830381600087803b158015610abb57600080fd5b505af1158015610acf573d6000803e3d6000fd5b505050506040513d6000823e3d601f19601f820116820180604052506020811015610af957600080fd5b810190808051640100000000811115610b1157600080fd5b82810190506020810184811115610b2757600080fd5b8151856020820283011164010000000082111715610b4457600080fd5b5050929190505050905090565b6000600260009054906101000a900473ffffffffffffffffffffffffffffffffffffffff1673ffffffffffffffffffffffffffffffffffffffff16633412a15c6040518163ffffffff167c0100000000000000000000000000000000000000000000000000000000028152600401602060405180830381600087803b158015610bd957600080fd5b505af1158015610bed573d6000803e3d6000fd5b505050506040513d6020811015610c0357600080fd5b8101908080519060200190929190505050905090565b6060600260009054906101000a900473ffffffffffffffffffffffffffffffffffffffff1673ffffffffffffffffffffffffffffffffffffffff16635f29d4b16040518163ffffffff167c0100000000000000000000000000000000000000000000000000000000028152600401600060405180830381600087803b158015610ca157600080fd5b505af1158015610cb5573d6000803e3d6000fd5b505050506040513d6000823e3d601f19601f820116820180604052506020811015610cdf57600080fd5b810190808051640100000000811115610cf757600080fd5b82810190506020810184811115610d0d57600080fd5b8151856020820283011164010000000082111715610d2a57600080fd5b5050929190505050905090565b60008060009054906101000a900473ffffffffffffffffffffffffffffffffffffffff1673ffffffffffffffffffffffffffffffffffffffff163373ffffffffffffffffffffffffffffffffffffffff16141515610d9457600080fd5b81600160006101000a81548173ffffffffffffffffffffffffffffffffffffffff021916908373ffffffffffffffffffffffffffffffffffffffff160217905550600160009054906101000a900473ffffffffffffffffffffffffffffffffffffffff16600260006101000a81548173ffffffffffffffffffffffffffffffffffffffff021916908373ffffffffffffffffffffffffffffffffffffffff160217905550600260009054906101000a900473ffffffffffffffffffffffffffffffffffffffff1673ffffffffffffffffffffffffffffffffffffffff16633412a15c6040518163ffffffff167c0100000000000000000000000000000000000000000000000000000000028152600401602060405180830381600087803b158015610ebe57600080fd5b505af1158015610ed2573d6000803e3d6000fd5b505050506040513d6020811015610ee857600080fd5b81019080805190602001909291905050509050919050565b60008060008060149054906101000a900460ff16151515610f2057600080fd5b7fffffffffffffffffffffffffffffffffffffffffffffffffffffffffffffffff9050600260009054906101000a900473ffffffffffffffffffffffffffffffffffffffff1673ffffffffffffffffffffffffffffffffffffffff1663fcc6077d856040518263ffffffff167c0100000000000000000000000000000000000000000000000000000000028152600401808260001916600019168152602001915050600060405180830381600087803b158015610fdc57600080fd5b505af1158015610ff0573d6000803e3d6000fd5b505050506040513d6000823e3d601f19601f8201168201806040525060c081101561101a57600080fd5b8101908080519060200190929190805164010000000081111561103c57600080fd5b8281019050602081018481111561105257600080fd5b815185600182028301116401000000008211171561106f57600080fd5b50509291906020018051906020019092919080519060200190929190805190602001909291908051906020019092919050505090919293945090919293509091925090915080925081935050506003808111156110c857fe5b8260038111156110d457fe5b14156111165760066000856000191660001916815260200190815260200160002060009054906101000a900460ff161515611115576111148483836119d6565b5b5b8192505050919050565b6000806000806005600086600019166000191681526020019081526020016000209150600090505b818054905081101561122a573373ffffffffffffffffffffffffffffffffffffffff16828281548110151561117957fe5b906000526020600020906004020160000160009054906101000a900473ffffffffffffffffffffffffffffffffffffffff1673ffffffffffffffffffffffffffffffffffffffff16141561121d5781818154811015156111d557fe5b90600052602060002090600402016002015482828154811015156111f557fe5b906000526020600020906004020160030160009054906101000a900460ff1693509350611238565b8080600101915050611148565b600080819150809050935093505b5050915091565b6000809054906101000a900473ffffffffffffffffffffffffffffffffffffffff1681565b6000809054906101000a900473ffffffffffffffffffffffffffffffffffffffff1673ffffffffffffffffffffffffffffffffffffffff163373ffffffffffffffffffffffffffffffffffffffff161415156112bf57600080fd5b60008060146101000a81548160ff021916908315150217905550565b6000600160009054906101000a900473ffffffffffffffffffffffffffffffffffffffff16905090565b60006060600080600080600260009054906101000a900473ffffffffffffffffffffffffffffffffffffffff1673ffffffffffffffffffffffffffffffffffffffff1663bb2b0f5860016040518263ffffffff167c01000000000000000000000000000000000000000000000000000000000281526004018082151515158152602001915050600060405180830381600087803b1580156113a557600080fd5b505af11580156113b9573d6000803e3d6000fd5b505050506040513d6000823e3d601f19601f8201168201806040525060c08110156113e357600080fd5b8101908080519060200190929190805164010000000081111561140557600080fd5b8281019050602081018481111561141b57600080fd5b815185600182028301116401000000008211171561143857600080fd5b505092919060200180519060200190929190805190602001909291908051906020019092919080519060200190929190505050955095509550955095509550909192939495565b6000809054906101000a900473ffffffffffffffffffffffffffffffffffffffff1673ffffffffffffffffffffffffffffffffffffffff163373ffffffffffffffffffffffffffffffffffffffff161415156114da57600080fd5b600073ffffffffffffffffffffffffffffffffffffffff168173ffffffffffffffffffffffffffffffffffffffff161415151561151657600080fd5b8073ffffffffffffffffffffffffffffffffffffffff166000809054906101000a900473ffffffffffffffffffffffffffffffffffffffff1673ffffffffffffffffffffffffffffffffffffffff167f8be0079c531659141344cd1fd0a4f28419497f9722a3daafe3b4186f6b6457e060405160405180910390a3806000806101000a81548173ffffffffffffffffffffffffffffffffffffffff021916908373ffffffffffffffffffffffffffffffffffffffff16021790555050565b60006060600080600080600260009054906101000a900473ffffffffffffffffffffffffffffffffffffffff1673ffffffffffffffffffffffffffffffffffffffff1663fcc6077d886040518263ffffffff167c0100000000000000000000000000000000000000000000000000000000028152600401808260001916600019168152602001915050600060405180830381600087803b15801561167757600080fd5b505af115801561168b573d6000803e3d6000fd5b505050506040513d6000823e3d601f19601f8201168201806040525060c08110156116b557600080fd5b810190808051906020019092919080516401000000008111156116d757600080fd5b828101905060208101848111156116ed57600080fd5b815185600182028301116401000000008211171561170a57600080fd5b50509291906020018051906020019092919080519060200190929190805190602001909291908051906020019092919050505095509550955095509550955091939550919395565b600080600080600460008873ffffffffffffffffffffffffffffffffffffffff1673ffffffffffffffffffffffffffffffffffffffff16815260200190815260200160002092506000838054905011156117f657600091505b82805490508210156117f557856000191683838154811015156117ca57fe5b90600052602060002001546000191614156117e85760009350611987565b81806001019250506117ab565b5b600260009054906101000a900473ffffffffffffffffffffffffffffffffffffffff1673ffffffffffffffffffffffffffffffffffffffff1663fcc6077d876040518263ffffffff167c0100000000000000000000000000000000000000000000000000000000028152600401808260001916600019168152602001915050600060405180830381600087803b15801561188f57600080fd5b505af11580156118a3573d6000803e3d6000fd5b505050506040513d6000823e3d601f19601f8201168201806040525060c08110156118cd57600080fd5b810190808051906020019092919080516401000000008111156118ef57600080fd5b8281019050602081018481111561190557600080fd5b815185600182028301116401000000008211171561192257600080fd5b5050929190602001805190602001909291908051906020019092919080519060200190929190805190602001909291905050509091929394509091929350909150905050809150508060ff168560ff161015156119825760009350611987565b600193505b5050509392505050565b60008061199d836115d4565b9091929394509091929350909192509091505080915050600060038111156119c157fe5b8160038111156119cd57fe5b14915050919050565b6000806000806060600080600560008b6000191660001916815260200190815260200160002096506000955060009450600093508680549050604051908082528060200260200182016040528015611a3d5781602001602082028038833980820191505090505b509250600091505b8680549050821015611aec578682815481101515611a5f57fe5b9060005260206000209060040201600201549050611aaa898884815481101515611a8557fe5b906000526020600020906004020160030160009054906101000a900460ff168a611cb5565b15611ac957611ac28186611cfa90919063ffffffff16565b9450611adf565b611adc8187611cfa90919063ffffffff16565b95505b8180600101925050611a45565b611aff8587611cfa90919063ffffffff16565b9350600091505b8680549050821015611c265760026003811115611b1f57fe5b896003811115611b2b57fe5b1415611b72578682815481101515611b3f57fe5b9060005260206000209060040201600201548383815181101515611b5f57fe5b9060200190602002018181525050611c19565b611ba9898884815481101515611b8457fe5b906000526020600020906004020160030160009054906101000a900460ff168a611cb5565b15611bf957611bd885858985815481101515611bc157fe5b906000526020600020906004020160020154611d16565b8383815181101515611be657fe5b9060200190602002018181525050611c18565b60008383815181101515611c0957fe5b90602001906020020181815250505b5b8180600101925050611b06565b600091505b8251821015611ca157611c948783815481101515611c4557fe5b906000526020600020906004020160000160009054906101000a900473ffffffffffffffffffffffffffffffffffffffff168484815181101515611c8557fe5b90602001906020020151611d9b565b8180600101925050611c2b565b611ca9611de6565b50505050505050505050565b6000600380811115611cc357fe5b846003811115611ccf57fe5b148015611ce0575060008360ff1610155b8015611cf157508160ff168360ff16145b90509392505050565b60008183019050828110151515611d0d57fe5b80905092915050565b6000806000611d4286611d3460085487611e6790919063ffffffff16565b611e9f90919063ffffffff16565b9150611d6b600854611d5d8488611e6790919063ffffffff16565b611e9f90919063ffffffff16565b90506000811415611d7c5760035490505b60075460640281811515611d8c57fe5b04905080925050509392505050565b8173ffffffffffffffffffffffffffffffffffffffff166108fc829081150290604051600060405180830381858888f19350505050158015611de1573d6000803e3d6000fd5b505050565b6000809054906101000a900473ffffffffffffffffffffffffffffffffffffffff1673ffffffffffffffffffffffffffffffffffffffff166108fc3073ffffffffffffffffffffffffffffffffffffffff16319081150290604051600060405180830381858888f19350505050158015611e64573d6000803e3d6000fd5b50565b600080831415611e7a5760009050611e99565b8183029050818382811515611e8b57fe5b04141515611e9557fe5b8090505b92915050565b60008183811515611eac57fe5b049050929150505600a165627a7a7230582082c64f8c02ba70712d671d35cf3a3a6cdf16d1e81c1529050c728a9a782bda060029",
  "source": "pragma solidity ^0.4.17;\n\nimport \"./SportsBets.sol\";\nimport \"./SafeMath.sol\";\nimport \"./OracleInterface.sol\";\n\n\ncontract BetPayout is SportsBets {\n\n    using SafeMath for uint; \n\n    //constants \n    uint housePercentage = 1; \n    uint multFactor = 1000000;\n\n    /// @notice pays out winnings to a user \n    /// @param _user the user to whom to pay out \n    /// @param _amount the amount to pay out \n    function _payOutWinnings(address _user, uint _amount) private {\n        _user.transfer(_amount);\n    }\n\n    /// @notice transfers any remaining to the house (the house's cut)\n    function _transferToHouse() private {\n        owner.transfer(address(this).balance);\n    }\n\n    /// @notice determines whether or not the given bet is a winner \n    /// @param _outcome the match's actual outcome\n    /// @param _chosenWinner the participant chosen by the bettor as the winner \n    /// @param _actualWinner the actual winner \n    /// @return true if the bet was a winner\n    function _isWinningBet(OracleInterface.MatchOutcome _outcome, uint8 _chosenWinner, int8 _actualWinner) private pure returns (bool) {\n        return _outcome == OracleInterface.MatchOutcome.Decided && _chosenWinner >= 0 && (_chosenWinner == uint8(_actualWinner)); \n    }\n\n    /// @notice calculates the amount to be paid out for a bet of the given amount, under the given circumstances\n    /// @param _winningTotal the total monetary amount of winning bets \n    /// @param _totalPot the total amount in the pot for the match \n    /// @param _betAmount the amount of this particular bet \n    /// @return an amount in wei\n    function _calculatePayout(uint _winningTotal, uint _totalPot, uint _betAmount) private view returns (uint) {\n        //calculate proportion\n        uint proportion = (_betAmount.mul(multFactor)).div(_winningTotal);\n        \n        //calculate raw share\n        uint rawShare = _totalPot.mul(proportion).div(multFactor);\n\n        //if share has been rounded down to zero, fix that \n        if (rawShare == 0) \n            rawShare = minimumBet;\n        \n        //take out house's cut \n        rawShare = rawShare/(100 * housePercentage);\n        return rawShare;\n    }\n\n    /// @notice calculates how much to pay out to each winner, then pays each winner the appropriate amount \n    /// @param _matchId the unique id of the match\n    /// @param _outcome the match's outcome\n    /// @param _winner the index of the winner of the match (if not a draw)\n    function _payOutForMatch(bytes32 _matchId, OracleInterface.MatchOutcome _outcome, int8 _winner) private {\n    \n        Bet[] storage bets = matchToBets[_matchId]; \n        uint losingTotal = 0; \n        uint winningTotal = 0; \n        uint totalPot = 0;\n        uint[] memory payouts = new uint[](bets.length);\n        \n        //count winning bets & get total \n        uint n;\n        for (n = 0; n < bets.length; n++) {\n            uint amount = bets[n].amount;\n            if (_isWinningBet(_outcome, bets[n].chosenWinner, _winner)) {\n                winningTotal = winningTotal.add(amount);\n            } else {\n                losingTotal = losingTotal.add(amount);\n            }\n        }\n        totalPot = (losingTotal.add(winningTotal)); \n\n        //calculate payouts per bet \n        for (n = 0; n < bets.length; n++) {\n            if (_outcome == OracleInterface.MatchOutcome.Draw) {\n                payouts[n] = bets[n].amount;\n            } else {\n                if (_isWinningBet(_outcome, bets[n].chosenWinner, _winner)) {\n                    payouts[n] = _calculatePayout(winningTotal, totalPot, bets[n].amount); \n                } else {\n                    payouts[n] = 0;\n                }\n            }\n        }\n\n        //pay out the payouts \n        for (n = 0; n < payouts.length; n++) {\n            _payOutWinnings(bets[n].user, payouts[n]); \n        }\n\n        //transfer the remainder to the owner\n        _transferToHouse();\n    }\n    \n    \n    /// @notice check the outcome of the given match; if ready, will trigger calculation of payout, and actual payout to winners\n    /// @param _matchId the id of the match to check\n    /// @return the outcome of the given match \n    function checkOutcome(bytes32 _matchId) public notDisabled returns (OracleInterface.MatchOutcome)  {\n        OracleInterface.MatchOutcome outcome; \n        int8 winner = -1;\n\n        (,,,,outcome,winner) = boxingOracle.getMatch(_matchId); \n\n        if (outcome == OracleInterface.MatchOutcome.Decided) {\n            if (!matchPaidOut[_matchId]) {\n                _payOutForMatch(_matchId, outcome, winner);\n            }\n        } \n\n        return outcome; \n    }\n}",
  "sourcePath": "/media/acer/D/clients/self/blockchain/ethereum/solidity/crypto-champ/crypto-champ/sports-bets/contracts/BetPayout.sol",
  "compiler": {
    "name": "solc",
    "version": "0.4.24+commit.e67f0147.Emscripten.clang"
  },
  "schemaVersion": "2.0.1",
  "updatedAt": "2018-07-19T12:42:28.582Z"
}