{
  "contractName": "BetPayout",
  "abi": [
    {
      "constant": true,
      "inputs": [],
      "name": "testOracleConnection",
      "outputs": [
        {
          "name": "",
          "type": "bool"
        }
      ],
      "payable": false,
      "stateMutability": "view",
      "type": "function"
    },
    {
      "constant": true,
      "inputs": [],
      "name": "getBettableMatches",
      "outputs": [
        {
          "name": "",
          "type": "bytes32[]"
        }
      ],
      "payable": false,
      "stateMutability": "view",
      "type": "function"
    },
    {
      "constant": false,
      "inputs": [
        {
          "name": "_matchId",
          "type": "bytes32"
        },
        {
          "name": "_amount",
          "type": "uint256"
        },
        {
          "name": "_chosenWinner",
          "type": "uint8"
        }
      ],
      "name": "placeBet",
      "outputs": [],
      "payable": true,
      "stateMutability": "payable",
      "type": "function"
    },
    {
      "constant": false,
      "inputs": [
        {
          "name": "_oracleAddress",
          "type": "address"
        }
      ],
      "name": "setOracleAddress",
      "outputs": [
        {
          "name": "",
          "type": "bool"
        }
      ],
      "payable": false,
      "stateMutability": "nonpayable",
      "type": "function"
    },
    {
      "constant": true,
      "inputs": [],
      "name": "owner",
      "outputs": [
        {
          "name": "",
          "type": "address"
        }
      ],
      "payable": false,
      "stateMutability": "view",
      "type": "function"
    },
    {
      "constant": false,
      "inputs": [],
      "name": "addTestData",
      "outputs": [],
      "payable": false,
      "stateMutability": "nonpayable",
      "type": "function"
    },
    {
      "constant": true,
      "inputs": [],
      "name": "getOracleAddress",
      "outputs": [
        {
          "name": "",
          "type": "address"
        }
      ],
      "payable": false,
      "stateMutability": "view",
      "type": "function"
    },
    {
      "constant": true,
      "inputs": [],
      "name": "getMostRecentMatch",
      "outputs": [
        {
          "name": "id",
          "type": "bytes32"
        },
        {
          "name": "name",
          "type": "string"
        },
        {
          "name": "participantCount",
          "type": "uint256"
        },
        {
          "name": "date",
          "type": "uint256"
        },
        {
          "name": "outcome",
          "type": "uint8"
        },
        {
          "name": "winner",
          "type": "int8"
        }
      ],
      "payable": false,
      "stateMutability": "view",
      "type": "function"
    },
    {
      "constant": false,
      "inputs": [
        {
          "name": "newOwner",
          "type": "address"
        }
      ],
      "name": "transferOwnership",
      "outputs": [],
      "payable": false,
      "stateMutability": "nonpayable",
      "type": "function"
    },
    {
      "constant": true,
      "inputs": [
        {
          "name": "_matchId",
          "type": "bytes32"
        }
      ],
      "name": "getMatch",
      "outputs": [
        {
          "name": "id",
          "type": "bytes32"
        },
        {
          "name": "name",
          "type": "string"
        },
        {
          "name": "participantCount",
          "type": "uint256"
        },
        {
          "name": "date",
          "type": "uint256"
        },
        {
          "name": "outcome",
          "type": "uint8"
        },
        {
          "name": "winner",
          "type": "int8"
        }
      ],
      "payable": false,
      "stateMutability": "view",
      "type": "function"
    },
    {
      "anonymous": false,
      "inputs": [
        {
          "indexed": true,
          "name": "previousOwner",
          "type": "address"
        },
        {
          "indexed": true,
          "name": "newOwner",
          "type": "address"
        }
      ],
      "name": "OwnershipTransferred",
      "type": "event"
    },
    {
      "constant": false,
      "inputs": [
        {
          "name": "_matchId",
          "type": "bytes32"
        }
      ],
      "name": "checkOutcome",
      "outputs": [
        {
          "name": "",
          "type": "uint8"
        }
      ],
      "payable": false,
      "stateMutability": "nonpayable",
      "type": "function"
    }
  ],
  "bytecode": "0x608060405273a5f7019754316b93d5e14d85fbd29e2477124dae600160006101000a81548173ffffffffffffffffffffffffffffffffffffffff021916908373ffffffffffffffffffffffffffffffffffffffff160217905550600160009054906101000a900473ffffffffffffffffffffffffffffffffffffffff16600260006101000a81548173ffffffffffffffffffffffffffffffffffffffff021916908373ffffffffffffffffffffffffffffffffffffffff16021790555064e8d4a510006003556001600755620f4240600855336000806101000a81548173ffffffffffffffffffffffffffffffffffffffff021916908373ffffffffffffffffffffffffffffffffffffffff16021790555061180a806101206000396000f3006080604052600436106100af576000357c0100000000000000000000000000000000000000000000000000000000900463ffffffff1680632ce3707e146100b45780633397741b146100e35780633fbafb5e1461014f5780634c69c00f1461018a57806352311c14146101e55780638da5cb5b14610238578063a212b4541461028f578063b18b78dd146102a6578063ced1b708146102fd578063f2fde38b146103cc578063fcc6077d1461040f575b600080fd5b3480156100c057600080fd5b506100c96104f8565b604051808215151515815260200191505060405180910390f35b3480156100ef57600080fd5b506100f86105c0565b6040518080602001828103825283818151815260200191508051906020019060200280838360005b8381101561013b578082015181840152602081019050610120565b505050509050019250505060405180910390f35b610188600480360381019080803560001916906020019092919080359060200190929190803560ff1690602001909291905050506106de565b005b34801561019657600080fd5b506101cb600480360381019080803573ffffffffffffffffffffffffffffffffffffffff16906020019092919050505061096e565b604051808215151515815260200191505060405180910390f35b3480156101f157600080fd5b506102146004803603810190808035600019169060200190929190505050610b37565b6040518082600381111561022457fe5b60ff16815260200191505060405180910390f35b34801561024457600080fd5b5061024d610d3c565b604051808273ffffffffffffffffffffffffffffffffffffffff1673ffffffffffffffffffffffffffffffffffffffff16815260200191505060405180910390f35b34801561029b57600080fd5b506102a4610d61565b005b3480156102b257600080fd5b506102bb610e43565b604051808273ffffffffffffffffffffffffffffffffffffffff1673ffffffffffffffffffffffffffffffffffffffff16815260200191505060405180910390f35b34801561030957600080fd5b50610312610e6d565b6040518087600019166000191681526020018060200186815260200185815260200184600381111561034057fe5b60ff1681526020018360000b60000b8152602001828103825287818151815260200191508051906020019080838360005b8381101561038c578082015181840152602081019050610371565b50505050905090810190601f1680156103b95780820380516001836020036101000a031916815260200191505b5097505050505050505060405180910390f35b3480156103d857600080fd5b5061040d600480360381019080803573ffffffffffffffffffffffffffffffffffffffff169060200190929190505050610fe7565b005b34801561041b57600080fd5b5061043e600480360381019080803560001916906020019092919050505061113c565b6040518087600019166000191681526020018060200186815260200185815260200184600381111561046c57fe5b60ff1681526020018360000b60000b8152602001828103825287818151815260200191508051906020019080838360005b838110156104b857808201518184015260208101905061049d565b50505050905090810190601f1680156104e55780820380516001836020036101000a031916815260200191505b5097505050505050505060405180910390f35b6000600260009054906101000a900473ffffffffffffffffffffffffffffffffffffffff1673ffffffffffffffffffffffffffffffffffffffff16633412a15c6040518163ffffffff167c0100000000000000000000000000000000000000000000000000000000028152600401602060405180830381600087803b15801561058057600080fd5b505af1158015610594573d6000803e3d6000fd5b505050506040513d60208110156105aa57600080fd5b8101908080519060200190929190505050905090565b6060600260009054906101000a900473ffffffffffffffffffffffffffffffffffffffff1673ffffffffffffffffffffffffffffffffffffffff16635f29d4b16040518163ffffffff167c0100000000000000000000000000000000000000000000000000000000028152600401600060405180830381600087803b15801561064857600080fd5b505af115801561065c573d6000803e3d6000fd5b505050506040513d6000823e3d601f19601f82011682018060405250602081101561068657600080fd5b81019080805164010000000081111561069e57600080fd5b828101905060208101848111156106b457600080fd5b81518560208202830111640100000000821117156106d157600080fd5b5050929190505050905090565b60008060035484101515156106f257600080fd5b600260009054906101000a900473ffffffffffffffffffffffffffffffffffffffff1673ffffffffffffffffffffffffffffffffffffffff1663a9345240866040518263ffffffff167c0100000000000000000000000000000000000000000000000000000000028152600401808260001916600019168152602001915050602060405180830381600087803b15801561078b57600080fd5b505af115801561079f573d6000803e3d6000fd5b505050506040513d60208110156107b557600080fd5b810190808051906020019092919050505015156107d157600080fd5b6107da856112ba565b15156107e557600080fd5b60056000866000191660001916815260200190815260200160002091506001826080604051908101604052803373ffffffffffffffffffffffffffffffffffffffff168152602001886000191681526020018781526020018660ff168152509080600181540180825580915050906001820390600052602060002090600402016000909192909190915060008201518160000160006101000a81548173ffffffffffffffffffffffffffffffffffffffff021916908373ffffffffffffffffffffffffffffffffffffffff160217905550602082015181600101906000191690556040820151816002015560608201518160030160006101000a81548160ff021916908360ff16021790555050505050600460003373ffffffffffffffffffffffffffffffffffffffff1673ffffffffffffffffffffffffffffffffffffffff1681526020019081526020016000209050808590806001815401808255809150509060018203906000526020600020016000909192909190915090600019169055505050505050565b60008060009054906101000a900473ffffffffffffffffffffffffffffffffffffffff1673ffffffffffffffffffffffffffffffffffffffff163373ffffffffffffffffffffffffffffffffffffffff161415156109cb57600080fd5b81600160006101000a81548173ffffffffffffffffffffffffffffffffffffffff021916908373ffffffffffffffffffffffffffffffffffffffff160217905550600160009054906101000a900473ffffffffffffffffffffffffffffffffffffffff16600260006101000a81548173ffffffffffffffffffffffffffffffffffffffff021916908373ffffffffffffffffffffffffffffffffffffffff160217905550600260009054906101000a900473ffffffffffffffffffffffffffffffffffffffff1673ffffffffffffffffffffffffffffffffffffffff16633412a15c6040518163ffffffff167c0100000000000000000000000000000000000000000000000000000000028152600401602060405180830381600087803b158015610af557600080fd5b505af1158015610b09573d6000803e3d6000fd5b505050506040513d6020811015610b1f57600080fd5b81019080805190602001909291905050509050919050565b60008060007fffffffffffffffffffffffffffffffffffffffffffffffffffffffffffffffff9050600260009054906101000a900473ffffffffffffffffffffffffffffffffffffffff1673ffffffffffffffffffffffffffffffffffffffff1663fcc6077d856040518263ffffffff167c0100000000000000000000000000000000000000000000000000000000028152600401808260001916600019168152602001915050600060405180830381600087803b158015610bf857600080fd5b505af1158015610c0c573d6000803e3d6000fd5b505050506040513d6000823e3d601f19601f8201168201806040525060c0811015610c3657600080fd5b81019080805190602001909291908051640100000000811115610c5857600080fd5b82810190506020810184811115610c6e57600080fd5b8151856001820283011164010000000082111715610c8b57600080fd5b5050929190602001805190602001909291908051906020019092919080519060200190929190805190602001909291905050509091929394509091929350909192509091508092508193505050600380811115610ce457fe5b826003811115610cf057fe5b1415610d325760066000856000191660001916815260200190815260200160002060009054906101000a900460ff161515610d3157610d308483836112ff565b5b5b8192505050919050565b6000809054906101000a900473ffffffffffffffffffffffffffffffffffffffff1681565b60008060009054906101000a900473ffffffffffffffffffffffffffffffffffffffff1673ffffffffffffffffffffffffffffffffffffffff163373ffffffffffffffffffffffffffffffffffffffff16141515610dbe57600080fd5b610dc6610e6d565b90919293509091925090915090505080915050610dec8166038d7ea4c6800060016106de565b610e028169021e19e0c9bab240000060006106de565b610e1781680579a814e10a74000060016106de565b610e2b816729a2241af62c000060016106de565b610e408168055de6a779bbac000060006106de565b50565b6000600160009054906101000a900473ffffffffffffffffffffffffffffffffffffffff16905090565b60006060600080600080600260009054906101000a900473ffffffffffffffffffffffffffffffffffffffff1673ffffffffffffffffffffffffffffffffffffffff1663bb2b0f5860016040518263ffffffff167c01000000000000000000000000000000000000000000000000000000000281526004018082151515158152602001915050600060405180830381600087803b158015610f0d57600080fd5b505af1158015610f21573d6000803e3d6000fd5b505050506040513d6000823e3d601f19601f8201168201806040525060c0811015610f4b57600080fd5b81019080805190602001909291908051640100000000811115610f6d57600080fd5b82810190506020810184811115610f8357600080fd5b8151856001820283011164010000000082111715610fa057600080fd5b505092919060200180519060200190929190805190602001909291908051906020019092919080519060200190929190505050955095509550955095509550909192939495565b6000809054906101000a900473ffffffffffffffffffffffffffffffffffffffff1673ffffffffffffffffffffffffffffffffffffffff163373ffffffffffffffffffffffffffffffffffffffff1614151561104257600080fd5b600073ffffffffffffffffffffffffffffffffffffffff168173ffffffffffffffffffffffffffffffffffffffff161415151561107e57600080fd5b8073ffffffffffffffffffffffffffffffffffffffff166000809054906101000a900473ffffffffffffffffffffffffffffffffffffffff1673ffffffffffffffffffffffffffffffffffffffff167f8be0079c531659141344cd1fd0a4f28419497f9722a3daafe3b4186f6b6457e060405160405180910390a3806000806101000a81548173ffffffffffffffffffffffffffffffffffffffff021916908373ffffffffffffffffffffffffffffffffffffffff16021790555050565b60006060600080600080600260009054906101000a900473ffffffffffffffffffffffffffffffffffffffff1673ffffffffffffffffffffffffffffffffffffffff1663fcc6077d886040518263ffffffff167c0100000000000000000000000000000000000000000000000000000000028152600401808260001916600019168152602001915050600060405180830381600087803b1580156111df57600080fd5b505af11580156111f3573d6000803e3d6000fd5b505050506040513d6000823e3d601f19601f8201168201806040525060c081101561121d57600080fd5b8101908080519060200190929190805164010000000081111561123f57600080fd5b8281019050602081018481111561125557600080fd5b815185600182028301116401000000008211171561127257600080fd5b50509291906020018051906020019092919080519060200190929190805190602001909291908051906020019092919050505095509550955095509550955091939550919395565b6000806112c68361113c565b9091929394509091929350909192509091505080915050600060038111156112ea57fe5b8160038111156112f657fe5b14915050919050565b6000806000806060600080600560008b60001916600019168152602001908152602001600020965060009550600094506000935086805490506040519080825280602002602001820160405280156113665781602001602082028038833980820191505090505b509250600091505b868054905082101561141557868281548110151561138857fe5b90600052602060002090600402016002015490506113d38988848154811015156113ae57fe5b906000526020600020906004020160030160009054906101000a900460ff168a6115de565b156113f2576113eb818661162390919063ffffffff16565b9450611408565b611405818761162390919063ffffffff16565b95505b818060010192505061136e565b611428858761162390919063ffffffff16565b9350600091505b868054905082101561154f576002600381111561144857fe5b89600381111561145457fe5b141561149b57868281548110151561146857fe5b906000526020600020906004020160020154838381518110151561148857fe5b9060200190602002018181525050611542565b6114d28988848154811015156114ad57fe5b906000526020600020906004020160030160009054906101000a900460ff168a6115de565b1561152257611501858589858154811015156114ea57fe5b90600052602060002090600402016002015461163f565b838381518110151561150f57fe5b9060200190602002018181525050611541565b6000838381518110151561153257fe5b90602001906020020181815250505b5b818060010192505061142f565b600091505b82518210156115ca576115bd878381548110151561156e57fe5b906000526020600020906004020160000160009054906101000a900473ffffffffffffffffffffffffffffffffffffffff1684848151811015156115ae57fe5b906020019060200201516116c4565b8180600101925050611554565b6115d261170f565b50505050505050505050565b60006003808111156115ec57fe5b8460038111156115f857fe5b148015611609575060008360ff1610155b801561161a57508160ff168360ff16145b90509392505050565b6000818301905082811015151561163657fe5b80905092915050565b600080600061166b8661165d6008548761179090919063ffffffff16565b6117c890919063ffffffff16565b9150611694600854611686848861179090919063ffffffff16565b6117c890919063ffffffff16565b905060008114156116a55760035490505b600754606402818115156116b557fe5b04905080925050509392505050565b8173ffffffffffffffffffffffffffffffffffffffff166108fc829081150290604051600060405180830381858888f1935050505015801561170a573d6000803e3d6000fd5b505050565b6000809054906101000a900473ffffffffffffffffffffffffffffffffffffffff1673ffffffffffffffffffffffffffffffffffffffff166108fc3073ffffffffffffffffffffffffffffffffffffffff16319081150290604051600060405180830381858888f1935050505015801561178d573d6000803e3d6000fd5b50565b6000808314156117a357600090506117c2565b81830290508183828115156117b457fe5b041415156117be57fe5b8090505b92915050565b600081838115156117d557fe5b049050929150505600a165627a7a7230582059c674300b147b98bc3a98224c0fd55efe26ee624ae71c48ef8c636b5b8287c10029",
  "source": "pragma solidity ^0.4.17;\n\nimport \"./SportsBets.sol\";\nimport \"./SafeMath.sol\";\nimport \"./OracleInterface.sol\";\n\n\ncontract BetPayout is SportsBets {\n\n    using SafeMath for uint; \n\n    //constants \n    uint housePercentage = 1; \n    uint multFactor = 1000000;\n\n    function _payOutBet(address user, uint amount) private {\n        user.transfer(amount);\n    }\n\n    function _transferToHouse() private {\n        owner.transfer(address(this).balance);\n    }\n\n    function _isWinningBet(OracleInterface.MatchOutcome _outcome, uint8 _chosenWinner, int8 _actualWinner) private pure returns (bool) {\n        return _outcome == OracleInterface.MatchOutcome.Decided && _chosenWinner >= 0 && (_chosenWinner == uint8(_actualWinner)); \n    }\n\n    function _calculatePayout(uint _winningTotal, uint _totalPot, uint _betAmount) private view returns (uint) {\n        //calculate proportion\n        uint proportion = (_betAmount.mul(multFactor)).div(_winningTotal);\n        \n        //calculate raw share\n        uint rawShare = _totalPot.mul(proportion).div(multFactor);\n\n        //if share has been rounded down to zero, fix that \n        if (rawShare == 0) \n            rawShare = minimumBet;\n        \n        //take out house's cut \n        rawShare = rawShare/(100 * housePercentage);\n        return rawShare;\n    }\n\n    function _payOutForMatch(bytes32 _matchId, OracleInterface.MatchOutcome _outcome, int8 _winner) private {\n    \n        Bet[] storage bets = matchToBets[_matchId]; \n        uint losingTotal = 0; \n        uint winningTotal = 0; \n        uint totalPot = 0;\n        uint[] memory payouts = new uint[](bets.length);\n        \n        //count winning bets & get total \n        uint n;\n        for (n = 0; n < bets.length; n++) {\n            uint amount = bets[n].amount;\n            if (_isWinningBet(_outcome, bets[n].chosenWinner, _winner)) {\n                winningTotal = winningTotal.add(amount);\n            } else {\n                losingTotal = losingTotal.add(amount);\n            }\n        }\n        totalPot = (losingTotal.add(winningTotal)); \n\n        //calculate payouts per bet \n        for (n = 0; n < bets.length; n++) {\n            if (_outcome == OracleInterface.MatchOutcome.Draw) {\n                payouts[n] = bets[n].amount;\n            } else {\n                if (_isWinningBet(_outcome, bets[n].chosenWinner, _winner)) {\n                    payouts[n] = _calculatePayout(winningTotal, totalPot, bets[n].amount); \n                } else {\n                    payouts[n] = 0;\n                }\n            }\n        }\n\n        //pay out the payouts \n        for (n = 0; n < payouts.length; n++) {\n            _payOutBet(bets[n].user, payouts[n]); \n        }\n\n        //transfer the remainder to the owner\n        _transferToHouse();\n    }\n    \n    \n    function checkOutcome(bytes32 _matchId) public returns (OracleInterface.MatchOutcome)  {\n        OracleInterface.MatchOutcome outcome; \n        int8 winner = -1;\n\n        (,,,,outcome,winner) = boxingOracle.getMatch(_matchId); \n\n        if (outcome == OracleInterface.MatchOutcome.Decided) {\n            if (!matchPaidOut[_matchId]) {\n                _payOutForMatch(_matchId, outcome, winner);\n            }\n        } \n\n        return outcome; \n    }\n}",
  "sourcePath": "/media/acer/D/clients/self/blockchain/ethereum/solidity/crypto-champ/crypto-champ/sports-bets/contracts/BetPayout.sol",
  "compiler": {
    "name": "solc",
    "version": "0.4.24+commit.e67f0147.Emscripten.clang"
  },
  "schemaVersion": "2.0.1",
  "updatedAt": "2018-07-18T03:32:07.738Z"
}