{
  "contractName": "Main",
  "abi": [
    {
      "constant": true,
      "inputs": [],
      "name": "math1",
      "outputs": [
        {
          "name": "",
          "type": "uint256"
        }
      ],
      "payable": false,
      "stateMutability": "pure",
      "type": "function"
    },
    {
      "constant": true,
      "inputs": [],
      "name": "testOracleConnection",
      "outputs": [
        {
          "name": "",
          "type": "bool"
        }
      ],
      "payable": false,
      "stateMutability": "view",
      "type": "function"
    },
    {
      "constant": true,
      "inputs": [],
      "name": "getBettableMatches",
      "outputs": [
        {
          "name": "",
          "type": "bytes32[]"
        }
      ],
      "payable": false,
      "stateMutability": "view",
      "type": "function"
    },
    {
      "constant": false,
      "inputs": [
        {
          "name": "_matchId",
          "type": "bytes32"
        },
        {
          "name": "_amount",
          "type": "uint256"
        },
        {
          "name": "_outcome",
          "type": "uint8"
        }
      ],
      "name": "placeBet",
      "outputs": [],
      "payable": true,
      "stateMutability": "payable",
      "type": "function"
    },
    {
      "constant": false,
      "inputs": [
        {
          "name": "_oracleAddress",
          "type": "address"
        }
      ],
      "name": "setOracleAddress",
      "outputs": [
        {
          "name": "",
          "type": "bool"
        }
      ],
      "payable": false,
      "stateMutability": "nonpayable",
      "type": "function"
    },
    {
      "constant": false,
      "inputs": [
        {
          "name": "_matchId",
          "type": "bytes32"
        }
      ],
      "name": "checkOutcome",
      "outputs": [
        {
          "name": "",
          "type": "uint8"
        }
      ],
      "payable": false,
      "stateMutability": "nonpayable",
      "type": "function"
    },
    {
      "constant": true,
      "inputs": [],
      "name": "owner",
      "outputs": [
        {
          "name": "",
          "type": "address"
        }
      ],
      "payable": false,
      "stateMutability": "view",
      "type": "function"
    },
    {
      "constant": false,
      "inputs": [],
      "name": "addTestData",
      "outputs": [],
      "payable": false,
      "stateMutability": "nonpayable",
      "type": "function"
    },
    {
      "constant": true,
      "inputs": [],
      "name": "getOracleAddress",
      "outputs": [
        {
          "name": "",
          "type": "address"
        }
      ],
      "payable": false,
      "stateMutability": "view",
      "type": "function"
    },
    {
      "constant": true,
      "inputs": [],
      "name": "getMostRecentMatch",
      "outputs": [
        {
          "name": "id",
          "type": "bytes32"
        },
        {
          "name": "name",
          "type": "string"
        },
        {
          "name": "fighter1",
          "type": "string"
        },
        {
          "name": "fighter2",
          "type": "string"
        },
        {
          "name": "date",
          "type": "uint256"
        },
        {
          "name": "outcome",
          "type": "uint8"
        }
      ],
      "payable": false,
      "stateMutability": "view",
      "type": "function"
    },
    {
      "constant": false,
      "inputs": [
        {
          "name": "newOwner",
          "type": "address"
        }
      ],
      "name": "transferOwnership",
      "outputs": [],
      "payable": false,
      "stateMutability": "nonpayable",
      "type": "function"
    },
    {
      "constant": true,
      "inputs": [
        {
          "name": "_matchId",
          "type": "bytes32"
        }
      ],
      "name": "getMatch",
      "outputs": [
        {
          "name": "id",
          "type": "bytes32"
        },
        {
          "name": "name",
          "type": "string"
        },
        {
          "name": "fighter1",
          "type": "string"
        },
        {
          "name": "fighter2",
          "type": "string"
        },
        {
          "name": "date",
          "type": "uint256"
        },
        {
          "name": "outcome",
          "type": "uint8"
        }
      ],
      "payable": false,
      "stateMutability": "view",
      "type": "function"
    },
    {
      "anonymous": false,
      "inputs": [
        {
          "indexed": true,
          "name": "previousOwner",
          "type": "address"
        },
        {
          "indexed": true,
          "name": "newOwner",
          "type": "address"
        }
      ],
      "name": "OwnershipTransferred",
      "type": "event"
    }
  ],
  "bytecode": "0x608060405273345ca3e014aaf5dca488057592ee47305d9b3e10600160006101000a81548173ffffffffffffffffffffffffffffffffffffffff021916908373ffffffffffffffffffffffffffffffffffffffff160217905550600160009054906101000a900473ffffffffffffffffffffffffffffffffffffffff16600260006101000a81548173ffffffffffffffffffffffffffffffffffffffff021916908373ffffffffffffffffffffffffffffffffffffffff16021790555064e8d4a510006003556001600755620f4240600855336000806101000a81548173ffffffffffffffffffffffffffffffffffffffff021916908373ffffffffffffffffffffffffffffffffffffffff160217905550611bb5806101206000396000f3006080604052600436106100ba576000357c0100000000000000000000000000000000000000000000000000000000900463ffffffff1680630372b015146100bf5780632ce3707e146100ea5780633397741b146101195780633fbafb5e146101855780634c69c00f146101c057806352311c141461021b5780638da5cb5b1461026e578063a212b454146102c5578063b18b78dd146102dc578063ced1b70814610333578063f2fde38b146104c6578063fcc6077d14610509575b600080fd5b3480156100cb57600080fd5b506100d46106b6565b6040518082815260200191505060405180910390f35b3480156100f657600080fd5b506100ff6106dd565b604051808215151515815260200191505060405180910390f35b34801561012557600080fd5b5061012e6107a5565b6040518080602001828103825283818151815260200191508051906020019060200280838360005b83811015610171578082015181840152602081019050610156565b505050509050019250505060405180910390f35b6101be600480360381019080803560001916906020019092919080359060200190929190803560ff1690602001909291905050506108c3565b005b3480156101cc57600080fd5b50610201600480360381019080803573ffffffffffffffffffffffffffffffffffffffff169060200190929190505050610b63565b604051808215151515815260200191505060405180910390f35b34801561022757600080fd5b5061024a6004803603810190808035600019169060200190929190505050610d2c565b6040518082600381111561025a57fe5b60ff16815260200191505060405180910390f35b34801561027a57600080fd5b50610283610f94565b604051808273ffffffffffffffffffffffffffffffffffffffff1673ffffffffffffffffffffffffffffffffffffffff16815260200191505060405180910390f35b3480156102d157600080fd5b506102da610fb9565b005b3480156102e857600080fd5b506102f161109b565b604051808273ffffffffffffffffffffffffffffffffffffffff1673ffffffffffffffffffffffffffffffffffffffff16815260200191505060405180910390f35b34801561033f57600080fd5b506103486110c5565b60405180876000191660001916815260200180602001806020018060200186815260200185600381111561037857fe5b60ff168152602001848103845289818151815260200191508051906020019080838360005b838110156103b857808201518184015260208101905061039d565b50505050905090810190601f1680156103e55780820380516001836020036101000a031916815260200191505b50848103835288818151815260200191508051906020019080838360005b8381101561041e578082015181840152602081019050610403565b50505050905090810190601f16801561044b5780820380516001836020036101000a031916815260200191505b50848103825287818151815260200191508051906020019080838360005b83811015610484578082015181840152602081019050610469565b50505050905090810190601f1680156104b15780820380516001836020036101000a031916815260200191505b50995050505050505050505060405180910390f35b3480156104d257600080fd5b50610507600480360381019080803573ffffffffffffffffffffffffffffffffffffffff1690602001909291905050506112c9565b005b34801561051557600080fd5b50610538600480360381019080803560001916906020019092919050505061141e565b60405180876000191660001916815260200180602001806020018060200186815260200185600381111561056857fe5b60ff168152602001848103845289818151815260200191508051906020019080838360005b838110156105a857808201518184015260208101905061058d565b50505050905090810190601f1680156105d55780820380516001836020036101000a031916815260200191505b50848103835288818151815260200191508051906020019080838360005b8381101561060e5780820151818401526020810190506105f3565b50505050905090810190601f16801561063b5780820380516001836020036101000a031916815260200191505b50848103825287818151815260200191508051906020019080838360005b83811015610674578082015181840152602081019050610659565b50505050905090810190601f1680156106a15780820380516001836020036101000a031916815260200191505b50995050505050505050505060405180910390f35b6000806000600a9150600990506106d6818361162690919063ffffffff16565b9250505090565b6000600260009054906101000a900473ffffffffffffffffffffffffffffffffffffffff1673ffffffffffffffffffffffffffffffffffffffff16633412a15c6040518163ffffffff167c0100000000000000000000000000000000000000000000000000000000028152600401602060405180830381600087803b15801561076557600080fd5b505af1158015610779573d6000803e3d6000fd5b505050506040513d602081101561078f57600080fd5b8101908080519060200190929190505050905090565b6060600260009054906101000a900473ffffffffffffffffffffffffffffffffffffffff1673ffffffffffffffffffffffffffffffffffffffff16635f29d4b16040518163ffffffff167c0100000000000000000000000000000000000000000000000000000000028152600401600060405180830381600087803b15801561082d57600080fd5b505af1158015610841573d6000803e3d6000fd5b505050506040513d6000823e3d601f19601f82011682018060405250602081101561086b57600080fd5b81019080805164010000000081111561088357600080fd5b8281019050602081018481111561089957600080fd5b81518560208202830111640100000000821117156108b657600080fd5b5050929190505050905090565b60008060035484101515156108d757600080fd5b600260009054906101000a900473ffffffffffffffffffffffffffffffffffffffff1673ffffffffffffffffffffffffffffffffffffffff1663a9345240866040518263ffffffff167c0100000000000000000000000000000000000000000000000000000000028152600401808260001916600019168152602001915050602060405180830381600087803b15801561097057600080fd5b505af1158015610984573d6000803e3d6000fd5b505050506040513d602081101561099a57600080fd5b810190808051906020019092919050505015156109b657600080fd5b6109bf8561163c565b15156109ca57600080fd5b60056000866000191660001916815260200190815260200160002091506001826080604051908101604052803373ffffffffffffffffffffffffffffffffffffffff16815260200188600019168152602001878152602001866001811115610a2e57fe5b8152509080600181540180825580915050906001820390600052602060002090600402016000909192909190915060008201518160000160006101000a81548173ffffffffffffffffffffffffffffffffffffffff021916908373ffffffffffffffffffffffffffffffffffffffff160217905550602082015181600101906000191690556040820151816002015560608201518160030160006101000a81548160ff02191690836001811115610ae157fe5b021790555050505050600460003373ffffffffffffffffffffffffffffffffffffffff1673ffffffffffffffffffffffffffffffffffffffff1681526020019081526020016000209050808590806001815401808255809150509060018203906000526020600020016000909192909190915090600019169055505050505050565b60008060009054906101000a900473ffffffffffffffffffffffffffffffffffffffff1673ffffffffffffffffffffffffffffffffffffffff163373ffffffffffffffffffffffffffffffffffffffff16141515610bc057600080fd5b81600160006101000a81548173ffffffffffffffffffffffffffffffffffffffff021916908373ffffffffffffffffffffffffffffffffffffffff160217905550600160009054906101000a900473ffffffffffffffffffffffffffffffffffffffff16600260006101000a81548173ffffffffffffffffffffffffffffffffffffffff021916908373ffffffffffffffffffffffffffffffffffffffff160217905550600260009054906101000a900473ffffffffffffffffffffffffffffffffffffffff1673ffffffffffffffffffffffffffffffffffffffff16633412a15c6040518163ffffffff167c0100000000000000000000000000000000000000000000000000000000028152600401602060405180830381600087803b158015610cea57600080fd5b505af1158015610cfe573d6000803e3d6000fd5b505050506040513d6020811015610d1457600080fd5b81019080805190602001909291905050509050919050565b600080600260009054906101000a900473ffffffffffffffffffffffffffffffffffffffff1673ffffffffffffffffffffffffffffffffffffffff1663fcc6077d846040518263ffffffff167c0100000000000000000000000000000000000000000000000000000000028152600401808260001916600019168152602001915050600060405180830381600087803b158015610dc857600080fd5b505af1158015610ddc573d6000803e3d6000fd5b505050506040513d6000823e3d601f19601f8201168201806040525060c0811015610e0657600080fd5b81019080805190602001909291908051640100000000811115610e2857600080fd5b82810190506020810184811115610e3e57600080fd5b8151856001820283011164010000000082111715610e5b57600080fd5b50509291906020018051640100000000811115610e7757600080fd5b82810190506020810184811115610e8d57600080fd5b8151856001820283011164010000000082111715610eaa57600080fd5b50509291906020018051640100000000811115610ec657600080fd5b82810190506020810184811115610edc57600080fd5b8151856001820283011164010000000082111715610ef957600080fd5b5050929190602001805190602001909291908051906020019092919050505090919293945090919293509091925090915090508091505060006003811115610f3d57fe5b816003811115610f4957fe5b141515610f8b5760066000846000191660001916815260200190815260200160002060009054906101000a900460ff161515610f8a57610f898382611682565b5b5b80915050919050565b6000809054906101000a900473ffffffffffffffffffffffffffffffffffffffff1681565b60008060009054906101000a900473ffffffffffffffffffffffffffffffffffffffff1673ffffffffffffffffffffffffffffffffffffffff163373ffffffffffffffffffffffffffffffffffffffff1614151561101657600080fd5b61101e6110c5565b909192935090919250909150905050809150506110448166038d7ea4c6800060016108c3565b61105a8169021e19e0c9bab240000060016108c3565b61106f81680579a814e10a74000060016108c3565b611083816729a2241af62c000060006108c3565b6110988168055de6a779bbac000060006108c3565b50565b6000600160009054906101000a900473ffffffffffffffffffffffffffffffffffffffff16905090565b60006060806060600080600260009054906101000a900473ffffffffffffffffffffffffffffffffffffffff1673ffffffffffffffffffffffffffffffffffffffff1663bb2b0f5860016040518263ffffffff167c01000000000000000000000000000000000000000000000000000000000281526004018082151515158152602001915050600060405180830381600087803b15801561116557600080fd5b505af1158015611179573d6000803e3d6000fd5b505050506040513d6000823e3d601f19601f8201168201806040525060c08110156111a357600080fd5b810190808051906020019092919080516401000000008111156111c557600080fd5b828101905060208101848111156111db57600080fd5b81518560018202830111640100000000821117156111f857600080fd5b5050929190602001805164010000000081111561121457600080fd5b8281019050602081018481111561122a57600080fd5b815185600182028301116401000000008211171561124757600080fd5b5050929190602001805164010000000081111561126357600080fd5b8281019050602081018481111561127957600080fd5b815185600182028301116401000000008211171561129657600080fd5b50509291906020018051906020019092919080519060200190929190505050955095509550955095509550909192939495565b6000809054906101000a900473ffffffffffffffffffffffffffffffffffffffff1673ffffffffffffffffffffffffffffffffffffffff163373ffffffffffffffffffffffffffffffffffffffff1614151561132457600080fd5b600073ffffffffffffffffffffffffffffffffffffffff168173ffffffffffffffffffffffffffffffffffffffff161415151561136057600080fd5b8073ffffffffffffffffffffffffffffffffffffffff166000809054906101000a900473ffffffffffffffffffffffffffffffffffffffff1673ffffffffffffffffffffffffffffffffffffffff167f8be0079c531659141344cd1fd0a4f28419497f9722a3daafe3b4186f6b6457e060405160405180910390a3806000806101000a81548173ffffffffffffffffffffffffffffffffffffffff021916908373ffffffffffffffffffffffffffffffffffffffff16021790555050565b60006060806060600080600260009054906101000a900473ffffffffffffffffffffffffffffffffffffffff1673ffffffffffffffffffffffffffffffffffffffff1663fcc6077d886040518263ffffffff167c0100000000000000000000000000000000000000000000000000000000028152600401808260001916600019168152602001915050600060405180830381600087803b1580156114c157600080fd5b505af11580156114d5573d6000803e3d6000fd5b505050506040513d6000823e3d601f19601f8201168201806040525060c08110156114ff57600080fd5b8101908080519060200190929190805164010000000081111561152157600080fd5b8281019050602081018481111561153757600080fd5b815185600182028301116401000000008211171561155457600080fd5b5050929190602001805164010000000081111561157057600080fd5b8281019050602081018481111561158657600080fd5b81518560018202830111640100000000821117156115a357600080fd5b505092919060200180516401000000008111156115bf57600080fd5b828101905060208101848111156115d557600080fd5b81518560018202830111640100000000821117156115f257600080fd5b5050929190602001805190602001909291908051906020019092919050505095509550955095509550955091939550919395565b6000818381151561163357fe5b04905092915050565b6000806116488361141e565b9091929394509091929350909192509091509050809150506000600381111561166d57fe5b81600381111561167957fe5b14915050919050565b6000806000806060600080600560008a60001916600019168152602001908152602001600020965060009550600094506000935086805490506040519080825280602002602001820160405280156116e95781602001602082028038833980820191505090505b509250600091505b868054905082101561179757868281548110151561170b57fe5b9060005260206000209060040201600201549050611755878381548110151561173057fe5b906000526020600020906004020160030160009054906101000a900460ff168961195e565b156117745761176d81866119e490919063ffffffff16565b945061178a565b61178781876119e490919063ffffffff16565b95505b81806001019250506116f1565b6117aa85876119e490919063ffffffff16565b9350600091505b86805490508210156118d057600160038111156117ca57fe5b8860038111156117d657fe5b141561181d5786828154811015156117ea57fe5b906000526020600020906004020160020154838381518110151561180a57fe5b90602001906020020181815250506118c3565b611853878381548110151561182e57fe5b906000526020600020906004020160030160009054906101000a900460ff168961195e565b156118a3576118828585898581548110151561186b57fe5b906000526020600020906004020160020154611a00565b838381518110151561189057fe5b90602001906020020181815250506118c2565b600083838151811015156118b357fe5b90602001906020020181815250505b5b81806001019250506117b1565b600091505b825182101561194b5761193e87838154811015156118ef57fe5b906000526020600020906004020160000160009054906101000a900473ffffffffffffffffffffffffffffffffffffffff16848481518110151561192f57fe5b90602001906020020151611a85565b81806001019250506118d5565b611953611ad0565b505050505050505050565b600080600181111561196c57fe5b83600181111561197857fe5b14801561199b57506002600381111561198d57fe5b82600381111561199957fe5b145b806119dc57506001808111156119ad57fe5b8360018111156119b957fe5b1480156119db57506003808111156119cd57fe5b8260038111156119d957fe5b145b5b905092915050565b600081830190508281101515156119f757fe5b80905092915050565b6000806000611a2c86611a1e60085487611b5190919063ffffffff16565b61162690919063ffffffff16565b9150611a55600854611a478488611b5190919063ffffffff16565b61162690919063ffffffff16565b90506000811415611a665760035490505b60075460640281811515611a7657fe5b04905080925050509392505050565b8173ffffffffffffffffffffffffffffffffffffffff166108fc829081150290604051600060405180830381858888f19350505050158015611acb573d6000803e3d6000fd5b505050565b6000809054906101000a900473ffffffffffffffffffffffffffffffffffffffff1673ffffffffffffffffffffffffffffffffffffffff166108fc3073ffffffffffffffffffffffffffffffffffffffff16319081150290604051600060405180830381858888f19350505050158015611b4e573d6000803e3d6000fd5b50565b600080831415611b645760009050611b83565b8183029050818382811515611b7557fe5b04141515611b7f57fe5b8090505b929150505600a165627a7a72305820bc76d25ae35fd2e6f3da268bb8c7c977d3459982f92e1f499a2652f8cc622fb40029",
  "source": "pragma solidity ^0.4.17;\n\nimport \"./BetPayout.sol\";\n\n\n//TODO: make generic for any sporting event with multiple participants \n//TODO: stop accepting bets at some point \n\n/*\nPROBLEMS \n- owner is free to change out oracle at any time \n- who controls when betting is closed?\n- is it possible for owner to steal all the money before payout time? \n\n\nTEST: \ninstance.testOracleConnection()\ninstance.setOracleAddress()\ninstance.getOracleAddress()\ninstance.getBettableMatches()\ninstance.getMostRecentMatch()           \ninstance.getMatch(0)\ninstance.getMatch(\"\")\ninstance.placeBet(\"\", 0.001, 1)\ninstance.placeBet(\"\", 0.001, 0)\nplace duplicate bet \n\n*/\n\ncontract Main is BetPayout {}",
  "sourcePath": "/media/acer/D/clients/self/blockchain/ethereum/solidity/crypto-champ/crypto-champ/sports-bets/contracts/Main.sol",
  "compiler": {
    "name": "solc",
    "version": "0.4.24+commit.e67f0147.Emscripten.clang"
  },
  "schemaVersion": "2.0.1",
  "updatedAt": "2018-07-17T12:29:29.871Z"
}