{
  "contractName": "Main",
  "abi": [
    {
      "constant": false,
      "inputs": [
        {
          "name": "_matchId",
          "type": "bytes32"
        },
        {
          "name": "_chosenWinner",
          "type": "uint8"
        }
      ],
      "name": "placeBet",
      "outputs": [],
      "payable": true,
      "stateMutability": "payable",
      "type": "function"
    },
    {
      "constant": true,
      "inputs": [],
      "name": "getUserBets",
      "outputs": [
        {
          "name": "",
          "type": "bytes32[]"
        }
      ],
      "payable": false,
      "stateMutability": "view",
      "type": "function"
    },
    {
      "constant": false,
      "inputs": [],
      "name": "Disable",
      "outputs": [],
      "payable": false,
      "stateMutability": "nonpayable",
      "type": "function"
    },
    {
      "constant": true,
      "inputs": [],
      "name": "getMatches",
      "outputs": [
        {
          "name": "",
          "type": "bytes32[]"
        }
      ],
      "payable": false,
      "stateMutability": "view",
      "type": "function"
    },
    {
      "constant": true,
      "inputs": [],
      "name": "testOracleConnection",
      "outputs": [
        {
          "name": "",
          "type": "bool"
        }
      ],
      "payable": false,
      "stateMutability": "view",
      "type": "function"
    },
    {
      "constant": true,
      "inputs": [],
      "name": "getBettableMatches",
      "outputs": [
        {
          "name": "",
          "type": "bytes32[]"
        }
      ],
      "payable": false,
      "stateMutability": "view",
      "type": "function"
    },
    {
      "constant": false,
      "inputs": [
        {
          "name": "_oracleAddress",
          "type": "address"
        }
      ],
      "name": "setOracleAddress",
      "outputs": [
        {
          "name": "",
          "type": "bool"
        }
      ],
      "payable": false,
      "stateMutability": "nonpayable",
      "type": "function"
    },
    {
      "constant": false,
      "inputs": [
        {
          "name": "_matchId",
          "type": "bytes32"
        }
      ],
      "name": "checkOutcome",
      "outputs": [
        {
          "name": "",
          "type": "uint8"
        }
      ],
      "payable": false,
      "stateMutability": "nonpayable",
      "type": "function"
    },
    {
      "constant": true,
      "inputs": [
        {
          "name": "_matchId",
          "type": "bytes32"
        }
      ],
      "name": "getUserBet",
      "outputs": [
        {
          "name": "amount",
          "type": "uint256"
        },
        {
          "name": "winner",
          "type": "uint8"
        }
      ],
      "payable": false,
      "stateMutability": "view",
      "type": "function"
    },
    {
      "constant": true,
      "inputs": [],
      "name": "owner",
      "outputs": [
        {
          "name": "",
          "type": "address"
        }
      ],
      "payable": false,
      "stateMutability": "view",
      "type": "function"
    },
    {
      "constant": false,
      "inputs": [],
      "name": "Enable",
      "outputs": [],
      "payable": false,
      "stateMutability": "nonpayable",
      "type": "function"
    },
    {
      "constant": true,
      "inputs": [],
      "name": "getOracleAddress",
      "outputs": [
        {
          "name": "",
          "type": "address"
        }
      ],
      "payable": false,
      "stateMutability": "view",
      "type": "function"
    },
    {
      "constant": true,
      "inputs": [],
      "name": "getMostRecentMatch",
      "outputs": [
        {
          "name": "id",
          "type": "bytes32"
        },
        {
          "name": "name",
          "type": "string"
        },
        {
          "name": "participantCount",
          "type": "uint256"
        },
        {
          "name": "date",
          "type": "uint256"
        },
        {
          "name": "outcome",
          "type": "uint8"
        },
        {
          "name": "winner",
          "type": "int8"
        }
      ],
      "payable": false,
      "stateMutability": "view",
      "type": "function"
    },
    {
      "constant": false,
      "inputs": [
        {
          "name": "newOwner",
          "type": "address"
        }
      ],
      "name": "transferOwnership",
      "outputs": [],
      "payable": false,
      "stateMutability": "nonpayable",
      "type": "function"
    },
    {
      "constant": true,
      "inputs": [
        {
          "name": "_matchId",
          "type": "bytes32"
        }
      ],
      "name": "getMatch",
      "outputs": [
        {
          "name": "id",
          "type": "bytes32"
        },
        {
          "name": "name",
          "type": "string"
        },
        {
          "name": "participantCount",
          "type": "uint8"
        },
        {
          "name": "date",
          "type": "uint256"
        },
        {
          "name": "outcome",
          "type": "uint8"
        },
        {
          "name": "winner",
          "type": "int8"
        }
      ],
      "payable": false,
      "stateMutability": "view",
      "type": "function"
    },
    {
      "anonymous": false,
      "inputs": [
        {
          "indexed": true,
          "name": "previousOwner",
          "type": "address"
        },
        {
          "indexed": true,
          "name": "newOwner",
          "type": "address"
        }
      ],
      "name": "OwnershipTransferred",
      "type": "event"
    },
    {
      "constant": true,
      "inputs": [],
      "name": "getAddress",
      "outputs": [
        {
          "name": "",
          "type": "address"
        }
      ],
      "payable": false,
      "stateMutability": "view",
      "type": "function"
    }
  ],
  "bytecode": "0x608060405260008060146101000a81548160ff02191690831515021790555073132e2c9f752992d6dc48ec3d101e721654bb0754600160006101000a81548173ffffffffffffffffffffffffffffffffffffffff021916908373ffffffffffffffffffffffffffffffffffffffff160217905550600160009054906101000a900473ffffffffffffffffffffffffffffffffffffffff16600260006101000a81548173ffffffffffffffffffffffffffffffffffffffff021916908373ffffffffffffffffffffffffffffffffffffffff16021790555064e8d4a510006003556001600755620f4240600855336000806101000a81548173ffffffffffffffffffffffffffffffffffffffff021916908373ffffffffffffffffffffffffffffffffffffffff160217905550611f928061013a6000396000f3006080604052600436106100e6576000357c0100000000000000000000000000000000000000000000000000000000900463ffffffff1680630e52bb49146100eb57806312074a461461011c57806325a31135146101885780632c70120e1461019f5780632ce3707e1461020b5780633397741b1461023a57806338cc4831146102a65780634c69c00f146102fd57806352311c14146103585780635b910190146103ab5780638da5cb5b146103fd57806399c8055d14610454578063b18b78dd1461046b578063ced1b708146104c2578063f2fde38b14610591578063fcc6077d146105d4575b600080fd5b61011a6004803603810190808035600019169060200190929190803560ff1690602001909291905050506106c3565b005b34801561012857600080fd5b506101316109cb565b6040518080602001828103825283818151815260200191508051906020019060200280838360005b83811015610174578082015181840152602081019050610159565b505050509050019250505060405180910390f35b34801561019457600080fd5b5061019d610a64565b005b3480156101ab57600080fd5b506101b4610adc565b6040518080602001828103825283818151815260200191508051906020019060200280838360005b838110156101f75780820151818401526020810190506101dc565b505050509050019250505060405180910390f35b34801561021757600080fd5b50610220610bfa565b604051808215151515815260200191505060405180910390f35b34801561024657600080fd5b5061024f610cc2565b6040518080602001828103825283818151815260200191508051906020019060200280838360005b83811015610292578082015181840152602081019050610277565b505050509050019250505060405180910390f35b3480156102b257600080fd5b506102bb610de0565b604051808273ffffffffffffffffffffffffffffffffffffffff1673ffffffffffffffffffffffffffffffffffffffff16815260200191505060405180910390f35b34801561030957600080fd5b5061033e600480360381019080803573ffffffffffffffffffffffffffffffffffffffff169060200190929190505050610de8565b604051808215151515815260200191505060405180910390f35b34801561036457600080fd5b506103876004803603810190808035600019169060200190929190505050610fb1565b6040518082600381111561039757fe5b60ff16815260200191505060405180910390f35b3480156103b757600080fd5b506103da60048036038101908080356000191690602001909291905050506111d1565b604051808381526020018260ff1660ff1681526020019250505060405180910390f35b34801561040957600080fd5b506104126112f0565b604051808273ffffffffffffffffffffffffffffffffffffffff1673ffffffffffffffffffffffffffffffffffffffff16815260200191505060405180910390f35b34801561046057600080fd5b50610469611315565b005b34801561047757600080fd5b5061048061138c565b604051808273ffffffffffffffffffffffffffffffffffffffff1673ffffffffffffffffffffffffffffffffffffffff16815260200191505060405180910390f35b3480156104ce57600080fd5b506104d76113b6565b6040518087600019166000191681526020018060200186815260200185815260200184600381111561050557fe5b60ff1681526020018360000b60000b8152602001828103825287818151815260200191508051906020019080838360005b83811015610551578082015181840152602081019050610536565b50505050905090810190601f16801561057e5780820380516001836020036101000a031916815260200191505b5097505050505050505060405180910390f35b34801561059d57600080fd5b506105d2600480360381019080803573ffffffffffffffffffffffffffffffffffffffff169060200190929190505050611530565b005b3480156105e057600080fd5b506106036004803603810190808035600019169060200190929190505050611685565b604051808760001916600019168152602001806020018660ff1660ff16815260200185815260200184600381111561063757fe5b60ff1681526020018360000b60000b8152602001828103825287818151815260200191508051906020019080838360005b83811015610683578082015181840152602081019050610668565b50505050905090810190601f1680156106b05780820380516001836020036101000a031916815260200191505b5097505050505050505060405180910390f35b600080600060149054906101000a900460ff161515156106e257600080fd5b60035434101515156106f357600080fd5b600260009054906101000a900473ffffffffffffffffffffffffffffffffffffffff1673ffffffffffffffffffffffffffffffffffffffff1663a9345240856040518263ffffffff167c0100000000000000000000000000000000000000000000000000000000028152600401808260001916600019168152602001915050602060405180830381600087803b15801561078c57600080fd5b505af11580156107a0573d6000803e3d6000fd5b505050506040513d60208110156107b657600080fd5b810190808051906020019092919050505015156107d257600080fd5b6107dd338585611803565b15156107e857600080fd5b6107f184611a42565b15156107fc57600080fd5b3073ffffffffffffffffffffffffffffffffffffffff166108fc349081150290604051600060405180830381858888f19350505050158015610842573d6000803e3d6000fd5b5060056000856000191660001916815260200190815260200160002091506001826080604051908101604052803373ffffffffffffffffffffffffffffffffffffffff168152602001876000191681526020013481526020018660ff168152509080600181540180825580915050906001820390600052602060002090600402016000909192909190915060008201518160000160006101000a81548173ffffffffffffffffffffffffffffffffffffffff021916908373ffffffffffffffffffffffffffffffffffffffff160217905550602082015181600101906000191690556040820151816002015560608201518160030160006101000a81548160ff021916908360ff16021790555050505050600460003373ffffffffffffffffffffffffffffffffffffffff1673ffffffffffffffffffffffffffffffffffffffff16815260200190815260200160002090508084908060018154018082558091505090600182039060005260206000200160009091929091909150906000191690555050505050565b6060600460003373ffffffffffffffffffffffffffffffffffffffff1673ffffffffffffffffffffffffffffffffffffffff168152602001908152602001600020805480602002602001604051908101604052809291908181526020018280548015610a5a57602002820191906000526020600020905b81546000191681526020019060010190808311610a42575b5050505050905090565b6000809054906101000a900473ffffffffffffffffffffffffffffffffffffffff1673ffffffffffffffffffffffffffffffffffffffff163373ffffffffffffffffffffffffffffffffffffffff16141515610abf57600080fd5b6001600060146101000a81548160ff021916908315150217905550565b6060600260009054906101000a900473ffffffffffffffffffffffffffffffffffffffff1673ffffffffffffffffffffffffffffffffffffffff1663c17c5a456040518163ffffffff167c0100000000000000000000000000000000000000000000000000000000028152600401600060405180830381600087803b158015610b6457600080fd5b505af1158015610b78573d6000803e3d6000fd5b505050506040513d6000823e3d601f19601f820116820180604052506020811015610ba257600080fd5b810190808051640100000000811115610bba57600080fd5b82810190506020810184811115610bd057600080fd5b8151856020820283011164010000000082111715610bed57600080fd5b5050929190505050905090565b6000600260009054906101000a900473ffffffffffffffffffffffffffffffffffffffff1673ffffffffffffffffffffffffffffffffffffffff16633412a15c6040518163ffffffff167c0100000000000000000000000000000000000000000000000000000000028152600401602060405180830381600087803b158015610c8257600080fd5b505af1158015610c96573d6000803e3d6000fd5b505050506040513d6020811015610cac57600080fd5b8101908080519060200190929190505050905090565b6060600260009054906101000a900473ffffffffffffffffffffffffffffffffffffffff1673ffffffffffffffffffffffffffffffffffffffff16635f29d4b16040518163ffffffff167c0100000000000000000000000000000000000000000000000000000000028152600401600060405180830381600087803b158015610d4a57600080fd5b505af1158015610d5e573d6000803e3d6000fd5b505050506040513d6000823e3d601f19601f820116820180604052506020811015610d8857600080fd5b810190808051640100000000811115610da057600080fd5b82810190506020810184811115610db657600080fd5b8151856020820283011164010000000082111715610dd357600080fd5b5050929190505050905090565b600030905090565b60008060009054906101000a900473ffffffffffffffffffffffffffffffffffffffff1673ffffffffffffffffffffffffffffffffffffffff163373ffffffffffffffffffffffffffffffffffffffff16141515610e4557600080fd5b81600160006101000a81548173ffffffffffffffffffffffffffffffffffffffff021916908373ffffffffffffffffffffffffffffffffffffffff160217905550600160009054906101000a900473ffffffffffffffffffffffffffffffffffffffff16600260006101000a81548173ffffffffffffffffffffffffffffffffffffffff021916908373ffffffffffffffffffffffffffffffffffffffff160217905550600260009054906101000a900473ffffffffffffffffffffffffffffffffffffffff1673ffffffffffffffffffffffffffffffffffffffff16633412a15c6040518163ffffffff167c0100000000000000000000000000000000000000000000000000000000028152600401602060405180830381600087803b158015610f6f57600080fd5b505af1158015610f83573d6000803e3d6000fd5b505050506040513d6020811015610f9957600080fd5b81019080805190602001909291905050509050919050565b60008060008060149054906101000a900460ff16151515610fd157600080fd5b7fffffffffffffffffffffffffffffffffffffffffffffffffffffffffffffffff9050600260009054906101000a900473ffffffffffffffffffffffffffffffffffffffff1673ffffffffffffffffffffffffffffffffffffffff1663fcc6077d856040518263ffffffff167c0100000000000000000000000000000000000000000000000000000000028152600401808260001916600019168152602001915050600060405180830381600087803b15801561108d57600080fd5b505af11580156110a1573d6000803e3d6000fd5b505050506040513d6000823e3d601f19601f8201168201806040525060c08110156110cb57600080fd5b810190808051906020019092919080516401000000008111156110ed57600080fd5b8281019050602081018481111561110357600080fd5b815185600182028301116401000000008211171561112057600080fd5b505092919060200180519060200190929190805190602001909291908051906020019092919080519060200190929190505050909192939450909192935090919250909150809250819350505060038081111561117957fe5b82600381111561118557fe5b14156111c75760066000856000191660001916815260200190815260200160002060009054906101000a900460ff1615156111c6576111c5848383611a87565b5b5b8192505050919050565b6000806000806005600086600019166000191681526020019081526020016000209150600090505b81805490508110156112db573373ffffffffffffffffffffffffffffffffffffffff16828281548110151561122a57fe5b906000526020600020906004020160000160009054906101000a900473ffffffffffffffffffffffffffffffffffffffff1673ffffffffffffffffffffffffffffffffffffffff1614156112ce57818181548110151561128657fe5b90600052602060002090600402016002015482828154811015156112a657fe5b906000526020600020906004020160030160009054906101000a900460ff16935093506112e9565b80806001019150506111f9565b600080819150809050935093505b5050915091565b6000809054906101000a900473ffffffffffffffffffffffffffffffffffffffff1681565b6000809054906101000a900473ffffffffffffffffffffffffffffffffffffffff1673ffffffffffffffffffffffffffffffffffffffff163373ffffffffffffffffffffffffffffffffffffffff1614151561137057600080fd5b60008060146101000a81548160ff021916908315150217905550565b6000600160009054906101000a900473ffffffffffffffffffffffffffffffffffffffff16905090565b60006060600080600080600260009054906101000a900473ffffffffffffffffffffffffffffffffffffffff1673ffffffffffffffffffffffffffffffffffffffff1663bb2b0f5860016040518263ffffffff167c01000000000000000000000000000000000000000000000000000000000281526004018082151515158152602001915050600060405180830381600087803b15801561145657600080fd5b505af115801561146a573d6000803e3d6000fd5b505050506040513d6000823e3d601f19601f8201168201806040525060c081101561149457600080fd5b810190808051906020019092919080516401000000008111156114b657600080fd5b828101905060208101848111156114cc57600080fd5b81518560018202830111640100000000821117156114e957600080fd5b505092919060200180519060200190929190805190602001909291908051906020019092919080519060200190929190505050955095509550955095509550909192939495565b6000809054906101000a900473ffffffffffffffffffffffffffffffffffffffff1673ffffffffffffffffffffffffffffffffffffffff163373ffffffffffffffffffffffffffffffffffffffff1614151561158b57600080fd5b600073ffffffffffffffffffffffffffffffffffffffff168173ffffffffffffffffffffffffffffffffffffffff16141515156115c757600080fd5b8073ffffffffffffffffffffffffffffffffffffffff166000809054906101000a900473ffffffffffffffffffffffffffffffffffffffff1673ffffffffffffffffffffffffffffffffffffffff167f8be0079c531659141344cd1fd0a4f28419497f9722a3daafe3b4186f6b6457e060405160405180910390a3806000806101000a81548173ffffffffffffffffffffffffffffffffffffffff021916908373ffffffffffffffffffffffffffffffffffffffff16021790555050565b60006060600080600080600260009054906101000a900473ffffffffffffffffffffffffffffffffffffffff1673ffffffffffffffffffffffffffffffffffffffff1663fcc6077d886040518263ffffffff167c0100000000000000000000000000000000000000000000000000000000028152600401808260001916600019168152602001915050600060405180830381600087803b15801561172857600080fd5b505af115801561173c573d6000803e3d6000fd5b505050506040513d6000823e3d601f19601f8201168201806040525060c081101561176657600080fd5b8101908080519060200190929190805164010000000081111561178857600080fd5b8281019050602081018481111561179e57600080fd5b81518560018202830111640100000000821117156117bb57600080fd5b50509291906020018051906020019092919080519060200190929190805190602001909291908051906020019092919050505095509550955095509550955091939550919395565b600080600080600460008873ffffffffffffffffffffffffffffffffffffffff1673ffffffffffffffffffffffffffffffffffffffff16815260200190815260200160002092506000838054905011156118a757600091505b82805490508210156118a6578560001916838381548110151561187b57fe5b90600052602060002001546000191614156118995760009350611a38565b818060010192505061185c565b5b600260009054906101000a900473ffffffffffffffffffffffffffffffffffffffff1673ffffffffffffffffffffffffffffffffffffffff1663fcc6077d876040518263ffffffff167c0100000000000000000000000000000000000000000000000000000000028152600401808260001916600019168152602001915050600060405180830381600087803b15801561194057600080fd5b505af1158015611954573d6000803e3d6000fd5b505050506040513d6000823e3d601f19601f8201168201806040525060c081101561197e57600080fd5b810190808051906020019092919080516401000000008111156119a057600080fd5b828101905060208101848111156119b657600080fd5b81518560018202830111640100000000821117156119d357600080fd5b5050929190602001805190602001909291908051906020019092919080519060200190929190805190602001909291905050509091929394509091929350909150905050809150508060ff168560ff16101515611a335760009350611a38565b600193505b5050509392505050565b600080611a4e83611685565b909192939450909192935090919250909150508091505060006003811115611a7257fe5b816003811115611a7e57fe5b14915050919050565b6000806000806060600080600560008b6000191660001916815260200190815260200160002096506000955060009450600093508680549050604051908082528060200260200182016040528015611aee5781602001602082028038833980820191505090505b509250600091505b8680549050821015611b9d578682815481101515611b1057fe5b9060005260206000209060040201600201549050611b5b898884815481101515611b3657fe5b906000526020600020906004020160030160009054906101000a900460ff168a611d66565b15611b7a57611b738186611dab90919063ffffffff16565b9450611b90565b611b8d8187611dab90919063ffffffff16565b95505b8180600101925050611af6565b611bb08587611dab90919063ffffffff16565b9350600091505b8680549050821015611cd75760026003811115611bd057fe5b896003811115611bdc57fe5b1415611c23578682815481101515611bf057fe5b9060005260206000209060040201600201548383815181101515611c1057fe5b9060200190602002018181525050611cca565b611c5a898884815481101515611c3557fe5b906000526020600020906004020160030160009054906101000a900460ff168a611d66565b15611caa57611c8985858985815481101515611c7257fe5b906000526020600020906004020160020154611dc7565b8383815181101515611c9757fe5b9060200190602002018181525050611cc9565b60008383815181101515611cba57fe5b90602001906020020181815250505b5b8180600101925050611bb7565b600091505b8251821015611d5257611d458783815481101515611cf657fe5b906000526020600020906004020160000160009054906101000a900473ffffffffffffffffffffffffffffffffffffffff168484815181101515611d3657fe5b90602001906020020151611e4c565b8180600101925050611cdc565b611d5a611e97565b50505050505050505050565b6000600380811115611d7457fe5b846003811115611d8057fe5b148015611d91575060008360ff1610155b8015611da257508160ff168360ff16145b90509392505050565b60008183019050828110151515611dbe57fe5b80905092915050565b6000806000611df386611de560085487611f1890919063ffffffff16565b611f5090919063ffffffff16565b9150611e1c600854611e0e8488611f1890919063ffffffff16565b611f5090919063ffffffff16565b90506000811415611e2d5760035490505b60075460640281811515611e3d57fe5b04905080925050509392505050565b8173ffffffffffffffffffffffffffffffffffffffff166108fc829081150290604051600060405180830381858888f19350505050158015611e92573d6000803e3d6000fd5b505050565b6000809054906101000a900473ffffffffffffffffffffffffffffffffffffffff1673ffffffffffffffffffffffffffffffffffffffff166108fc3073ffffffffffffffffffffffffffffffffffffffff16319081150290604051600060405180830381858888f19350505050158015611f15573d6000803e3d6000fd5b50565b600080831415611f2b5760009050611f4a565b8183029050818382811515611f3c57fe5b04141515611f4657fe5b8090505b92915050565b60008183811515611f5d57fe5b049050929150505600a165627a7a72305820748c3fc2cb95a427301cd790db6574297a919cb3fafb27e99e0afefb9208bdd10029",
  "source": "pragma solidity ^0.4.17;\n\nimport \"./BetPayout.sol\";\n\n\n//TODO: add participant names \n//TODO: add function to get current pending bets & completed bets\n\n/*\nPROBLEMS \n- owner is free to change out oracle at any time \n- who controls when betting is closed?\n- is it possible for owner to steal all the money before payout time? \n\n\nTEST: \ninstance.testOracleConnection()\ninstance.setOracleAddress()\ninstance.getOracleAddress()\ninstance.getBettableMatches()\ninstance.getMostRecentMatch()           \ninstance.getMatch(0)\ninstance.getMatch(\"\")\ninstance.placeBet(\"\", 0.001, 1)\ninstance.placeBet(\"\", 0.001, 0)\nplace duplicate bet \n\n*/\n\ncontract Main is BetPayout {\n\n    /// @notice gets the address of this contract \n    /// @return address \n    function getAddress() public view returns (address) {\n        return this;\n    }\n}",
  "sourcePath": "/media/acer/D/clients/self/blockchain/ethereum/solidity/crypto-champ/crypto-champ/sports-bets/contracts/Main.sol",
  "compiler": {
    "name": "solc",
    "version": "0.4.24+commit.e67f0147.Emscripten.clang"
  },
  "schemaVersion": "2.0.1",
  "updatedAt": "2018-07-19T12:10:24.394Z"
}