{
  "contractName": "Main",
  "abi": [
    {
      "constant": true,
      "inputs": [],
      "name": "testOracleConnection",
      "outputs": [
        {
          "name": "",
          "type": "bool"
        }
      ],
      "payable": false,
      "stateMutability": "view",
      "type": "function"
    },
    {
      "constant": true,
      "inputs": [],
      "name": "getBettableMatches",
      "outputs": [
        {
          "name": "",
          "type": "bytes32[]"
        }
      ],
      "payable": false,
      "stateMutability": "view",
      "type": "function"
    },
    {
      "constant": false,
      "inputs": [
        {
          "name": "_matchId",
          "type": "bytes32"
        },
        {
          "name": "_amount",
          "type": "uint256"
        },
        {
          "name": "_chosenWinner",
          "type": "uint8"
        }
      ],
      "name": "placeBet",
      "outputs": [],
      "payable": true,
      "stateMutability": "payable",
      "type": "function"
    },
    {
      "constant": false,
      "inputs": [
        {
          "name": "_oracleAddress",
          "type": "address"
        }
      ],
      "name": "setOracleAddress",
      "outputs": [
        {
          "name": "",
          "type": "bool"
        }
      ],
      "payable": false,
      "stateMutability": "nonpayable",
      "type": "function"
    },
    {
      "constant": false,
      "inputs": [
        {
          "name": "_matchId",
          "type": "bytes32"
        }
      ],
      "name": "checkOutcome",
      "outputs": [
        {
          "name": "",
          "type": "uint8"
        }
      ],
      "payable": false,
      "stateMutability": "nonpayable",
      "type": "function"
    },
    {
      "constant": true,
      "inputs": [],
      "name": "owner",
      "outputs": [
        {
          "name": "",
          "type": "address"
        }
      ],
      "payable": false,
      "stateMutability": "view",
      "type": "function"
    },
    {
      "constant": false,
      "inputs": [],
      "name": "addTestData",
      "outputs": [],
      "payable": false,
      "stateMutability": "nonpayable",
      "type": "function"
    },
    {
      "constant": true,
      "inputs": [],
      "name": "getOracleAddress",
      "outputs": [
        {
          "name": "",
          "type": "address"
        }
      ],
      "payable": false,
      "stateMutability": "view",
      "type": "function"
    },
    {
      "constant": true,
      "inputs": [],
      "name": "getMostRecentMatch",
      "outputs": [
        {
          "name": "id",
          "type": "bytes32"
        },
        {
          "name": "name",
          "type": "string"
        },
        {
          "name": "participantCount",
          "type": "uint256"
        },
        {
          "name": "date",
          "type": "uint256"
        },
        {
          "name": "outcome",
          "type": "uint8"
        },
        {
          "name": "winner",
          "type": "int8"
        }
      ],
      "payable": false,
      "stateMutability": "view",
      "type": "function"
    },
    {
      "constant": false,
      "inputs": [
        {
          "name": "newOwner",
          "type": "address"
        }
      ],
      "name": "transferOwnership",
      "outputs": [],
      "payable": false,
      "stateMutability": "nonpayable",
      "type": "function"
    },
    {
      "constant": true,
      "inputs": [
        {
          "name": "_matchId",
          "type": "bytes32"
        }
      ],
      "name": "getMatch",
      "outputs": [
        {
          "name": "id",
          "type": "bytes32"
        },
        {
          "name": "name",
          "type": "string"
        },
        {
          "name": "participantCount",
          "type": "uint256"
        },
        {
          "name": "date",
          "type": "uint256"
        },
        {
          "name": "outcome",
          "type": "uint8"
        },
        {
          "name": "winner",
          "type": "int8"
        }
      ],
      "payable": false,
      "stateMutability": "view",
      "type": "function"
    },
    {
      "anonymous": false,
      "inputs": [
        {
          "indexed": true,
          "name": "previousOwner",
          "type": "address"
        },
        {
          "indexed": true,
          "name": "newOwner",
          "type": "address"
        }
      ],
      "name": "OwnershipTransferred",
      "type": "event"
    },
    {
      "constant": true,
      "inputs": [],
      "name": "getAddress",
      "outputs": [
        {
          "name": "",
          "type": "address"
        }
      ],
      "payable": false,
      "stateMutability": "view",
      "type": "function"
    }
  ],
  "bytecode": "0x608060405273a5f7019754316b93d5e14d85fbd29e2477124dae600160006101000a81548173ffffffffffffffffffffffffffffffffffffffff021916908373ffffffffffffffffffffffffffffffffffffffff160217905550600160009054906101000a900473ffffffffffffffffffffffffffffffffffffffff16600260006101000a81548173ffffffffffffffffffffffffffffffffffffffff021916908373ffffffffffffffffffffffffffffffffffffffff16021790555064e8d4a510006003556001600755620f4240600855336000806101000a81548173ffffffffffffffffffffffffffffffffffffffff021916908373ffffffffffffffffffffffffffffffffffffffff160217905550611874806101206000396000f3006080604052600436106100ba576000357c0100000000000000000000000000000000000000000000000000000000900463ffffffff1680632ce3707e146100bf5780633397741b146100ee57806338cc48311461015a5780633fbafb5e146101b15780634c69c00f146101ec57806352311c14146102475780638da5cb5b1461029a578063a212b454146102f1578063b18b78dd14610308578063ced1b7081461035f578063f2fde38b1461042e578063fcc6077d14610471575b600080fd5b3480156100cb57600080fd5b506100d461055a565b604051808215151515815260200191505060405180910390f35b3480156100fa57600080fd5b50610103610622565b6040518080602001828103825283818151815260200191508051906020019060200280838360005b8381101561014657808201518184015260208101905061012b565b505050509050019250505060405180910390f35b34801561016657600080fd5b5061016f610740565b604051808273ffffffffffffffffffffffffffffffffffffffff1673ffffffffffffffffffffffffffffffffffffffff16815260200191505060405180910390f35b6101ea600480360381019080803560001916906020019092919080359060200190929190803560ff169060200190929190505050610748565b005b3480156101f857600080fd5b5061022d600480360381019080803573ffffffffffffffffffffffffffffffffffffffff1690602001909291905050506109d8565b604051808215151515815260200191505060405180910390f35b34801561025357600080fd5b506102766004803603810190808035600019169060200190929190505050610ba1565b6040518082600381111561028657fe5b60ff16815260200191505060405180910390f35b3480156102a657600080fd5b506102af610da6565b604051808273ffffffffffffffffffffffffffffffffffffffff1673ffffffffffffffffffffffffffffffffffffffff16815260200191505060405180910390f35b3480156102fd57600080fd5b50610306610dcb565b005b34801561031457600080fd5b5061031d610ead565b604051808273ffffffffffffffffffffffffffffffffffffffff1673ffffffffffffffffffffffffffffffffffffffff16815260200191505060405180910390f35b34801561036b57600080fd5b50610374610ed7565b604051808760001916600019168152602001806020018681526020018581526020018460038111156103a257fe5b60ff1681526020018360000b60000b8152602001828103825287818151815260200191508051906020019080838360005b838110156103ee5780820151818401526020810190506103d3565b50505050905090810190601f16801561041b5780820380516001836020036101000a031916815260200191505b5097505050505050505060405180910390f35b34801561043a57600080fd5b5061046f600480360381019080803573ffffffffffffffffffffffffffffffffffffffff169060200190929190505050611051565b005b34801561047d57600080fd5b506104a060048036038101908080356000191690602001909291905050506111a6565b604051808760001916600019168152602001806020018681526020018581526020018460038111156104ce57fe5b60ff1681526020018360000b60000b8152602001828103825287818151815260200191508051906020019080838360005b8381101561051a5780820151818401526020810190506104ff565b50505050905090810190601f1680156105475780820380516001836020036101000a031916815260200191505b5097505050505050505060405180910390f35b6000600260009054906101000a900473ffffffffffffffffffffffffffffffffffffffff1673ffffffffffffffffffffffffffffffffffffffff16633412a15c6040518163ffffffff167c0100000000000000000000000000000000000000000000000000000000028152600401602060405180830381600087803b1580156105e257600080fd5b505af11580156105f6573d6000803e3d6000fd5b505050506040513d602081101561060c57600080fd5b8101908080519060200190929190505050905090565b6060600260009054906101000a900473ffffffffffffffffffffffffffffffffffffffff1673ffffffffffffffffffffffffffffffffffffffff16635f29d4b16040518163ffffffff167c0100000000000000000000000000000000000000000000000000000000028152600401600060405180830381600087803b1580156106aa57600080fd5b505af11580156106be573d6000803e3d6000fd5b505050506040513d6000823e3d601f19601f8201168201806040525060208110156106e857600080fd5b81019080805164010000000081111561070057600080fd5b8281019050602081018481111561071657600080fd5b815185602082028301116401000000008211171561073357600080fd5b5050929190505050905090565b600030905090565b600080600354841015151561075c57600080fd5b600260009054906101000a900473ffffffffffffffffffffffffffffffffffffffff1673ffffffffffffffffffffffffffffffffffffffff1663a9345240866040518263ffffffff167c0100000000000000000000000000000000000000000000000000000000028152600401808260001916600019168152602001915050602060405180830381600087803b1580156107f557600080fd5b505af1158015610809573d6000803e3d6000fd5b505050506040513d602081101561081f57600080fd5b8101908080519060200190929190505050151561083b57600080fd5b61084485611324565b151561084f57600080fd5b60056000866000191660001916815260200190815260200160002091506001826080604051908101604052803373ffffffffffffffffffffffffffffffffffffffff168152602001886000191681526020018781526020018660ff168152509080600181540180825580915050906001820390600052602060002090600402016000909192909190915060008201518160000160006101000a81548173ffffffffffffffffffffffffffffffffffffffff021916908373ffffffffffffffffffffffffffffffffffffffff160217905550602082015181600101906000191690556040820151816002015560608201518160030160006101000a81548160ff021916908360ff16021790555050505050600460003373ffffffffffffffffffffffffffffffffffffffff1673ffffffffffffffffffffffffffffffffffffffff1681526020019081526020016000209050808590806001815401808255809150509060018203906000526020600020016000909192909190915090600019169055505050505050565b60008060009054906101000a900473ffffffffffffffffffffffffffffffffffffffff1673ffffffffffffffffffffffffffffffffffffffff163373ffffffffffffffffffffffffffffffffffffffff16141515610a3557600080fd5b81600160006101000a81548173ffffffffffffffffffffffffffffffffffffffff021916908373ffffffffffffffffffffffffffffffffffffffff160217905550600160009054906101000a900473ffffffffffffffffffffffffffffffffffffffff16600260006101000a81548173ffffffffffffffffffffffffffffffffffffffff021916908373ffffffffffffffffffffffffffffffffffffffff160217905550600260009054906101000a900473ffffffffffffffffffffffffffffffffffffffff1673ffffffffffffffffffffffffffffffffffffffff16633412a15c6040518163ffffffff167c0100000000000000000000000000000000000000000000000000000000028152600401602060405180830381600087803b158015610b5f57600080fd5b505af1158015610b73573d6000803e3d6000fd5b505050506040513d6020811015610b8957600080fd5b81019080805190602001909291905050509050919050565b60008060007fffffffffffffffffffffffffffffffffffffffffffffffffffffffffffffffff9050600260009054906101000a900473ffffffffffffffffffffffffffffffffffffffff1673ffffffffffffffffffffffffffffffffffffffff1663fcc6077d856040518263ffffffff167c0100000000000000000000000000000000000000000000000000000000028152600401808260001916600019168152602001915050600060405180830381600087803b158015610c6257600080fd5b505af1158015610c76573d6000803e3d6000fd5b505050506040513d6000823e3d601f19601f8201168201806040525060c0811015610ca057600080fd5b81019080805190602001909291908051640100000000811115610cc257600080fd5b82810190506020810184811115610cd857600080fd5b8151856001820283011164010000000082111715610cf557600080fd5b5050929190602001805190602001909291908051906020019092919080519060200190929190805190602001909291905050509091929394509091929350909192509091508092508193505050600380811115610d4e57fe5b826003811115610d5a57fe5b1415610d9c5760066000856000191660001916815260200190815260200160002060009054906101000a900460ff161515610d9b57610d9a848383611369565b5b5b8192505050919050565b6000809054906101000a900473ffffffffffffffffffffffffffffffffffffffff1681565b60008060009054906101000a900473ffffffffffffffffffffffffffffffffffffffff1673ffffffffffffffffffffffffffffffffffffffff163373ffffffffffffffffffffffffffffffffffffffff16141515610e2857600080fd5b610e30610ed7565b90919293509091925090915090505080915050610e568166038d7ea4c680006001610748565b610e6c8169021e19e0c9bab24000006000610748565b610e8181680579a814e10a7400006001610748565b610e95816729a2241af62c00006001610748565b610eaa8168055de6a779bbac00006000610748565b50565b6000600160009054906101000a900473ffffffffffffffffffffffffffffffffffffffff16905090565b60006060600080600080600260009054906101000a900473ffffffffffffffffffffffffffffffffffffffff1673ffffffffffffffffffffffffffffffffffffffff1663bb2b0f5860016040518263ffffffff167c01000000000000000000000000000000000000000000000000000000000281526004018082151515158152602001915050600060405180830381600087803b158015610f7757600080fd5b505af1158015610f8b573d6000803e3d6000fd5b505050506040513d6000823e3d601f19601f8201168201806040525060c0811015610fb557600080fd5b81019080805190602001909291908051640100000000811115610fd757600080fd5b82810190506020810184811115610fed57600080fd5b815185600182028301116401000000008211171561100a57600080fd5b505092919060200180519060200190929190805190602001909291908051906020019092919080519060200190929190505050955095509550955095509550909192939495565b6000809054906101000a900473ffffffffffffffffffffffffffffffffffffffff1673ffffffffffffffffffffffffffffffffffffffff163373ffffffffffffffffffffffffffffffffffffffff161415156110ac57600080fd5b600073ffffffffffffffffffffffffffffffffffffffff168173ffffffffffffffffffffffffffffffffffffffff16141515156110e857600080fd5b8073ffffffffffffffffffffffffffffffffffffffff166000809054906101000a900473ffffffffffffffffffffffffffffffffffffffff1673ffffffffffffffffffffffffffffffffffffffff167f8be0079c531659141344cd1fd0a4f28419497f9722a3daafe3b4186f6b6457e060405160405180910390a3806000806101000a81548173ffffffffffffffffffffffffffffffffffffffff021916908373ffffffffffffffffffffffffffffffffffffffff16021790555050565b60006060600080600080600260009054906101000a900473ffffffffffffffffffffffffffffffffffffffff1673ffffffffffffffffffffffffffffffffffffffff1663fcc6077d886040518263ffffffff167c0100000000000000000000000000000000000000000000000000000000028152600401808260001916600019168152602001915050600060405180830381600087803b15801561124957600080fd5b505af115801561125d573d6000803e3d6000fd5b505050506040513d6000823e3d601f19601f8201168201806040525060c081101561128757600080fd5b810190808051906020019092919080516401000000008111156112a957600080fd5b828101905060208101848111156112bf57600080fd5b81518560018202830111640100000000821117156112dc57600080fd5b50509291906020018051906020019092919080519060200190929190805190602001909291908051906020019092919050505095509550955095509550955091939550919395565b600080611330836111a6565b90919293945090919293509091925090915050809150506000600381111561135457fe5b81600381111561136057fe5b14915050919050565b6000806000806060600080600560008b60001916600019168152602001908152602001600020965060009550600094506000935086805490506040519080825280602002602001820160405280156113d05781602001602082028038833980820191505090505b509250600091505b868054905082101561147f5786828154811015156113f257fe5b906000526020600020906004020160020154905061143d89888481548110151561141857fe5b906000526020600020906004020160030160009054906101000a900460ff168a611648565b1561145c57611455818661168d90919063ffffffff16565b9450611472565b61146f818761168d90919063ffffffff16565b95505b81806001019250506113d8565b611492858761168d90919063ffffffff16565b9350600091505b86805490508210156115b957600260038111156114b257fe5b8960038111156114be57fe5b14156115055786828154811015156114d257fe5b90600052602060002090600402016002015483838151811015156114f257fe5b90602001906020020181815250506115ac565b61153c89888481548110151561151757fe5b906000526020600020906004020160030160009054906101000a900460ff168a611648565b1561158c5761156b8585898581548110151561155457fe5b9060005260206000209060040201600201546116a9565b838381518110151561157957fe5b90602001906020020181815250506115ab565b6000838381518110151561159c57fe5b90602001906020020181815250505b5b8180600101925050611499565b600091505b82518210156116345761162787838154811015156115d857fe5b906000526020600020906004020160000160009054906101000a900473ffffffffffffffffffffffffffffffffffffffff16848481518110151561161857fe5b9060200190602002015161172e565b81806001019250506115be565b61163c611779565b50505050505050505050565b600060038081111561165657fe5b84600381111561166257fe5b148015611673575060008360ff1610155b801561168457508160ff168360ff16145b90509392505050565b600081830190508281101515156116a057fe5b80905092915050565b60008060006116d5866116c7600854876117fa90919063ffffffff16565b61183290919063ffffffff16565b91506116fe6008546116f084886117fa90919063ffffffff16565b61183290919063ffffffff16565b9050600081141561170f5760035490505b6007546064028181151561171f57fe5b04905080925050509392505050565b8173ffffffffffffffffffffffffffffffffffffffff166108fc829081150290604051600060405180830381858888f19350505050158015611774573d6000803e3d6000fd5b505050565b6000809054906101000a900473ffffffffffffffffffffffffffffffffffffffff1673ffffffffffffffffffffffffffffffffffffffff166108fc3073ffffffffffffffffffffffffffffffffffffffff16319081150290604051600060405180830381858888f193505050501580156117f7573d6000803e3d6000fd5b50565b60008083141561180d576000905061182c565b818302905081838281151561181e57fe5b0414151561182857fe5b8090505b92915050565b6000818381151561183f57fe5b049050929150505600a165627a7a72305820c83be4a2a227d88da3f7affa7dc80009d371135a23716b82eb7147c37325f1a30029",
  "source": "pragma solidity ^0.4.17;\n\nimport \"./BetPayout.sol\";\n\n\n//TODO: add participant names \n//TODO: add function to get current pending bets & completed bets\n\n/*\nPROBLEMS \n- owner is free to change out oracle at any time \n- who controls when betting is closed?\n- is it possible for owner to steal all the money before payout time? \n\n\nTEST: \ninstance.testOracleConnection()\ninstance.setOracleAddress()\ninstance.getOracleAddress()\ninstance.getBettableMatches()\ninstance.getMostRecentMatch()           \ninstance.getMatch(0)\ninstance.getMatch(\"\")\ninstance.placeBet(\"\", 0.001, 1)\ninstance.placeBet(\"\", 0.001, 0)\nplace duplicate bet \n\n*/\n\ncontract Main is BetPayout {\n\n    /// @notice gets the address of this contract \n    /// @return address \n    function getAddress() public view returns (address) {\n        return this;\n    }\n}",
  "sourcePath": "/media/acer/D/clients/self/blockchain/ethereum/solidity/crypto-champ/crypto-champ/sports-bets/contracts/Main.sol",
  "compiler": {
    "name": "solc",
    "version": "0.4.24+commit.e67f0147.Emscripten.clang"
  },
  "schemaVersion": "2.0.1",
  "updatedAt": "2018-07-18T03:32:42.342Z"
}