{
  "contractName": "SportsBets",
  "abi": [
    {
      "constant": false,
      "inputs": [],
      "name": "Disable",
      "outputs": [],
      "payable": false,
      "stateMutability": "nonpayable",
      "type": "function"
    },
    {
      "constant": true,
      "inputs": [],
      "name": "owner",
      "outputs": [
        {
          "name": "",
          "type": "address"
        }
      ],
      "payable": false,
      "stateMutability": "view",
      "type": "function"
    },
    {
      "constant": false,
      "inputs": [],
      "name": "Enable",
      "outputs": [],
      "payable": false,
      "stateMutability": "nonpayable",
      "type": "function"
    },
    {
      "constant": false,
      "inputs": [
        {
          "name": "newOwner",
          "type": "address"
        }
      ],
      "name": "transferOwnership",
      "outputs": [],
      "payable": false,
      "stateMutability": "nonpayable",
      "type": "function"
    },
    {
      "anonymous": false,
      "inputs": [
        {
          "indexed": true,
          "name": "previousOwner",
          "type": "address"
        },
        {
          "indexed": true,
          "name": "newOwner",
          "type": "address"
        }
      ],
      "name": "OwnershipTransferred",
      "type": "event"
    },
    {
      "constant": false,
      "inputs": [
        {
          "name": "_oracleAddress",
          "type": "address"
        }
      ],
      "name": "setOracleAddress",
      "outputs": [
        {
          "name": "",
          "type": "bool"
        }
      ],
      "payable": false,
      "stateMutability": "nonpayable",
      "type": "function"
    },
    {
      "constant": true,
      "inputs": [],
      "name": "getOracleAddress",
      "outputs": [
        {
          "name": "",
          "type": "address"
        }
      ],
      "payable": false,
      "stateMutability": "view",
      "type": "function"
    },
    {
      "constant": true,
      "inputs": [],
      "name": "getBettableMatches",
      "outputs": [
        {
          "name": "",
          "type": "bytes32[]"
        }
      ],
      "payable": false,
      "stateMutability": "view",
      "type": "function"
    },
    {
      "constant": true,
      "inputs": [],
      "name": "getMatches",
      "outputs": [
        {
          "name": "",
          "type": "bytes32[]"
        }
      ],
      "payable": false,
      "stateMutability": "view",
      "type": "function"
    },
    {
      "constant": true,
      "inputs": [
        {
          "name": "_matchId",
          "type": "bytes32"
        }
      ],
      "name": "getMatch",
      "outputs": [
        {
          "name": "id",
          "type": "bytes32"
        },
        {
          "name": "name",
          "type": "string"
        },
        {
          "name": "participantCount",
          "type": "uint8"
        },
        {
          "name": "date",
          "type": "uint256"
        },
        {
          "name": "outcome",
          "type": "uint8"
        },
        {
          "name": "winner",
          "type": "int8"
        }
      ],
      "payable": false,
      "stateMutability": "view",
      "type": "function"
    },
    {
      "constant": true,
      "inputs": [],
      "name": "getMostRecentMatch",
      "outputs": [
        {
          "name": "id",
          "type": "bytes32"
        },
        {
          "name": "name",
          "type": "string"
        },
        {
          "name": "participantCount",
          "type": "uint256"
        },
        {
          "name": "date",
          "type": "uint256"
        },
        {
          "name": "outcome",
          "type": "uint8"
        },
        {
          "name": "winner",
          "type": "int8"
        }
      ],
      "payable": false,
      "stateMutability": "view",
      "type": "function"
    },
    {
      "constant": true,
      "inputs": [],
      "name": "getUserBets",
      "outputs": [
        {
          "name": "",
          "type": "bytes32[]"
        }
      ],
      "payable": false,
      "stateMutability": "view",
      "type": "function"
    },
    {
      "constant": true,
      "inputs": [
        {
          "name": "_matchId",
          "type": "bytes32"
        }
      ],
      "name": "getUserBet",
      "outputs": [
        {
          "name": "amount",
          "type": "uint256"
        },
        {
          "name": "winner",
          "type": "uint8"
        }
      ],
      "payable": false,
      "stateMutability": "view",
      "type": "function"
    },
    {
      "constant": false,
      "inputs": [
        {
          "name": "_matchId",
          "type": "bytes32"
        },
        {
          "name": "_chosenWinner",
          "type": "uint8"
        }
      ],
      "name": "placeBet",
      "outputs": [],
      "payable": true,
      "stateMutability": "payable",
      "type": "function"
    },
    {
      "constant": true,
      "inputs": [],
      "name": "testOracleConnection",
      "outputs": [
        {
          "name": "",
          "type": "bool"
        }
      ],
      "payable": false,
      "stateMutability": "view",
      "type": "function"
    }
  ],
  "bytecode": "0x608060405260008060146101000a81548160ff02191690831515021790555073ebf3c3b116fc39b05a4b6e24acb3c7c5e604d07b600160006101000a81548173ffffffffffffffffffffffffffffffffffffffff021916908373ffffffffffffffffffffffffffffffffffffffff160217905550600160009054906101000a900473ffffffffffffffffffffffffffffffffffffffff16600260006101000a81548173ffffffffffffffffffffffffffffffffffffffff021916908373ffffffffffffffffffffffffffffffffffffffff16021790555064e8d4a51000600355336000806101000a81548173ffffffffffffffffffffffffffffffffffffffff021916908373ffffffffffffffffffffffffffffffffffffffff1602179055506117848061012e6000396000f3006080604052600436106100d0576000357c0100000000000000000000000000000000000000000000000000000000900463ffffffff1680630e52bb49146100d557806312074a461461010657806325a31135146101725780632c70120e146101895780632ce3707e146101f55780633397741b146102245780634c69c00f146102905780635b910190146102eb5780638da5cb5b1461033d57806399c8055d14610394578063b18b78dd146103ab578063ced1b70814610402578063f2fde38b146104d1578063fcc6077d14610514575b600080fd5b6101046004803603810190808035600019169060200190929190803560ff169060200190929190505050610603565b005b34801561011257600080fd5b5061011b6108c4565b6040518080602001828103825283818151815260200191508051906020019060200280838360005b8381101561015e578082015181840152602081019050610143565b505050509050019250505060405180910390f35b34801561017e57600080fd5b5061018761095d565b005b34801561019557600080fd5b5061019e6109d5565b6040518080602001828103825283818151815260200191508051906020019060200280838360005b838110156101e15780820151818401526020810190506101c6565b505050509050019250505060405180910390f35b34801561020157600080fd5b5061020a610af3565b604051808215151515815260200191505060405180910390f35b34801561023057600080fd5b50610239610bbb565b6040518080602001828103825283818151815260200191508051906020019060200280838360005b8381101561027c578082015181840152602081019050610261565b505050509050019250505060405180910390f35b34801561029c57600080fd5b506102d1600480360381019080803573ffffffffffffffffffffffffffffffffffffffff169060200190929190505050610cd9565b604051808215151515815260200191505060405180910390f35b3480156102f757600080fd5b5061031a6004803603810190808035600019169060200190929190505050610ea2565b604051808381526020018260ff1660ff1681526020019250505060405180910390f35b34801561034957600080fd5b50610352610fc1565b604051808273ffffffffffffffffffffffffffffffffffffffff1673ffffffffffffffffffffffffffffffffffffffff16815260200191505060405180910390f35b3480156103a057600080fd5b506103a9610fe6565b005b3480156103b757600080fd5b506103c061105d565b604051808273ffffffffffffffffffffffffffffffffffffffff1673ffffffffffffffffffffffffffffffffffffffff16815260200191505060405180910390f35b34801561040e57600080fd5b50610417611087565b6040518087600019166000191681526020018060200186815260200185815260200184600381111561044557fe5b60ff1681526020018360000b60000b8152602001828103825287818151815260200191508051906020019080838360005b83811015610491578082015181840152602081019050610476565b50505050905090810190601f1680156104be5780820380516001836020036101000a031916815260200191505b5097505050505050505060405180910390f35b3480156104dd57600080fd5b50610512600480360381019080803573ffffffffffffffffffffffffffffffffffffffff169060200190929190505050611201565b005b34801561052057600080fd5b506105436004803603810190808035600019169060200190929190505050611356565b604051808760001916600019168152602001806020018660ff1660ff16815260200185815260200184600381111561057757fe5b60ff1681526020018360000b60000b8152602001828103825287818151815260200191508051906020019080838360005b838110156105c35780820151818401526020810190506105a8565b50505050905090810190601f1680156105f05780820380516001836020036101000a031916815260200191505b5097505050505050505060405180910390f35b600080600060149054906101000a900460ff1615151561062257600080fd5b600354341015151561063357600080fd5b600260009054906101000a900473ffffffffffffffffffffffffffffffffffffffff1673ffffffffffffffffffffffffffffffffffffffff1663a9345240856040518263ffffffff167c0100000000000000000000000000000000000000000000000000000000028152600401808260001916600019168152602001915050602060405180830381600087803b1580156106cc57600080fd5b505af11580156106e0573d6000803e3d6000fd5b505050506040513d60208110156106f657600080fd5b8101908080519060200190929190505050151561071257600080fd5b61071d3385856114d4565b151561072857600080fd5b61073184611713565b151561073c57600080fd5b60056000856000191660001916815260200190815260200160002091506001826080604051908101604052803373ffffffffffffffffffffffffffffffffffffffff168152602001876000191681526020013481526020018660ff168152509080600181540180825580915050906001820390600052602060002090600402016000909192909190915060008201518160000160006101000a81548173ffffffffffffffffffffffffffffffffffffffff021916908373ffffffffffffffffffffffffffffffffffffffff160217905550602082015181600101906000191690556040820151816002015560608201518160030160006101000a81548160ff021916908360ff16021790555050505050600460003373ffffffffffffffffffffffffffffffffffffffff1673ffffffffffffffffffffffffffffffffffffffff16815260200190815260200160002090508084908060018154018082558091505090600182039060005260206000200160009091929091909150906000191690555050505050565b6060600460003373ffffffffffffffffffffffffffffffffffffffff1673ffffffffffffffffffffffffffffffffffffffff16815260200190815260200160002080548060200260200160405190810160405280929190818152602001828054801561095357602002820191906000526020600020905b8154600019168152602001906001019080831161093b575b5050505050905090565b6000809054906101000a900473ffffffffffffffffffffffffffffffffffffffff1673ffffffffffffffffffffffffffffffffffffffff163373ffffffffffffffffffffffffffffffffffffffff161415156109b857600080fd5b6001600060146101000a81548160ff021916908315150217905550565b6060600260009054906101000a900473ffffffffffffffffffffffffffffffffffffffff1673ffffffffffffffffffffffffffffffffffffffff1663c17c5a456040518163ffffffff167c0100000000000000000000000000000000000000000000000000000000028152600401600060405180830381600087803b158015610a5d57600080fd5b505af1158015610a71573d6000803e3d6000fd5b505050506040513d6000823e3d601f19601f820116820180604052506020811015610a9b57600080fd5b810190808051640100000000811115610ab357600080fd5b82810190506020810184811115610ac957600080fd5b8151856020820283011164010000000082111715610ae657600080fd5b5050929190505050905090565b6000600260009054906101000a900473ffffffffffffffffffffffffffffffffffffffff1673ffffffffffffffffffffffffffffffffffffffff16633412a15c6040518163ffffffff167c0100000000000000000000000000000000000000000000000000000000028152600401602060405180830381600087803b158015610b7b57600080fd5b505af1158015610b8f573d6000803e3d6000fd5b505050506040513d6020811015610ba557600080fd5b8101908080519060200190929190505050905090565b6060600260009054906101000a900473ffffffffffffffffffffffffffffffffffffffff1673ffffffffffffffffffffffffffffffffffffffff16635f29d4b16040518163ffffffff167c0100000000000000000000000000000000000000000000000000000000028152600401600060405180830381600087803b158015610c4357600080fd5b505af1158015610c57573d6000803e3d6000fd5b505050506040513d6000823e3d601f19601f820116820180604052506020811015610c8157600080fd5b810190808051640100000000811115610c9957600080fd5b82810190506020810184811115610caf57600080fd5b8151856020820283011164010000000082111715610ccc57600080fd5b5050929190505050905090565b60008060009054906101000a900473ffffffffffffffffffffffffffffffffffffffff1673ffffffffffffffffffffffffffffffffffffffff163373ffffffffffffffffffffffffffffffffffffffff16141515610d3657600080fd5b81600160006101000a81548173ffffffffffffffffffffffffffffffffffffffff021916908373ffffffffffffffffffffffffffffffffffffffff160217905550600160009054906101000a900473ffffffffffffffffffffffffffffffffffffffff16600260006101000a81548173ffffffffffffffffffffffffffffffffffffffff021916908373ffffffffffffffffffffffffffffffffffffffff160217905550600260009054906101000a900473ffffffffffffffffffffffffffffffffffffffff1673ffffffffffffffffffffffffffffffffffffffff16633412a15c6040518163ffffffff167c0100000000000000000000000000000000000000000000000000000000028152600401602060405180830381600087803b158015610e6057600080fd5b505af1158015610e74573d6000803e3d6000fd5b505050506040513d6020811015610e8a57600080fd5b81019080805190602001909291905050509050919050565b6000806000806005600086600019166000191681526020019081526020016000209150600090505b8180549050811015610fac573373ffffffffffffffffffffffffffffffffffffffff168282815481101515610efb57fe5b906000526020600020906004020160000160009054906101000a900473ffffffffffffffffffffffffffffffffffffffff1673ffffffffffffffffffffffffffffffffffffffff161415610f9f578181815481101515610f5757fe5b9060005260206000209060040201600201548282815481101515610f7757fe5b906000526020600020906004020160030160009054906101000a900460ff1693509350610fba565b8080600101915050610eca565b600080819150809050935093505b5050915091565b6000809054906101000a900473ffffffffffffffffffffffffffffffffffffffff1681565b6000809054906101000a900473ffffffffffffffffffffffffffffffffffffffff1673ffffffffffffffffffffffffffffffffffffffff163373ffffffffffffffffffffffffffffffffffffffff1614151561104157600080fd5b60008060146101000a81548160ff021916908315150217905550565b6000600160009054906101000a900473ffffffffffffffffffffffffffffffffffffffff16905090565b60006060600080600080600260009054906101000a900473ffffffffffffffffffffffffffffffffffffffff1673ffffffffffffffffffffffffffffffffffffffff1663bb2b0f5860016040518263ffffffff167c01000000000000000000000000000000000000000000000000000000000281526004018082151515158152602001915050600060405180830381600087803b15801561112757600080fd5b505af115801561113b573d6000803e3d6000fd5b505050506040513d6000823e3d601f19601f8201168201806040525060c081101561116557600080fd5b8101908080519060200190929190805164010000000081111561118757600080fd5b8281019050602081018481111561119d57600080fd5b81518560018202830111640100000000821117156111ba57600080fd5b505092919060200180519060200190929190805190602001909291908051906020019092919080519060200190929190505050955095509550955095509550909192939495565b6000809054906101000a900473ffffffffffffffffffffffffffffffffffffffff1673ffffffffffffffffffffffffffffffffffffffff163373ffffffffffffffffffffffffffffffffffffffff1614151561125c57600080fd5b600073ffffffffffffffffffffffffffffffffffffffff168173ffffffffffffffffffffffffffffffffffffffff161415151561129857600080fd5b8073ffffffffffffffffffffffffffffffffffffffff166000809054906101000a900473ffffffffffffffffffffffffffffffffffffffff1673ffffffffffffffffffffffffffffffffffffffff167f8be0079c531659141344cd1fd0a4f28419497f9722a3daafe3b4186f6b6457e060405160405180910390a3806000806101000a81548173ffffffffffffffffffffffffffffffffffffffff021916908373ffffffffffffffffffffffffffffffffffffffff16021790555050565b60006060600080600080600260009054906101000a900473ffffffffffffffffffffffffffffffffffffffff1673ffffffffffffffffffffffffffffffffffffffff1663fcc6077d886040518263ffffffff167c0100000000000000000000000000000000000000000000000000000000028152600401808260001916600019168152602001915050600060405180830381600087803b1580156113f957600080fd5b505af115801561140d573d6000803e3d6000fd5b505050506040513d6000823e3d601f19601f8201168201806040525060c081101561143757600080fd5b8101908080519060200190929190805164010000000081111561145957600080fd5b8281019050602081018481111561146f57600080fd5b815185600182028301116401000000008211171561148c57600080fd5b50509291906020018051906020019092919080519060200190929190805190602001909291908051906020019092919050505095509550955095509550955091939550919395565b600080600080600460008873ffffffffffffffffffffffffffffffffffffffff1673ffffffffffffffffffffffffffffffffffffffff168152602001908152602001600020925060008380549050111561157857600091505b8280549050821015611577578560001916838381548110151561154c57fe5b906000526020600020015460001916141561156a5760009350611709565b818060010192505061152d565b5b600260009054906101000a900473ffffffffffffffffffffffffffffffffffffffff1673ffffffffffffffffffffffffffffffffffffffff1663fcc6077d876040518263ffffffff167c0100000000000000000000000000000000000000000000000000000000028152600401808260001916600019168152602001915050600060405180830381600087803b15801561161157600080fd5b505af1158015611625573d6000803e3d6000fd5b505050506040513d6000823e3d601f19601f8201168201806040525060c081101561164f57600080fd5b8101908080519060200190929190805164010000000081111561167157600080fd5b8281019050602081018481111561168757600080fd5b81518560018202830111640100000000821117156116a457600080fd5b5050929190602001805190602001909291908051906020019092919080519060200190929190805190602001909291905050509091929394509091929350909150905050809150508060ff168560ff161015156117045760009350611709565b600193505b5050509392505050565b60008061171f83611356565b90919293945090919293509091925090915050809150506000600381111561174357fe5b81600381111561174f57fe5b149150509190505600a165627a7a723058204871238e8c93573dcfa3552dc6aba8d9b34aaf41f4b9a67e11bd1b41261a44690029",
  "source": "pragma solidity ^0.4.17;\n\nimport \"./Disableable.sol\";\nimport \"./OracleInterface.sol\";\n\n\n/// @title SportsBets\n/// @author John R. Kosinski\n/// @notice Takes bets and handles payouts for sporting matches \ncontract SportsBets is Disableable {\n\n    //boxing results oracle \n    address internal boxingOracleAddr = 0xeBf3C3b116fC39b05a4B6E24aCB3C7c5e604d07B;\n    OracleInterface internal boxingOracle = OracleInterface(boxingOracleAddr); \n\n    //constants\n    uint internal minimumBet = 1000000000000;\n    \n    //mappings \n    mapping(address => bytes32[]) internal userToBets;\n    mapping(bytes32 => Bet[]) internal matchToBets;\n    mapping(bytes32 => bool) internal matchPaidOut; \n\n    struct Bet {\n        address user;\n        bytes32 matchId;\n        uint amount; \n        uint8 chosenWinner; \n    }\n\n    /// @notice determines whether or not the user has already bet on the given match\n    /// @param _user address of a user\n    /// @param _matchId id of a match \n    /// @param _chosenWinner the index of the participant to bet on (to win)\n    /// @return true if the given user has already placed a bet on the given match \n    function _betIsValid(address _user, bytes32 _matchId, uint8 _chosenWinner) private view returns (bool) {\n\n        //ensure that user hasn't already bet on match \n        bytes32[] storage userBets = userToBets[_user]; \n        if (userBets.length > 0) {\n            for (uint n = 0; n < userBets.length; n++) {\n                if (userBets[n] == _matchId) {\n                    //user has already bet on match \n                    return false;\n                }\n            }\n        }\n\n        //ensure that bet is valid for the match \n        //TODO: combine this with other validation so that match is only gotten once \n        uint8 participantCount; \n        (,,participantCount,,,) = boxingOracle.getMatch(_matchId);\n        if (_chosenWinner >= participantCount)\n            return false;\n\n        return true;\n    }\n\n    /// @notice determines whether or not bets may still be accepted for the given match\n    /// @param _matchId id of a match \n    /// @return true if the match is bettable \n    function _matchOpenForBetting(bytes32 _matchId) private view returns (bool) {\n        OracleInterface.MatchOutcome outcome; \n        (,,,,outcome,) = getMatch(_matchId);\n        return outcome == OracleInterface.MatchOutcome.Pending;\n    }\n\n\n    /// @notice sets the address of the boxing oracle contract to use \n    /// @dev setting a wrong address may result in false return value, or error \n    /// @param _oracleAddress the address of the boxing oracle \n    /// @return true if connection to the new oracle address was successful\n    function setOracleAddress(address _oracleAddress) external onlyOwner returns (bool) {\n        boxingOracleAddr = _oracleAddress;\n        boxingOracle = OracleInterface(boxingOracleAddr); \n        return boxingOracle.testConnection();\n    }\n\n    /// @notice gets the address of the boxing oracle being used \n    /// @return the address of the currently set oracle \n    function getOracleAddress() external view returns (address) {\n        return boxingOracleAddr;\n    }\n\n    /// @notice gets a list ids of all currently bettable matches\n    /// @return array of match ids \n    function getBettableMatches() public view returns (bytes32[]) {\n        return boxingOracle.getPendingMatches(); \n    }\n\n    /// @notice gets a list ids of all matches\n    /// @return array of match ids \n    function getMatches() public view returns (bytes32[]) {\n        return boxingOracle.getAllMatches(); \n    }\n\n    /// @notice returns the full data of the specified match \n    /// @param _matchId the id of the desired match\n    /// @return match data \n    function getMatch(bytes32 _matchId) public view returns (\n        bytes32 id,\n        string name, \n        uint8 participantCount,\n        uint date, \n        OracleInterface.MatchOutcome outcome, \n        int8 winner) { \n\n        return boxingOracle.getMatch(_matchId); \n    }\n\n    /// @notice returns the full data of the most recent bettable match \n    /// @return match data \n    function getMostRecentMatch() public view returns (\n        bytes32 id,\n        string name, \n        uint participantCount, \n        uint date, \n        OracleInterface.MatchOutcome outcome, \n        int8 winner) { \n\n        return boxingOracle.getMostRecentMatch(true); \n    }\n\n    /// @notice gets the current matches on which the user has bet \n    /// @return array of match ids \n    function getUserBets() public view returns (bytes32[]) {\n        return userToBets[msg.sender];\n    }\n\n    /// @notice gets a user's bet on a given match \n    /// @param _matchId the id of the desired match \n    /// @return tuple containing the bet amount, and the index of the chosen winner (or (0,0) if no bet found)\n    function getUserBet(bytes32 _matchId) public view returns (uint amount, uint8 winner) { \n        Bet[] storage bets = matchToBets[_matchId]; \n        for (uint n = 0; n < bets.length; n++) {\n            if (bets[n].user == msg.sender) {\n                return (bets[n].amount, bets[n].chosenWinner);\n            }\n        }\n        return (0, 0); \n    }\n\n    /// @notice places a non-rescindable bet on the given match \n    /// @param _matchId the id of the match on which to bet \n    /// @param _chosenWinner the index of the participant chosen as winner\n    function placeBet(bytes32 _matchId, uint8 _chosenWinner) public payable notDisabled {\n\n        //bet must be above a certain minimum \n        require(msg.value >= minimumBet);\n\n        //make sure that match exists \n        require(boxingOracle.matchExists(_matchId)); \n\n        //require that chosen winner falls within the defined number of participants for match\n        require(_betIsValid(msg.sender, _matchId, _chosenWinner));\n\n        //match must still be open for betting\n        require(_matchOpenForBetting(_matchId)); \n\n        //transfer the money into the account \n        //TODO: why this not work\n        //address(this).transfer(msg.value);\n\n        //add the new bet \n        Bet[] storage bets = matchToBets[_matchId]; \n        bets.push(Bet(msg.sender, _matchId, msg.value, _chosenWinner))-1; \n\n        //add the mapping\n        bytes32[] storage userBets = userToBets[msg.sender]; \n        userBets.push(_matchId); \n    }\n\n    /// @notice tests that we are connected to a valid oracle for match results \n    /// @return true if valid connection \n    function testOracleConnection() public view returns(bool) {\n        return boxingOracle.testConnection();\n    }\n}\n",
  "sourcePath": "/media/acer/D/clients/self/blockchain/ethereum/solidity/crypto-champ/crypto-champ/sports-bets/contracts/SportsBets.sol",
  "compiler": {
    "name": "solc",
    "version": "0.4.24+commit.e67f0147.Emscripten.clang"
  },
  "schemaVersion": "2.0.1",
  "updatedAt": "2018-07-19T12:42:28.589Z"
}