{
  "contractName": "SportsBets",
  "abi": [
    {
      "constant": true,
      "inputs": [],
      "name": "owner",
      "outputs": [
        {
          "name": "",
          "type": "address"
        }
      ],
      "payable": false,
      "stateMutability": "view",
      "type": "function"
    },
    {
      "constant": false,
      "inputs": [
        {
          "name": "newOwner",
          "type": "address"
        }
      ],
      "name": "transferOwnership",
      "outputs": [],
      "payable": false,
      "stateMutability": "nonpayable",
      "type": "function"
    },
    {
      "anonymous": false,
      "inputs": [
        {
          "indexed": true,
          "name": "previousOwner",
          "type": "address"
        },
        {
          "indexed": true,
          "name": "newOwner",
          "type": "address"
        }
      ],
      "name": "OwnershipTransferred",
      "type": "event"
    },
    {
      "constant": false,
      "inputs": [
        {
          "name": "_oracleAddress",
          "type": "address"
        }
      ],
      "name": "setOracleAddress",
      "outputs": [
        {
          "name": "",
          "type": "bool"
        }
      ],
      "payable": false,
      "stateMutability": "nonpayable",
      "type": "function"
    },
    {
      "constant": true,
      "inputs": [],
      "name": "getOracleAddress",
      "outputs": [
        {
          "name": "",
          "type": "address"
        }
      ],
      "payable": false,
      "stateMutability": "view",
      "type": "function"
    },
    {
      "constant": true,
      "inputs": [],
      "name": "getBettableMatches",
      "outputs": [
        {
          "name": "",
          "type": "bytes32[]"
        }
      ],
      "payable": false,
      "stateMutability": "view",
      "type": "function"
    },
    {
      "constant": true,
      "inputs": [
        {
          "name": "_matchId",
          "type": "bytes32"
        }
      ],
      "name": "getMatch",
      "outputs": [
        {
          "name": "id",
          "type": "bytes32"
        },
        {
          "name": "name",
          "type": "string"
        },
        {
          "name": "participantCount",
          "type": "uint256"
        },
        {
          "name": "date",
          "type": "uint256"
        },
        {
          "name": "outcome",
          "type": "uint8"
        },
        {
          "name": "winner",
          "type": "int8"
        }
      ],
      "payable": false,
      "stateMutability": "view",
      "type": "function"
    },
    {
      "constant": true,
      "inputs": [],
      "name": "getMostRecentMatch",
      "outputs": [
        {
          "name": "id",
          "type": "bytes32"
        },
        {
          "name": "name",
          "type": "string"
        },
        {
          "name": "participantCount",
          "type": "uint256"
        },
        {
          "name": "date",
          "type": "uint256"
        },
        {
          "name": "outcome",
          "type": "uint8"
        },
        {
          "name": "winner",
          "type": "int8"
        }
      ],
      "payable": false,
      "stateMutability": "view",
      "type": "function"
    },
    {
      "constant": false,
      "inputs": [
        {
          "name": "_matchId",
          "type": "bytes32"
        },
        {
          "name": "_amount",
          "type": "uint256"
        },
        {
          "name": "_chosenWinner",
          "type": "uint8"
        }
      ],
      "name": "placeBet",
      "outputs": [],
      "payable": true,
      "stateMutability": "payable",
      "type": "function"
    },
    {
      "constant": true,
      "inputs": [],
      "name": "testOracleConnection",
      "outputs": [
        {
          "name": "",
          "type": "bool"
        }
      ],
      "payable": false,
      "stateMutability": "view",
      "type": "function"
    },
    {
      "constant": false,
      "inputs": [],
      "name": "addTestData",
      "outputs": [],
      "payable": false,
      "stateMutability": "nonpayable",
      "type": "function"
    }
  ],
  "bytecode": "0x608060405273a5f7019754316b93d5e14d85fbd29e2477124dae600160006101000a81548173ffffffffffffffffffffffffffffffffffffffff021916908373ffffffffffffffffffffffffffffffffffffffff160217905550600160009054906101000a900473ffffffffffffffffffffffffffffffffffffffff16600260006101000a81548173ffffffffffffffffffffffffffffffffffffffff021916908373ffffffffffffffffffffffffffffffffffffffff16021790555064e8d4a51000600355336000806101000a81548173ffffffffffffffffffffffffffffffffffffffff021916908373ffffffffffffffffffffffffffffffffffffffff1602179055506110c8806101146000396000f3006080604052600436106100a4576000357c0100000000000000000000000000000000000000000000000000000000900463ffffffff1680632ce3707e146100a95780633397741b146100d85780633fbafb5e146101445780634c69c00f1461017f5780638da5cb5b146101da578063a212b45414610231578063b18b78dd14610248578063ced1b7081461029f578063f2fde38b1461036e578063fcc6077d146103b1575b600080fd5b3480156100b557600080fd5b506100be61049a565b604051808215151515815260200191505060405180910390f35b3480156100e457600080fd5b506100ed610562565b6040518080602001828103825283818151815260200191508051906020019060200280838360005b83811015610130578082015181840152602081019050610115565b505050509050019250505060405180910390f35b61017d600480360381019080803560001916906020019092919080359060200190929190803560ff169060200190929190505050610680565b005b34801561018b57600080fd5b506101c0600480360381019080803573ffffffffffffffffffffffffffffffffffffffff169060200190929190505050610910565b604051808215151515815260200191505060405180910390f35b3480156101e657600080fd5b506101ef610ad9565b604051808273ffffffffffffffffffffffffffffffffffffffff1673ffffffffffffffffffffffffffffffffffffffff16815260200191505060405180910390f35b34801561023d57600080fd5b50610246610afe565b005b34801561025457600080fd5b5061025d610be0565b604051808273ffffffffffffffffffffffffffffffffffffffff1673ffffffffffffffffffffffffffffffffffffffff16815260200191505060405180910390f35b3480156102ab57600080fd5b506102b4610c0a565b604051808760001916600019168152602001806020018681526020018581526020018460038111156102e257fe5b60ff1681526020018360000b60000b8152602001828103825287818151815260200191508051906020019080838360005b8381101561032e578082015181840152602081019050610313565b50505050905090810190601f16801561035b5780820380516001836020036101000a031916815260200191505b5097505050505050505060405180910390f35b34801561037a57600080fd5b506103af600480360381019080803573ffffffffffffffffffffffffffffffffffffffff169060200190929190505050610d84565b005b3480156103bd57600080fd5b506103e06004803603810190808035600019169060200190929190505050610ed9565b6040518087600019166000191681526020018060200186815260200185815260200184600381111561040e57fe5b60ff1681526020018360000b60000b8152602001828103825287818151815260200191508051906020019080838360005b8381101561045a57808201518184015260208101905061043f565b50505050905090810190601f1680156104875780820380516001836020036101000a031916815260200191505b5097505050505050505060405180910390f35b6000600260009054906101000a900473ffffffffffffffffffffffffffffffffffffffff1673ffffffffffffffffffffffffffffffffffffffff16633412a15c6040518163ffffffff167c0100000000000000000000000000000000000000000000000000000000028152600401602060405180830381600087803b15801561052257600080fd5b505af1158015610536573d6000803e3d6000fd5b505050506040513d602081101561054c57600080fd5b8101908080519060200190929190505050905090565b6060600260009054906101000a900473ffffffffffffffffffffffffffffffffffffffff1673ffffffffffffffffffffffffffffffffffffffff16635f29d4b16040518163ffffffff167c0100000000000000000000000000000000000000000000000000000000028152600401600060405180830381600087803b1580156105ea57600080fd5b505af11580156105fe573d6000803e3d6000fd5b505050506040513d6000823e3d601f19601f82011682018060405250602081101561062857600080fd5b81019080805164010000000081111561064057600080fd5b8281019050602081018481111561065657600080fd5b815185602082028301116401000000008211171561067357600080fd5b5050929190505050905090565b600080600354841015151561069457600080fd5b600260009054906101000a900473ffffffffffffffffffffffffffffffffffffffff1673ffffffffffffffffffffffffffffffffffffffff1663a9345240866040518263ffffffff167c0100000000000000000000000000000000000000000000000000000000028152600401808260001916600019168152602001915050602060405180830381600087803b15801561072d57600080fd5b505af1158015610741573d6000803e3d6000fd5b505050506040513d602081101561075757600080fd5b8101908080519060200190929190505050151561077357600080fd5b61077c85611057565b151561078757600080fd5b60056000866000191660001916815260200190815260200160002091506001826080604051908101604052803373ffffffffffffffffffffffffffffffffffffffff168152602001886000191681526020018781526020018660ff168152509080600181540180825580915050906001820390600052602060002090600402016000909192909190915060008201518160000160006101000a81548173ffffffffffffffffffffffffffffffffffffffff021916908373ffffffffffffffffffffffffffffffffffffffff160217905550602082015181600101906000191690556040820151816002015560608201518160030160006101000a81548160ff021916908360ff16021790555050505050600460003373ffffffffffffffffffffffffffffffffffffffff1673ffffffffffffffffffffffffffffffffffffffff1681526020019081526020016000209050808590806001815401808255809150509060018203906000526020600020016000909192909190915090600019169055505050505050565b60008060009054906101000a900473ffffffffffffffffffffffffffffffffffffffff1673ffffffffffffffffffffffffffffffffffffffff163373ffffffffffffffffffffffffffffffffffffffff1614151561096d57600080fd5b81600160006101000a81548173ffffffffffffffffffffffffffffffffffffffff021916908373ffffffffffffffffffffffffffffffffffffffff160217905550600160009054906101000a900473ffffffffffffffffffffffffffffffffffffffff16600260006101000a81548173ffffffffffffffffffffffffffffffffffffffff021916908373ffffffffffffffffffffffffffffffffffffffff160217905550600260009054906101000a900473ffffffffffffffffffffffffffffffffffffffff1673ffffffffffffffffffffffffffffffffffffffff16633412a15c6040518163ffffffff167c0100000000000000000000000000000000000000000000000000000000028152600401602060405180830381600087803b158015610a9757600080fd5b505af1158015610aab573d6000803e3d6000fd5b505050506040513d6020811015610ac157600080fd5b81019080805190602001909291905050509050919050565b6000809054906101000a900473ffffffffffffffffffffffffffffffffffffffff1681565b60008060009054906101000a900473ffffffffffffffffffffffffffffffffffffffff1673ffffffffffffffffffffffffffffffffffffffff163373ffffffffffffffffffffffffffffffffffffffff16141515610b5b57600080fd5b610b63610c0a565b90919293509091925090915090505080915050610b898166038d7ea4c680006001610680565b610b9f8169021e19e0c9bab24000006000610680565b610bb481680579a814e10a7400006001610680565b610bc8816729a2241af62c00006001610680565b610bdd8168055de6a779bbac00006000610680565b50565b6000600160009054906101000a900473ffffffffffffffffffffffffffffffffffffffff16905090565b60006060600080600080600260009054906101000a900473ffffffffffffffffffffffffffffffffffffffff1673ffffffffffffffffffffffffffffffffffffffff1663bb2b0f5860016040518263ffffffff167c01000000000000000000000000000000000000000000000000000000000281526004018082151515158152602001915050600060405180830381600087803b158015610caa57600080fd5b505af1158015610cbe573d6000803e3d6000fd5b505050506040513d6000823e3d601f19601f8201168201806040525060c0811015610ce857600080fd5b81019080805190602001909291908051640100000000811115610d0a57600080fd5b82810190506020810184811115610d2057600080fd5b8151856001820283011164010000000082111715610d3d57600080fd5b505092919060200180519060200190929190805190602001909291908051906020019092919080519060200190929190505050955095509550955095509550909192939495565b6000809054906101000a900473ffffffffffffffffffffffffffffffffffffffff1673ffffffffffffffffffffffffffffffffffffffff163373ffffffffffffffffffffffffffffffffffffffff16141515610ddf57600080fd5b600073ffffffffffffffffffffffffffffffffffffffff168173ffffffffffffffffffffffffffffffffffffffff1614151515610e1b57600080fd5b8073ffffffffffffffffffffffffffffffffffffffff166000809054906101000a900473ffffffffffffffffffffffffffffffffffffffff1673ffffffffffffffffffffffffffffffffffffffff167f8be0079c531659141344cd1fd0a4f28419497f9722a3daafe3b4186f6b6457e060405160405180910390a3806000806101000a81548173ffffffffffffffffffffffffffffffffffffffff021916908373ffffffffffffffffffffffffffffffffffffffff16021790555050565b60006060600080600080600260009054906101000a900473ffffffffffffffffffffffffffffffffffffffff1673ffffffffffffffffffffffffffffffffffffffff1663fcc6077d886040518263ffffffff167c0100000000000000000000000000000000000000000000000000000000028152600401808260001916600019168152602001915050600060405180830381600087803b158015610f7c57600080fd5b505af1158015610f90573d6000803e3d6000fd5b505050506040513d6000823e3d601f19601f8201168201806040525060c0811015610fba57600080fd5b81019080805190602001909291908051640100000000811115610fdc57600080fd5b82810190506020810184811115610ff257600080fd5b815185600182028301116401000000008211171561100f57600080fd5b50509291906020018051906020019092919080519060200190929190805190602001909291908051906020019092919050505095509550955095509550955091939550919395565b60008061106383610ed9565b90919293945090919293509091925090915050809150506000600381111561108757fe5b81600381111561109357fe5b149150509190505600a165627a7a723058208a966a242705d5b4929f77a23cd3f15bb2631a624f62059b18540a326556e13f0029",
  "source": "pragma solidity ^0.4.17;\n\nimport \"./Ownable.sol\";\nimport \"./OracleInterface.sol\";\n\n\n/// @title SportsBets\n/// @author John R. Kosinski\n/// @notice Takes bets and handles payouts for sporting matches \ncontract SportsBets is Ownable {\n\n    //boxing results oracle \n    address internal boxingOracleAddr = 0xa5f7019754316B93d5E14D85fbd29E2477124dAE;\n    OracleInterface internal boxingOracle = OracleInterface(boxingOracleAddr); \n\n    //constants\n    uint internal minimumBet = 1000000000000;\n    \n    //mappings \n    mapping(address => bytes32[]) internal userToBets;\n    mapping(bytes32 => Bet[]) internal matchToBets;\n    mapping(bytes32 => bool) internal matchPaidOut; \n\n    struct Bet {\n        address user;\n        bytes32 matchId;\n        uint amount; \n        uint8 chosenWinner; \n    }\n\n    /// @notice determines whether or not the user has already bet on the given match\n    /// @param _user address of a user\n    /// @param _matchId id of a match \n    /// @return true if the given user has already placed a bet on the given match \n    function _userHasBetOnMatch(address _user, bytes32 _matchId) private view returns (bool) {\n        bytes32[] storage userBets = userToBets[_user]; \n        if (userBets.length > 0) {\n            for (uint n = 0; n < userBets.length; n++) {\n                if (userBets[n] == _matchId) {\n                    return true;\n                }\n            }\n        }\n\n        return false;\n    }\n\n    /// @notice determines whether or not bets may still be accepted for the given match\n    /// @param _matchId id of a match \n    /// @return true if the match is bettable \n    function _matchOpenForBetting(bytes32 _matchId) private view returns (bool) {\n        OracleInterface.MatchOutcome outcome; \n        (,,,,outcome,) = getMatch(_matchId);\n        return outcome == OracleInterface.MatchOutcome.Pending;\n    }\n\n\n    /// @notice sets the address of the boxing oracle contract to use \n    /// @dev setting a wrong address may result in false return value, or error \n    /// @param _oracleAddress the address of the boxing oracle \n    /// @return true if connection to the new oracle address was successful\n    function setOracleAddress(address _oracleAddress) external onlyOwner returns (bool) {\n        boxingOracleAddr = _oracleAddress;\n        boxingOracle = OracleInterface(boxingOracleAddr); \n        return boxingOracle.testConnection();\n    }\n\n    /// @notice gets the address of the boxing oracle being used \n    /// @return the address of the currently set oracle \n    function getOracleAddress() external view returns (address) {\n        return boxingOracleAddr;\n    }\n\n    /// @notice gets a list ids of all currently bettable matches\n    /// @return array of match ids \n    function getBettableMatches() public view returns (bytes32[]) {\n        return boxingOracle.getPendingMatches(); \n    }\n\n    /// @notice returns the full data of the specified match \n    /// @param _matchId the id of the desired match\n    /// @return match data \n    function getMatch(bytes32 _matchId) public view returns (\n        bytes32 id,\n        string name, \n        uint participantCount,\n        uint date, \n        OracleInterface.MatchOutcome outcome, \n        int8 winner) { \n\n        return boxingOracle.getMatch(_matchId); \n    }\n\n    /// @notice returns the full data of the most recent bettable match \n    /// @return match data \n    function getMostRecentMatch() public view returns (\n        bytes32 id,\n        string name, \n        uint participantCount, \n        uint date, \n        OracleInterface.MatchOutcome outcome, \n        int8 winner) { \n\n        return boxingOracle.getMostRecentMatch(true); \n    }\n\n    /// @notice places a non-rescindable bet on the given match \n    /// @param _matchId the id of the match on which to bet \n    /// @param _amount the amount (in wei) to bet \n    /// @param _chosenWinner the index of the participant chosen as winner\n    function placeBet(bytes32 _matchId, uint _amount, uint8 _chosenWinner) public payable {\n\n        //bet must be above a certain minimum \n        require(_amount >= minimumBet);\n\n        //make sure that match exists \n        require(boxingOracle.matchExists(_matchId)); \n\n        //TODO: require that chosen winner falls within the defined number of participants for match\n\n        //user should not have already placed bet (can't change bet after placing) \n        //require(!_userHasBetOnMatch(msg.sender, _matchId)); \n\n        //match must still be open for betting\n        require(_matchOpenForBetting(_matchId)); \n\n        //add the new bet \n        Bet[] storage bets = matchToBets[_matchId]; \n        bets.push(Bet(msg.sender, _matchId, _amount, _chosenWinner))-1; \n\n        //add the mapping\n        bytes32[] storage userBets = userToBets[msg.sender]; \n        userBets.push(_matchId); \n    }\n\n    /// @notice tests that we are connected to a valid oracle for match results \n    /// @return true if valid connection \n    function testOracleConnection() public view returns(bool) {\n        return boxingOracle.testConnection();\n    }\n\n    function addTestData() external onlyOwner {\n        bytes32 id; \n        (id,,,,,) = getMostRecentMatch();\n\n        placeBet(id, uint(0.001 ether), 1); \n        placeBet(id, uint(10000 ether), 0); \n        placeBet(id, uint(101 ether), 1); \n        placeBet(id, uint(3 ether), 1); \n        placeBet(id, uint(99 ether), 0); \n    }\n}",
  "sourcePath": "/media/acer/D/clients/self/blockchain/ethereum/solidity/crypto-champ/crypto-champ/sports-bets/contracts/SportsBets.sol",
  "compiler": {
    "name": "solc",
    "version": "0.4.24+commit.e67f0147.Emscripten.clang"
  },
  "schemaVersion": "2.0.1",
  "updatedAt": "2018-07-18T03:32:07.742Z"
}